{
	"SimpleAccountV2.sol": {
		"SimpleAccountV2": {
			"abi": [
				{
					"inputs": [
						{
							"internalType": "contract IEntryPoint",
							"name": "anEntryPoint",
							"type": "address"
						}
					],
					"stateMutability": "nonpayable",
					"type": "constructor"
				},
				{
					"anonymous": false,
					"inputs": [
						{
							"indexed": false,
							"internalType": "address",
							"name": "previousAdmin",
							"type": "address"
						},
						{
							"indexed": false,
							"internalType": "address",
							"name": "newAdmin",
							"type": "address"
						}
					],
					"name": "AdminChanged",
					"type": "event"
				},
				{
					"anonymous": false,
					"inputs": [
						{
							"indexed": true,
							"internalType": "address",
							"name": "beacon",
							"type": "address"
						}
					],
					"name": "BeaconUpgraded",
					"type": "event"
				},
				{
					"anonymous": false,
					"inputs": [
						{
							"indexed": false,
							"internalType": "uint8",
							"name": "version",
							"type": "uint8"
						}
					],
					"name": "Initialized",
					"type": "event"
				},
				{
					"anonymous": false,
					"inputs": [
						{
							"indexed": true,
							"internalType": "address",
							"name": "implementation",
							"type": "address"
						}
					],
					"name": "Upgraded",
					"type": "event"
				},
				{
					"inputs": [],
					"name": "addDeposit",
					"outputs": [],
					"stateMutability": "payable",
					"type": "function"
				},
				{
					"inputs": [],
					"name": "entryPoint",
					"outputs": [
						{
							"internalType": "contract IEntryPoint",
							"name": "",
							"type": "address"
						}
					],
					"stateMutability": "view",
					"type": "function"
				},
				{
					"inputs": [
						{
							"internalType": "address",
							"name": "dest",
							"type": "address"
						},
						{
							"internalType": "uint256",
							"name": "value",
							"type": "uint256"
						},
						{
							"internalType": "bytes",
							"name": "func",
							"type": "bytes"
						}
					],
					"name": "execute",
					"outputs": [],
					"stateMutability": "nonpayable",
					"type": "function"
				},
				{
					"inputs": [
						{
							"internalType": "address[]",
							"name": "dest",
							"type": "address[]"
						},
						{
							"internalType": "bytes[]",
							"name": "func",
							"type": "bytes[]"
						}
					],
					"name": "executeBatch",
					"outputs": [],
					"stateMutability": "nonpayable",
					"type": "function"
				},
				{
					"inputs": [],
					"name": "getDeposit",
					"outputs": [
						{
							"internalType": "uint256",
							"name": "",
							"type": "uint256"
						}
					],
					"stateMutability": "view",
					"type": "function"
				},
				{
					"inputs": [],
					"name": "nonce",
					"outputs": [
						{
							"internalType": "uint256",
							"name": "",
							"type": "uint256"
						}
					],
					"stateMutability": "view",
					"type": "function"
				},
				{
					"inputs": [],
					"name": "owner",
					"outputs": [
						{
							"internalType": "address",
							"name": "",
							"type": "address"
						}
					],
					"stateMutability": "view",
					"type": "function"
				},
				{
					"inputs": [],
					"name": "proxiableUUID",
					"outputs": [
						{
							"internalType": "bytes32",
							"name": "",
							"type": "bytes32"
						}
					],
					"stateMutability": "view",
					"type": "function"
				},
				{
					"inputs": [
						{
							"internalType": "address",
							"name": "newImplementation",
							"type": "address"
						}
					],
					"name": "upgradeTo",
					"outputs": [],
					"stateMutability": "nonpayable",
					"type": "function"
				},
				{
					"inputs": [
						{
							"internalType": "address",
							"name": "newImplementation",
							"type": "address"
						},
						{
							"internalType": "bytes",
							"name": "data",
							"type": "bytes"
						}
					],
					"name": "upgradeToAndCall",
					"outputs": [],
					"stateMutability": "payable",
					"type": "function"
				},
				{
					"inputs": [
						{
							"components": [
								{
									"internalType": "address",
									"name": "sender",
									"type": "address"
								},
								{
									"internalType": "uint256",
									"name": "nonce",
									"type": "uint256"
								},
								{
									"internalType": "bytes",
									"name": "initCode",
									"type": "bytes"
								},
								{
									"internalType": "bytes",
									"name": "callData",
									"type": "bytes"
								},
								{
									"internalType": "uint256",
									"name": "callGasLimit",
									"type": "uint256"
								},
								{
									"internalType": "uint256",
									"name": "verificationGasLimit",
									"type": "uint256"
								},
								{
									"internalType": "uint256",
									"name": "preVerificationGas",
									"type": "uint256"
								},
								{
									"internalType": "uint256",
									"name": "maxFeePerGas",
									"type": "uint256"
								},
								{
									"internalType": "uint256",
									"name": "maxPriorityFeePerGas",
									"type": "uint256"
								},
								{
									"internalType": "bytes",
									"name": "paymasterAndData",
									"type": "bytes"
								},
								{
									"internalType": "bytes",
									"name": "signature",
									"type": "bytes"
								}
							],
							"internalType": "struct UserOperation",
							"name": "userOp",
							"type": "tuple"
						},
						{
							"internalType": "bytes32",
							"name": "userOpHash",
							"type": "bytes32"
						},
						{
							"internalType": "uint256",
							"name": "missingAccountFunds",
							"type": "uint256"
						}
					],
					"name": "validateUserOp",
					"outputs": [
						{
							"internalType": "uint256",
							"name": "validationData",
							"type": "uint256"
						}
					],
					"stateMutability": "nonpayable",
					"type": "function"
				},
				{
					"inputs": [
						{
							"internalType": "address payable",
							"name": "withdrawAddress",
							"type": "address"
						},
						{
							"internalType": "uint256",
							"name": "amount",
							"type": "uint256"
						}
					],
					"name": "withdrawDepositTo",
					"outputs": [],
					"stateMutability": "nonpayable",
					"type": "function"
				},
				{
					"stateMutability": "payable",
					"type": "receive"
				}
			],
			"devdoc": {
				"kind": "dev",
				"methods": {
					"proxiableUUID()": {
						"details": "Implementation of the ERC1822 {proxiableUUID} function. This returns the storage slot used by the implementation. It is used to validate the implementation's compatibility when performing an upgrade. IMPORTANT: A proxy pointing at a proxiable contract should not be considered proxiable itself, because this risks bricking a proxy that upgrades to it, by delegating to itself until out of gas. Thus it is critical that this function revert if invoked through a proxy. This is guaranteed by the `notDelegated` modifier."
					},
					"upgradeTo(address)": {
						"custom:oz-upgrades-unsafe-allow-reachable": "delegatecall",
						"details": "Upgrade the implementation of the proxy to `newImplementation`. Calls {_authorizeUpgrade}. Emits an {Upgraded} event."
					},
					"upgradeToAndCall(address,bytes)": {
						"custom:oz-upgrades-unsafe-allow-reachable": "delegatecall",
						"details": "Upgrade the implementation of the proxy to `newImplementation`, and subsequently execute the function call encoded in `data`. Calls {_authorizeUpgrade}. Emits an {Upgraded} event."
					},
					"withdrawDepositTo(address,uint256)": {
						"params": {
							"amount": "to withdraw",
							"withdrawAddress": "target to send to"
						}
					}
				},
				"version": 1
			},
			"evm": {
				"assembly": "    /* \"SimpleAccountV2.sol\":590:4324  contract SimpleAccountV2 is BaseAccount, UUPSUpgradeable, Initializable {... */\n  mstore(0x40, 0xc0)\n    /* \"@openzeppelin/contracts/proxy/utils/UUPSUpgradeable.sol\":1088:1092  this */\n  address\n    /* \"@openzeppelin/contracts/proxy/utils/UUPSUpgradeable.sol\":1045:1093  address private immutable __self = address(this) */\n  0x80\n  mstore\n    /* \"SimpleAccountV2.sol\":1467:1548  constructor(IEntryPoint anEntryPoint) {... */\n  callvalue\n  dup1\n  iszero\n  tag_1\n  jumpi\n  0x00\n  dup1\n  revert\ntag_1:\n  pop\n  mload(0x40)\n  sub(codesize, bytecodeSize)\n  dup1\n  bytecodeSize\n  dup4\n  codecopy\n  dup2\n  add\n  0x40\n  dup2\n  swap1\n  mstore\n  tag_2\n  swap2\n  tag_3\n  jump\t// in\ntag_2:\n  sub(shl(0xa0, 0x01), 0x01)\n    /* \"SimpleAccountV2.sol\":1515:1541  _entryPoint = anEntryPoint */\n  and\n  0xa0\n  mstore\n    /* \"SimpleAccountV2.sol\":590:4324  contract SimpleAccountV2 is BaseAccount, UUPSUpgradeable, Initializable {... */\n  jump(tag_7)\n    /* \"#utility.yul\":14:324   */\ntag_3:\n    /* \"#utility.yul\":104:110   */\n  0x00\n    /* \"#utility.yul\":157:159   */\n  0x20\n    /* \"#utility.yul\":145:154   */\n  dup3\n    /* \"#utility.yul\":136:143   */\n  dup5\n    /* \"#utility.yul\":132:155   */\n  sub\n    /* \"#utility.yul\":128:160   */\n  slt\n    /* \"#utility.yul\":125:177   */\n  iszero\n  tag_9\n  jumpi\n    /* \"#utility.yul\":173:174   */\n  0x00\n    /* \"#utility.yul\":170:171   */\n  dup1\n    /* \"#utility.yul\":163:175   */\n  revert\n    /* \"#utility.yul\":125:177   */\ntag_9:\n    /* \"#utility.yul\":199:215   */\n  dup2\n  mload\n  sub(shl(0xa0, 0x01), 0x01)\n    /* \"#utility.yul\":244:275   */\n  dup2\n  and\n    /* \"#utility.yul\":234:276   */\n  dup2\n  eq\n    /* \"#utility.yul\":224:294   */\n  tag_10\n  jumpi\n    /* \"#utility.yul\":290:291   */\n  0x00\n    /* \"#utility.yul\":287:288   */\n  dup1\n    /* \"#utility.yul\":280:292   */\n  revert\n    /* \"#utility.yul\":224:294   */\ntag_10:\n    /* \"#utility.yul\":313:318   */\n  swap4\n    /* \"#utility.yul\":14:324   */\n  swap3\n  pop\n  pop\n  pop\n  jump\t// out\ntag_7:\n    /* \"SimpleAccountV2.sol\":590:4324  contract SimpleAccountV2 is BaseAccount, UUPSUpgradeable, Initializable {... */\n  mload(0x80)\n  mload(0xa0)\n  codecopy(0x00, dataOffset(sub_0), dataSize(sub_0))\n  0x00\n  assignImmutable(\"0x4cf4825bec4f653a2ff4d013de59e602cd5829d8b88cc9cec06a1a9cd4f34587\")\n  0x00\n  assignImmutable(\"0x26253e4b9754d7b70fa53c504adf7cef3bf444a45077af864d39a1233fe15035\")\n  return(0x00, dataSize(sub_0))\nstop\n\nsub_0: assembly {\n        /* \"SimpleAccountV2.sol\":590:4324  contract SimpleAccountV2 is BaseAccount, UUPSUpgradeable, Initializable {... */\n      mstore(0x40, 0x80)\n      jumpi(tag_1, lt(calldatasize, 0x04))\n      shr(0xe0, calldataload(0x00))\n      dup1\n      0x52d1902d\n      gt\n      tag_15\n      jumpi\n      dup1\n      0x52d1902d\n      eq\n      tag_9\n      jumpi\n      dup1\n      0x8da5cb5b\n      eq\n      tag_10\n      jumpi\n      dup1\n      0xaffed0e0\n      eq\n      tag_11\n      jumpi\n      dup1\n      0xb0d691fe\n      eq\n      tag_12\n      jumpi\n      dup1\n      0xb61d27f6\n      eq\n      tag_13\n      jumpi\n      dup1\n      0xc399ec88\n      eq\n      tag_14\n      jumpi\n      0x00\n      dup1\n      revert\n    tag_15:\n      dup1\n      0x18dfb3c7\n      eq\n      tag_3\n      jumpi\n      dup1\n      0x3659cfe6\n      eq\n      tag_4\n      jumpi\n      dup1\n      0x3a871cdd\n      eq\n      tag_5\n      jumpi\n      dup1\n      0x4a58db19\n      eq\n      tag_6\n      jumpi\n      dup1\n      0x4d44560d\n      eq\n      tag_7\n      jumpi\n      dup1\n      0x4f1ef286\n      eq\n      tag_8\n      jumpi\n      0x00\n      dup1\n      revert\n    tag_1:\n      jumpi(tag_2, calldatasize)\n      stop\n    tag_2:\n      0x00\n      dup1\n      revert\n        /* \"SimpleAccountV2.sol\":2107:2404  function executeBatch(address[] calldata dest, bytes[] calldata func) external {... */\n    tag_3:\n      callvalue\n      dup1\n      iszero\n      tag_18\n      jumpi\n      0x00\n      dup1\n      revert\n    tag_18:\n      pop\n      tag_19\n      tag_20\n      calldatasize\n      0x04\n      tag_21\n      jump\t// in\n    tag_20:\n      tag_22\n      jump\t// in\n    tag_19:\n      stop\n        /* \"@openzeppelin/contracts/proxy/utils/UUPSUpgradeable.sol\":3143:3338  function upgradeTo(address newImplementation) public virtual onlyProxy {... */\n    tag_4:\n      callvalue\n      dup1\n      iszero\n      tag_23\n      jumpi\n      0x00\n      dup1\n      revert\n    tag_23:\n      pop\n      tag_19\n      tag_25\n      calldatasize\n      0x04\n      tag_26\n      jump\t// in\n    tag_25:\n      tag_27\n      jump\t// in\n        /* \"core/BaseAccount.sol\":1446:1859  function validateUserOp(UserOperation calldata userOp, bytes32 userOpHash, uint256 missingAccountFunds)... */\n    tag_5:\n      callvalue\n      dup1\n      iszero\n      tag_28\n      jumpi\n      0x00\n      dup1\n      revert\n    tag_28:\n      pop\n      tag_29\n      tag_30\n      calldatasize\n      0x04\n      tag_31\n      jump\t// in\n    tag_30:\n      tag_32\n      jump\t// in\n    tag_29:\n      mload(0x40)\n        /* \"#utility.yul\":2243:2268   */\n      swap1\n      dup2\n      mstore\n        /* \"#utility.yul\":2231:2233   */\n      0x20\n        /* \"#utility.yul\":2216:2234   */\n      add\n        /* \"core/BaseAccount.sol\":1446:1859  function validateUserOp(UserOperation calldata userOp, bytes32 userOpHash, uint256 missingAccountFunds)... */\n    tag_33:\n      mload(0x40)\n      dup1\n      swap2\n      sub\n      swap1\n      return\n        /* \"SimpleAccountV2.sol\":3808:3918  function addDeposit() public payable {... */\n    tag_6:\n      tag_19\n      tag_36\n      jump\t// in\n        /* \"SimpleAccountV2.sol\":4070:4228  function withdrawDepositTo(address payable withdrawAddress, uint256 amount) public onlyOwner {... */\n    tag_7:\n      callvalue\n      dup1\n      iszero\n      tag_37\n      jumpi\n      0x00\n      dup1\n      revert\n    tag_37:\n      pop\n      tag_19\n      tag_39\n      calldatasize\n      0x04\n      tag_40\n      jump\t// in\n    tag_39:\n      tag_41\n      jump\t// in\n        /* \"@openzeppelin/contracts/proxy/utils/UUPSUpgradeable.sol\":3657:3877  function upgradeToAndCall(address newImplementation, bytes memory data) public payable virtual onlyProxy {... */\n    tag_8:\n      tag_19\n      tag_43\n      calldatasize\n      0x04\n      tag_44\n      jump\t// in\n    tag_43:\n      tag_45\n      jump\t// in\n        /* \"@openzeppelin/contracts/proxy/utils/UUPSUpgradeable.sol\":2762:2893  function proxiableUUID() external view virtual override notDelegated returns (bytes32) {... */\n    tag_9:\n      callvalue\n      dup1\n      iszero\n      tag_46\n      jumpi\n      0x00\n      dup1\n      revert\n    tag_46:\n      pop\n      tag_29\n      tag_48\n      jump\t// in\n        /* \"SimpleAccountV2.sol\":959:979  address public owner */\n    tag_10:\n      callvalue\n      dup1\n      iszero\n      tag_51\n      jumpi\n      0x00\n      dup1\n      revert\n    tag_51:\n      pop\n      sload(0x01)\n      tag_52\n      swap1\n      shl(0x60, 0x01)\n      swap1\n      div\n      sub(shl(0xa0, 0x01), 0x01)\n      and\n      dup2\n      jump\n    tag_52:\n      mload(0x40)\n      sub(shl(0xa0, 0x01), 0x01)\n        /* \"#utility.yul\":4146:4178   */\n      swap1\n      swap2\n      and\n        /* \"#utility.yul\":4128:4179   */\n      dup2\n      mstore\n        /* \"#utility.yul\":4116:4118   */\n      0x20\n        /* \"#utility.yul\":4101:4119   */\n      add\n        /* \"SimpleAccountV2.sol\":959:979  address public owner */\n      tag_33\n        /* \"#utility.yul\":3982:4185   */\n      jump\n        /* \"SimpleAccountV2.sol\":1137:1231  function nonce() public view virtual override returns (uint256) {... */\n    tag_11:\n      callvalue\n      dup1\n      iszero\n      tag_56\n      jumpi\n      0x00\n      dup1\n      revert\n    tag_56:\n      pop\n        /* \"SimpleAccountV2.sol\":1218:1224  _nonce */\n      and(sub(shl(0x60, 0x01), 0x01), sload(0x01))\n        /* \"SimpleAccountV2.sol\":1137:1231  function nonce() public view virtual override returns (uint256) {... */\n      jump(tag_29)\n        /* \"SimpleAccountV2.sol\":1269:1377  function entryPoint() public view virtual override returns (IEntryPoint) {... */\n    tag_12:\n      callvalue\n      dup1\n      iszero\n      tag_60\n      jumpi\n      0x00\n      dup1\n      revert\n    tag_60:\n      pop\n        /* \"SimpleAccountV2.sol\":1359:1370  _entryPoint */\n      immutable(\"0x4cf4825bec4f653a2ff4d013de59e602cd5829d8b88cc9cec06a1a9cd4f34587\")\n        /* \"SimpleAccountV2.sol\":1269:1377  function entryPoint() public view virtual override returns (IEntryPoint) {... */\n      jump(tag_52)\n        /* \"SimpleAccountV2.sol\":1885:2043  function execute(address dest, uint256 value, bytes calldata func) external {... */\n    tag_13:\n      callvalue\n      dup1\n      iszero\n      tag_65\n      jumpi\n      0x00\n      dup1\n      revert\n    tag_65:\n      pop\n      tag_19\n      tag_67\n      calldatasize\n      0x04\n      tag_68\n      jump\t// in\n    tag_67:\n      tag_69\n      jump\t// in\n        /* \"SimpleAccountV2.sol\":3612:3725  function getDeposit() public view returns (uint256) {... */\n    tag_14:\n      callvalue\n      dup1\n      iszero\n      tag_70\n      jumpi\n      0x00\n      dup1\n      revert\n    tag_70:\n      pop\n      tag_29\n      tag_72\n      jump\t// in\n        /* \"SimpleAccountV2.sol\":2107:2404  function executeBatch(address[] calldata dest, bytes[] calldata func) external {... */\n    tag_22:\n        /* \"SimpleAccountV2.sol\":2196:2227  _requireFromEntryPointOrOwner() */\n      tag_75\n        /* \"SimpleAccountV2.sol\":2196:2225  _requireFromEntryPointOrOwner */\n      tag_76\n        /* \"SimpleAccountV2.sol\":2196:2227  _requireFromEntryPointOrOwner() */\n      jump\t// in\n    tag_75:\n        /* \"SimpleAccountV2.sol\":2245:2271  dest.length == func.length */\n      dup3\n      dup2\n      eq\n        /* \"SimpleAccountV2.sol\":2237:2295  require(dest.length == func.length, \"wrong array lengths\") */\n      tag_77\n      jumpi\n      mload(0x40)\n      shl(0xe5, 0x461bcd)\n      dup2\n      mstore\n        /* \"#utility.yul\":5419:5421   */\n      0x20\n        /* \"SimpleAccountV2.sol\":2237:2295  require(dest.length == func.length, \"wrong array lengths\") */\n      0x04\n      dup3\n      add\n        /* \"#utility.yul\":5401:5422   */\n      mstore\n        /* \"#utility.yul\":5458:5460   */\n      0x13\n        /* \"#utility.yul\":5438:5456   */\n      0x24\n      dup3\n      add\n        /* \"#utility.yul\":5431:5461   */\n      mstore\n      shl(0x68, 0x77726f6e67206172726179206c656e67746873)\n        /* \"#utility.yul\":5477:5495   */\n      0x44\n      dup3\n      add\n        /* \"#utility.yul\":5470:5519   */\n      mstore\n        /* \"#utility.yul\":5536:5554   */\n      0x64\n      add\n        /* \"SimpleAccountV2.sol\":2237:2295  require(dest.length == func.length, \"wrong array lengths\") */\n    tag_78:\n      mload(0x40)\n      dup1\n      swap2\n      sub\n      swap1\n      revert\n    tag_77:\n        /* \"SimpleAccountV2.sol\":2310:2319  uint256 i */\n      0x00\n        /* \"SimpleAccountV2.sol\":2305:2398  for (uint256 i = 0; i < dest.length; i++) {... */\n    tag_80:\n        /* \"SimpleAccountV2.sol\":2325:2340  i < dest.length */\n      dup4\n      dup2\n      lt\n        /* \"SimpleAccountV2.sol\":2305:2398  for (uint256 i = 0; i < dest.length; i++) {... */\n      iszero\n      tag_81\n      jumpi\n        /* \"SimpleAccountV2.sol\":2361:2387  _call(dest[i], 0, func[i]) */\n      tag_83\n        /* \"SimpleAccountV2.sol\":2367:2371  dest */\n      dup6\n      dup6\n        /* \"SimpleAccountV2.sol\":2372:2373  i */\n      dup4\n        /* \"SimpleAccountV2.sol\":2367:2374  dest[i] */\n      dup2\n      dup2\n      lt\n      tag_85\n      jumpi\n      tag_85\n      tag_86\n      jump\t// in\n    tag_85:\n      swap1\n      pop\n      0x20\n      mul\n      add\n      0x20\n      dup2\n      add\n      swap1\n      tag_87\n      swap2\n      swap1\n      tag_26\n      jump\t// in\n    tag_87:\n        /* \"SimpleAccountV2.sol\":2376:2377  0 */\n      0x00\n        /* \"SimpleAccountV2.sol\":2379:2383  func */\n      dup6\n      dup6\n        /* \"SimpleAccountV2.sol\":2384:2385  i */\n      dup6\n        /* \"SimpleAccountV2.sol\":2379:2386  func[i] */\n      dup2\n      dup2\n      lt\n      tag_89\n      jumpi\n      tag_89\n      tag_86\n      jump\t// in\n    tag_89:\n      swap1\n      pop\n      0x20\n      mul\n      dup2\n      add\n      swap1\n      tag_90\n      swap2\n      swap1\n      tag_91\n      jump\t// in\n    tag_90:\n        /* \"SimpleAccountV2.sol\":2361:2387  _call(dest[i], 0, func[i]) */\n      dup1\n      dup1\n      0x1f\n      add\n      0x20\n      dup1\n      swap2\n      div\n      mul\n      0x20\n      add\n      mload(0x40)\n      swap1\n      dup2\n      add\n      0x40\n      mstore\n      dup1\n      swap4\n      swap3\n      swap2\n      swap1\n      dup2\n      dup2\n      mstore\n      0x20\n      add\n      dup4\n      dup4\n      dup1\n      dup3\n      dup5\n      calldatacopy\n      0x00\n      swap3\n      add\n      swap2\n      swap1\n      swap2\n      mstore\n      pop\n        /* \"SimpleAccountV2.sol\":2361:2366  _call */\n      tag_92\n      swap3\n      pop\n      pop\n      pop\n        /* \"SimpleAccountV2.sol\":2361:2387  _call(dest[i], 0, func[i]) */\n      jump\t// in\n    tag_83:\n        /* \"SimpleAccountV2.sol\":2342:2345  i++ */\n      dup1\n      tag_93\n      dup2\n      tag_94\n      jump\t// in\n    tag_93:\n      swap2\n      pop\n      pop\n        /* \"SimpleAccountV2.sol\":2305:2398  for (uint256 i = 0; i < dest.length; i++) {... */\n      jump(tag_80)\n    tag_81:\n      pop\n        /* \"SimpleAccountV2.sol\":2107:2404  function executeBatch(address[] calldata dest, bytes[] calldata func) external {... */\n      pop\n      pop\n      pop\n      pop\n      jump\t// out\n        /* \"@openzeppelin/contracts/proxy/utils/UUPSUpgradeable.sol\":3143:3338  function upgradeTo(address newImplementation) public virtual onlyProxy {... */\n    tag_27:\n      sub(shl(0xa0, 0x01), 0x01)\n        /* \"@openzeppelin/contracts/proxy/utils/UUPSUpgradeable.sol\":1654:1660  __self */\n      immutable(\"0x26253e4b9754d7b70fa53c504adf7cef3bf444a45077af864d39a1233fe15035\")\n        /* \"@openzeppelin/contracts/proxy/utils/UUPSUpgradeable.sol\":1637:1660  address(this) != __self */\n      and\n        /* \"@openzeppelin/contracts/proxy/utils/UUPSUpgradeable.sol\":1645:1649  this */\n      address\n        /* \"@openzeppelin/contracts/proxy/utils/UUPSUpgradeable.sol\":1637:1660  address(this) != __self */\n      sub\n        /* \"@openzeppelin/contracts/proxy/utils/UUPSUpgradeable.sol\":1629:1709  require(address(this) != __self, \"Function must be called through delegatecall\") */\n      tag_96\n      jumpi\n      mload(0x40)\n      shl(0xe5, 0x461bcd)\n      dup2\n      mstore\n      0x04\n      add\n      tag_78\n      swap1\n      tag_98\n      jump\t// in\n    tag_96:\n        /* \"@openzeppelin/contracts/proxy/utils/UUPSUpgradeable.sol\":1751:1757  __self */\n      immutable(\"0x26253e4b9754d7b70fa53c504adf7cef3bf444a45077af864d39a1233fe15035\")\n      sub(shl(0xa0, 0x01), 0x01)\n        /* \"@openzeppelin/contracts/proxy/utils/UUPSUpgradeable.sol\":1727:1757  _getImplementation() == __self */\n      and\n        /* \"@openzeppelin/contracts/proxy/utils/UUPSUpgradeable.sol\":1727:1747  _getImplementation() */\n      tag_99\n      0x00\n      dup1\n      mload\n      0x20\n      data_75b20eef8615de99c108b05f0dbda081c91897128caa336d75dffb97c4132b4d\n      dup4\n      codecopy\n      dup2\n      mload\n      swap2\n      mstore\n        /* \"@openzeppelin/contracts/proxy/ERC1967/ERC1967Upgrade.sol\":1254:1308  StorageSlot.getAddressSlot(_IMPLEMENTATION_SLOT).value */\n      sload\n      sub(shl(0xa0, 0x01), 0x01)\n      and\n      swap1\n        /* \"@openzeppelin/contracts/proxy/ERC1967/ERC1967Upgrade.sol\":1175:1315  function _getImplementation() internal view returns (address) {... */\n      jump\n        /* \"@openzeppelin/contracts/proxy/utils/UUPSUpgradeable.sol\":1727:1747  _getImplementation() */\n    tag_99:\n      sub(shl(0xa0, 0x01), 0x01)\n        /* \"@openzeppelin/contracts/proxy/utils/UUPSUpgradeable.sol\":1727:1757  _getImplementation() == __self */\n      and\n      eq\n        /* \"@openzeppelin/contracts/proxy/utils/UUPSUpgradeable.sol\":1719:1806  require(_getImplementation() == __self, \"Function must be called through active proxy\") */\n      tag_101\n      jumpi\n      mload(0x40)\n      shl(0xe5, 0x461bcd)\n      dup2\n      mstore\n      0x04\n      add\n      tag_78\n      swap1\n      tag_103\n      jump\t// in\n    tag_101:\n        /* \"@openzeppelin/contracts/proxy/utils/UUPSUpgradeable.sol\":3224:3260  _authorizeUpgrade(newImplementation) */\n      tag_105\n        /* \"@openzeppelin/contracts/proxy/utils/UUPSUpgradeable.sol\":3242:3259  newImplementation */\n      dup2\n        /* \"@openzeppelin/contracts/proxy/utils/UUPSUpgradeable.sol\":3224:3241  _authorizeUpgrade */\n      tag_106\n        /* \"@openzeppelin/contracts/proxy/utils/UUPSUpgradeable.sol\":3224:3260  _authorizeUpgrade(newImplementation) */\n      jump\t// in\n    tag_105:\n        /* \"@openzeppelin/contracts/proxy/utils/UUPSUpgradeable.sol\":3311:3323  new bytes(0) */\n      0x40\n      dup1\n      mload\n        /* \"@openzeppelin/contracts/proxy/utils/UUPSUpgradeable.sol\":3321:3322  0 */\n      0x00\n        /* \"@openzeppelin/contracts/proxy/utils/UUPSUpgradeable.sol\":3311:3323  new bytes(0) */\n      dup1\n      dup3\n      mstore\n      0x20\n      dup3\n      add\n      swap1\n      swap3\n      mstore\n        /* \"@openzeppelin/contracts/proxy/utils/UUPSUpgradeable.sol\":3270:3331  _upgradeToAndCallUUPS(newImplementation, new bytes(0), false) */\n      tag_107\n      swap2\n        /* \"@openzeppelin/contracts/proxy/utils/UUPSUpgradeable.sol\":3292:3309  newImplementation */\n      dup4\n      swap2\n        /* \"@openzeppelin/contracts/proxy/utils/UUPSUpgradeable.sol\":3311:3323  new bytes(0) */\n      swap1\n        /* \"@openzeppelin/contracts/proxy/utils/UUPSUpgradeable.sol\":3270:3291  _upgradeToAndCallUUPS */\n      tag_112\n        /* \"@openzeppelin/contracts/proxy/utils/UUPSUpgradeable.sol\":3270:3331  _upgradeToAndCallUUPS(newImplementation, new bytes(0), false) */\n      jump\t// in\n    tag_107:\n        /* \"@openzeppelin/contracts/proxy/utils/UUPSUpgradeable.sol\":3143:3338  function upgradeTo(address newImplementation) public virtual onlyProxy {... */\n      pop\n      jump\t// out\n        /* \"core/BaseAccount.sol\":1446:1859  function validateUserOp(UserOperation calldata userOp, bytes32 userOpHash, uint256 missingAccountFunds)... */\n    tag_32:\n        /* \"core/BaseAccount.sol\":1589:1611  uint256 validationData */\n      0x00\n        /* \"core/BaseAccount.sol\":1623:1647  _requireFromEntryPoint() */\n      tag_114\n        /* \"core/BaseAccount.sol\":1623:1645  _requireFromEntryPoint */\n      tag_115\n        /* \"core/BaseAccount.sol\":1623:1647  _requireFromEntryPoint() */\n      jump\t// in\n    tag_114:\n        /* \"core/BaseAccount.sol\":1674:1712  _validateSignature(userOp, userOpHash) */\n      tag_116\n        /* \"core/BaseAccount.sol\":1693:1699  userOp */\n      dup5\n        /* \"core/BaseAccount.sol\":1701:1711  userOpHash */\n      dup5\n        /* \"core/BaseAccount.sol\":1674:1692  _validateSignature */\n      tag_117\n        /* \"core/BaseAccount.sol\":1674:1712  _validateSignature(userOp, userOpHash) */\n      jump\t// in\n    tag_116:\n        /* \"core/BaseAccount.sol\":1657:1712  validationData = _validateSignature(userOp, userOpHash) */\n      swap1\n      pop\n        /* \"core/BaseAccount.sol\":1726:1741  userOp.initCode */\n      tag_118\n      0x40\n      dup6\n      add\n        /* \"core/BaseAccount.sol\":1726:1732  userOp */\n      dup6\n        /* \"core/BaseAccount.sol\":1726:1741  userOp.initCode */\n      tag_91\n      jump\t// in\n    tag_118:\n        /* \"core/BaseAccount.sol\":1726:1748  userOp.initCode.length */\n      swap1\n      pop\n        /* \"core/BaseAccount.sol\":1752:1753  0 */\n      0x00\n        /* \"core/BaseAccount.sol\":1726:1753  userOp.initCode.length == 0 */\n      sub\n        /* \"core/BaseAccount.sol\":1722:1811  if (userOp.initCode.length == 0) {... */\n      tag_120\n      jumpi\n        /* \"core/BaseAccount.sol\":1769:1800  _validateAndUpdateNonce(userOp) */\n      tag_120\n        /* \"core/BaseAccount.sol\":1793:1799  userOp */\n      dup5\n        /* \"core/BaseAccount.sol\":1769:1792  _validateAndUpdateNonce */\n      tag_121\n        /* \"core/BaseAccount.sol\":1769:1800  _validateAndUpdateNonce(userOp) */\n      jump\t// in\n    tag_120:\n        /* \"core/BaseAccount.sol\":1820:1852  _payPrefund(missingAccountFunds) */\n      tag_122\n        /* \"core/BaseAccount.sol\":1832:1851  missingAccountFunds */\n      dup3\n        /* \"core/BaseAccount.sol\":1820:1831  _payPrefund */\n      tag_123\n        /* \"core/BaseAccount.sol\":1820:1852  _payPrefund(missingAccountFunds) */\n      jump\t// in\n    tag_122:\n        /* \"core/BaseAccount.sol\":1446:1859  function validateUserOp(UserOperation calldata userOp, bytes32 userOpHash, uint256 missingAccountFunds)... */\n      swap4\n      swap3\n      pop\n      pop\n      pop\n      jump\t// out\n        /* \"SimpleAccountV2.sol\":3808:3918  function addDeposit() public payable {... */\n    tag_36:\n        /* \"SimpleAccountV2.sol\":1359:1370  _entryPoint */\n      immutable(\"0x4cf4825bec4f653a2ff4d013de59e602cd5829d8b88cc9cec06a1a9cd4f34587\")\n        /* \"SimpleAccountV2.sol\":3855:3911  entryPoint().depositTo{value : msg.value}(address(this)) */\n      mload(0x40)\n      shl(0xe0, 0xb760faf9)\n      dup2\n      mstore\n        /* \"SimpleAccountV2.sol\":3905:3909  this */\n      address\n        /* \"SimpleAccountV2.sol\":3855:3911  entryPoint().depositTo{value : msg.value}(address(this)) */\n      0x04\n      dup3\n      add\n        /* \"#utility.yul\":4128:4179   */\n      mstore\n      sub(shl(0xa0, 0x01), 0x01)\n        /* \"SimpleAccountV2.sol\":3855:3877  entryPoint().depositTo */\n      swap2\n      swap1\n      swap2\n      and\n      swap1\n      0xb760faf9\n      swap1\n        /* \"SimpleAccountV2.sol\":3886:3895  msg.value */\n      callvalue\n      swap1\n        /* \"#utility.yul\":4101:4119   */\n      0x24\n      add\n        /* \"SimpleAccountV2.sol\":3855:3911  entryPoint().depositTo{value : msg.value}(address(this)) */\n      0x00\n      mload(0x40)\n      dup1\n      dup4\n      sub\n      dup2\n      dup6\n      dup9\n      dup1\n      extcodesize\n      iszero\n      dup1\n      iszero\n      tag_127\n      jumpi\n      0x00\n      dup1\n      revert\n    tag_127:\n      pop\n      gas\n      call\n      iszero\n      dup1\n      iszero\n      tag_81\n      jumpi\n      returndatasize\n      0x00\n      dup1\n      returndatacopy\n      revert(0x00, returndatasize)\n        /* \"SimpleAccountV2.sol\":4070:4228  function withdrawDepositTo(address payable withdrawAddress, uint256 amount) public onlyOwner {... */\n    tag_41:\n        /* \"SimpleAccountV2.sol\":1069:1081  _onlyOwner() */\n      tag_131\n        /* \"SimpleAccountV2.sol\":1069:1079  _onlyOwner */\n      tag_132\n        /* \"SimpleAccountV2.sol\":1069:1081  _onlyOwner() */\n      jump\t// in\n    tag_131:\n        /* \"SimpleAccountV2.sol\":1359:1370  _entryPoint */\n      immutable(\"0x4cf4825bec4f653a2ff4d013de59e602cd5829d8b88cc9cec06a1a9cd4f34587\")\n        /* \"SimpleAccountV2.sol\":4173:4221  entryPoint().withdrawTo(withdrawAddress, amount) */\n      mload(0x40)\n      shl(0xe3, 0x040b850f)\n      dup2\n      mstore\n      sub(shl(0xa0, 0x01), 0x01)\n        /* \"#utility.yul\":7529:7561   */\n      dup5\n      dup2\n      and\n        /* \"SimpleAccountV2.sol\":4173:4221  entryPoint().withdrawTo(withdrawAddress, amount) */\n      0x04\n      dup4\n      add\n        /* \"#utility.yul\":7511:7562   */\n      mstore\n        /* \"#utility.yul\":7578:7596   */\n      0x24\n      dup3\n      add\n        /* \"#utility.yul\":7571:7605   */\n      dup5\n      swap1\n      mstore\n        /* \"SimpleAccountV2.sol\":4173:4196  entryPoint().withdrawTo */\n      swap2\n      swap1\n      swap2\n      and\n      swap1\n      0x205c2878\n      swap1\n        /* \"#utility.yul\":7484:7502   */\n      0x44\n      add\n        /* \"SimpleAccountV2.sol\":4173:4221  entryPoint().withdrawTo(withdrawAddress, amount) */\n      0x00\n      mload(0x40)\n      dup1\n      dup4\n      sub\n      dup2\n      0x00\n      dup8\n      dup1\n      extcodesize\n      iszero\n      dup1\n      iszero\n      tag_137\n      jumpi\n      0x00\n      dup1\n      revert\n    tag_137:\n      pop\n      gas\n      call\n      iszero\n      dup1\n      iszero\n      tag_139\n      jumpi\n      returndatasize\n      0x00\n      dup1\n      returndatacopy\n      revert(0x00, returndatasize)\n    tag_139:\n      pop\n      pop\n      pop\n      pop\n        /* \"SimpleAccountV2.sol\":4070:4228  function withdrawDepositTo(address payable withdrawAddress, uint256 amount) public onlyOwner {... */\n      pop\n      pop\n      jump\t// out\n        /* \"@openzeppelin/contracts/proxy/utils/UUPSUpgradeable.sol\":3657:3877  function upgradeToAndCall(address newImplementation, bytes memory data) public payable virtual onlyProxy {... */\n    tag_45:\n      sub(shl(0xa0, 0x01), 0x01)\n        /* \"@openzeppelin/contracts/proxy/utils/UUPSUpgradeable.sol\":1654:1660  __self */\n      immutable(\"0x26253e4b9754d7b70fa53c504adf7cef3bf444a45077af864d39a1233fe15035\")\n        /* \"@openzeppelin/contracts/proxy/utils/UUPSUpgradeable.sol\":1637:1660  address(this) != __self */\n      and\n        /* \"@openzeppelin/contracts/proxy/utils/UUPSUpgradeable.sol\":1645:1649  this */\n      address\n        /* \"@openzeppelin/contracts/proxy/utils/UUPSUpgradeable.sol\":1637:1660  address(this) != __self */\n      sub\n        /* \"@openzeppelin/contracts/proxy/utils/UUPSUpgradeable.sol\":1629:1709  require(address(this) != __self, \"Function must be called through delegatecall\") */\n      tag_141\n      jumpi\n      mload(0x40)\n      shl(0xe5, 0x461bcd)\n      dup2\n      mstore\n      0x04\n      add\n      tag_78\n      swap1\n      tag_98\n      jump\t// in\n    tag_141:\n        /* \"@openzeppelin/contracts/proxy/utils/UUPSUpgradeable.sol\":1751:1757  __self */\n      immutable(\"0x26253e4b9754d7b70fa53c504adf7cef3bf444a45077af864d39a1233fe15035\")\n      sub(shl(0xa0, 0x01), 0x01)\n        /* \"@openzeppelin/contracts/proxy/utils/UUPSUpgradeable.sol\":1727:1757  _getImplementation() == __self */\n      and\n        /* \"@openzeppelin/contracts/proxy/utils/UUPSUpgradeable.sol\":1727:1747  _getImplementation() */\n      tag_143\n      0x00\n      dup1\n      mload\n      0x20\n      data_75b20eef8615de99c108b05f0dbda081c91897128caa336d75dffb97c4132b4d\n      dup4\n      codecopy\n      dup2\n      mload\n      swap2\n      mstore\n        /* \"@openzeppelin/contracts/proxy/ERC1967/ERC1967Upgrade.sol\":1254:1308  StorageSlot.getAddressSlot(_IMPLEMENTATION_SLOT).value */\n      sload\n      sub(shl(0xa0, 0x01), 0x01)\n      and\n      swap1\n        /* \"@openzeppelin/contracts/proxy/ERC1967/ERC1967Upgrade.sol\":1175:1315  function _getImplementation() internal view returns (address) {... */\n      jump\n        /* \"@openzeppelin/contracts/proxy/utils/UUPSUpgradeable.sol\":1727:1747  _getImplementation() */\n    tag_143:\n      sub(shl(0xa0, 0x01), 0x01)\n        /* \"@openzeppelin/contracts/proxy/utils/UUPSUpgradeable.sol\":1727:1757  _getImplementation() == __self */\n      and\n      eq\n        /* \"@openzeppelin/contracts/proxy/utils/UUPSUpgradeable.sol\":1719:1806  require(_getImplementation() == __self, \"Function must be called through active proxy\") */\n      tag_144\n      jumpi\n      mload(0x40)\n      shl(0xe5, 0x461bcd)\n      dup2\n      mstore\n      0x04\n      add\n      tag_78\n      swap1\n      tag_103\n      jump\t// in\n    tag_144:\n        /* \"@openzeppelin/contracts/proxy/utils/UUPSUpgradeable.sol\":3772:3808  _authorizeUpgrade(newImplementation) */\n      tag_147\n        /* \"@openzeppelin/contracts/proxy/utils/UUPSUpgradeable.sol\":3790:3807  newImplementation */\n      dup3\n        /* \"@openzeppelin/contracts/proxy/utils/UUPSUpgradeable.sol\":3772:3789  _authorizeUpgrade */\n      tag_106\n        /* \"@openzeppelin/contracts/proxy/utils/UUPSUpgradeable.sol\":3772:3808  _authorizeUpgrade(newImplementation) */\n      jump\t// in\n    tag_147:\n        /* \"@openzeppelin/contracts/proxy/utils/UUPSUpgradeable.sol\":3818:3870  _upgradeToAndCallUUPS(newImplementation, data, true) */\n      tag_148\n        /* \"@openzeppelin/contracts/proxy/utils/UUPSUpgradeable.sol\":3840:3857  newImplementation */\n      dup3\n        /* \"@openzeppelin/contracts/proxy/utils/UUPSUpgradeable.sol\":3859:3863  data */\n      dup3\n        /* \"@openzeppelin/contracts/proxy/utils/UUPSUpgradeable.sol\":3865:3869  true */\n      0x01\n        /* \"@openzeppelin/contracts/proxy/utils/UUPSUpgradeable.sol\":3818:3839  _upgradeToAndCallUUPS */\n      tag_112\n        /* \"@openzeppelin/contracts/proxy/utils/UUPSUpgradeable.sol\":3818:3870  _upgradeToAndCallUUPS(newImplementation, data, true) */\n      jump\t// in\n    tag_148:\n        /* \"@openzeppelin/contracts/proxy/utils/UUPSUpgradeable.sol\":3657:3877  function upgradeToAndCall(address newImplementation, bytes memory data) public payable virtual onlyProxy {... */\n      pop\n      pop\n      jump\t// out\n        /* \"@openzeppelin/contracts/proxy/utils/UUPSUpgradeable.sol\":2762:2893  function proxiableUUID() external view virtual override notDelegated returns (bytes32) {... */\n    tag_48:\n        /* \"@openzeppelin/contracts/proxy/utils/UUPSUpgradeable.sol\":2840:2847  bytes32 */\n      0x00\n        /* \"@openzeppelin/contracts/proxy/utils/UUPSUpgradeable.sol\":2080:2084  this */\n      address\n      sub(shl(0xa0, 0x01), 0x01)\n        /* \"@openzeppelin/contracts/proxy/utils/UUPSUpgradeable.sol\":2089:2095  __self */\n      immutable(\"0x26253e4b9754d7b70fa53c504adf7cef3bf444a45077af864d39a1233fe15035\")\n        /* \"@openzeppelin/contracts/proxy/utils/UUPSUpgradeable.sol\":2072:2095  address(this) == __self */\n      and\n      eq\n        /* \"@openzeppelin/contracts/proxy/utils/UUPSUpgradeable.sol\":2064:2156  require(address(this) == __self, \"UUPSUpgradeable: must not be called through delegatecall\") */\n      tag_150\n      jumpi\n      mload(0x40)\n      shl(0xe5, 0x461bcd)\n      dup2\n      mstore\n        /* \"#utility.yul\":7818:7820   */\n      0x20\n        /* \"@openzeppelin/contracts/proxy/utils/UUPSUpgradeable.sol\":2064:2156  require(address(this) == __self, \"UUPSUpgradeable: must not be called through delegatecall\") */\n      0x04\n      dup3\n      add\n        /* \"#utility.yul\":7800:7821   */\n      mstore\n        /* \"#utility.yul\":7857:7859   */\n      0x38\n        /* \"#utility.yul\":7837:7855   */\n      0x24\n      dup3\n      add\n        /* \"#utility.yul\":7830:7860   */\n      mstore\n        /* \"#utility.yul\":7896:7930   */\n      0x555550535570677261646561626c653a206d757374206e6f742062652063616c\n        /* \"#utility.yul\":7876:7894   */\n      0x44\n      dup3\n      add\n        /* \"#utility.yul\":7869:7931   */\n      mstore\n        /* \"#utility.yul\":7967:7993   */\n      0x6c6564207468726f7567682064656c656761746563616c6c0000000000000000\n        /* \"#utility.yul\":7947:7965   */\n      0x64\n      dup3\n      add\n        /* \"#utility.yul\":7940:7994   */\n      mstore\n        /* \"#utility.yul\":8011:8030   */\n      0x84\n      add\n        /* \"@openzeppelin/contracts/proxy/utils/UUPSUpgradeable.sol\":2064:2156  require(address(this) == __self, \"UUPSUpgradeable: must not be called through delegatecall\") */\n      tag_78\n        /* \"#utility.yul\":7616:8036   */\n      jump\n        /* \"@openzeppelin/contracts/proxy/utils/UUPSUpgradeable.sol\":2064:2156  require(address(this) == __self, \"UUPSUpgradeable: must not be called through delegatecall\") */\n    tag_150:\n      pop\n      0x00\n      dup1\n      mload\n      0x20\n      data_75b20eef8615de99c108b05f0dbda081c91897128caa336d75dffb97c4132b4d\n      dup4\n      codecopy\n      dup2\n      mload\n      swap2\n      mstore\n        /* \"@openzeppelin/contracts/proxy/utils/UUPSUpgradeable.sol\":2762:2893  function proxiableUUID() external view virtual override notDelegated returns (bytes32) {... */\n      swap1\n      jump\t// out\n        /* \"SimpleAccountV2.sol\":1885:2043  function execute(address dest, uint256 value, bytes calldata func) external {... */\n    tag_69:\n        /* \"SimpleAccountV2.sol\":1971:2002  _requireFromEntryPointOrOwner() */\n      tag_157\n        /* \"SimpleAccountV2.sol\":1971:2000  _requireFromEntryPointOrOwner */\n      tag_76\n        /* \"SimpleAccountV2.sol\":1971:2002  _requireFromEntryPointOrOwner() */\n      jump\t// in\n    tag_157:\n        /* \"SimpleAccountV2.sol\":2012:2036  _call(dest, value, func) */\n      tag_158\n        /* \"SimpleAccountV2.sol\":2018:2022  dest */\n      dup5\n        /* \"SimpleAccountV2.sol\":2024:2029  value */\n      dup5\n        /* \"SimpleAccountV2.sol\":2031:2035  func */\n      dup5\n      dup5\n        /* \"SimpleAccountV2.sol\":2012:2036  _call(dest, value, func) */\n      dup1\n      dup1\n      0x1f\n      add\n      0x20\n      dup1\n      swap2\n      div\n      mul\n      0x20\n      add\n      mload(0x40)\n      swap1\n      dup2\n      add\n      0x40\n      mstore\n      dup1\n      swap4\n      swap3\n      swap2\n      swap1\n      dup2\n      dup2\n      mstore\n      0x20\n      add\n      dup4\n      dup4\n      dup1\n      dup3\n      dup5\n      calldatacopy\n      0x00\n      swap3\n      add\n      swap2\n      swap1\n      swap2\n      mstore\n      pop\n        /* \"SimpleAccountV2.sol\":2012:2017  _call */\n      tag_92\n      swap3\n      pop\n      pop\n      pop\n        /* \"SimpleAccountV2.sol\":2012:2036  _call(dest, value, func) */\n      jump\t// in\n    tag_158:\n        /* \"SimpleAccountV2.sol\":1885:2043  function execute(address dest, uint256 value, bytes calldata func) external {... */\n      pop\n      pop\n      pop\n      pop\n      jump\t// out\n        /* \"SimpleAccountV2.sol\":3612:3725  function getDeposit() public view returns (uint256) {... */\n    tag_72:\n        /* \"SimpleAccountV2.sol\":3655:3662  uint256 */\n      0x00\n        /* \"SimpleAccountV2.sol\":1359:1370  _entryPoint */\n      immutable(\"0x4cf4825bec4f653a2ff4d013de59e602cd5829d8b88cc9cec06a1a9cd4f34587\")\n        /* \"SimpleAccountV2.sol\":3681:3718  entryPoint().balanceOf(address(this)) */\n      mload(0x40)\n      shl(0xe0, 0x70a08231)\n      dup2\n      mstore\n        /* \"SimpleAccountV2.sol\":3712:3716  this */\n      address\n        /* \"SimpleAccountV2.sol\":3681:3718  entryPoint().balanceOf(address(this)) */\n      0x04\n      dup3\n      add\n        /* \"#utility.yul\":4128:4179   */\n      mstore\n      sub(shl(0xa0, 0x01), 0x01)\n        /* \"SimpleAccountV2.sol\":3681:3703  entryPoint().balanceOf */\n      swap2\n      swap1\n      swap2\n      and\n      swap1\n      0x70a08231\n      swap1\n        /* \"#utility.yul\":4101:4119   */\n      0x24\n      add\n        /* \"SimpleAccountV2.sol\":3681:3718  entryPoint().balanceOf(address(this)) */\n      0x20\n      mload(0x40)\n      dup1\n      dup4\n      sub\n      dup2\n      dup7\n      gas\n      staticcall\n      iszero\n      dup1\n      iszero\n      tag_163\n      jumpi\n      returndatasize\n      0x00\n      dup1\n      returndatacopy\n      revert(0x00, returndatasize)\n    tag_163:\n      pop\n      pop\n      pop\n      pop\n      mload(0x40)\n      returndatasize\n      not(0x1f)\n      0x1f\n      dup3\n      add\n      and\n      dup3\n      add\n      dup1\n      0x40\n      mstore\n      pop\n      dup2\n      add\n      swap1\n      tag_164\n      swap2\n      swap1\n      tag_165\n      jump\t// in\n    tag_164:\n        /* \"SimpleAccountV2.sol\":3674:3718  return entryPoint().balanceOf(address(this)) */\n      swap1\n      pop\n        /* \"SimpleAccountV2.sol\":3612:3725  function getDeposit() public view returns (uint256) {... */\n      swap1\n      jump\t// out\n        /* \"SimpleAccountV2.sol\":2477:2652  function _requireFromEntryPointOrOwner() internal view {... */\n    tag_76:\n        /* \"SimpleAccountV2.sol\":2550:2560  msg.sender */\n      caller\n      sub(shl(0xa0, 0x01), 0x01)\n        /* \"SimpleAccountV2.sol\":1359:1370  _entryPoint */\n      immutable(\"0x4cf4825bec4f653a2ff4d013de59e602cd5829d8b88cc9cec06a1a9cd4f34587\")\n        /* \"SimpleAccountV2.sol\":2550:2585  msg.sender == address(entryPoint()) */\n      and\n      eq\n      dup1\n        /* \"SimpleAccountV2.sol\":2550:2608  msg.sender == address(entryPoint()) || msg.sender == owner */\n      tag_168\n      jumpi\n      pop\n        /* \"SimpleAccountV2.sol\":2603:2608  owner */\n      sload(0x01)\n      shl(0x60, 0x01)\n      swap1\n      div\n      sub(shl(0xa0, 0x01), 0x01)\n      and\n        /* \"SimpleAccountV2.sol\":2589:2599  msg.sender */\n      caller\n        /* \"SimpleAccountV2.sol\":2589:2608  msg.sender == owner */\n      eq\n        /* \"SimpleAccountV2.sol\":2550:2608  msg.sender == address(entryPoint()) || msg.sender == owner */\n    tag_168:\n        /* \"SimpleAccountV2.sol\":2542:2645  require(msg.sender == address(entryPoint()) || msg.sender == owner, \"account: not Owner or EntryPoint\") */\n      tag_169\n      jumpi\n      mload(0x40)\n      shl(0xe5, 0x461bcd)\n      dup2\n      mstore\n        /* \"#utility.yul\":8432:8434   */\n      0x20\n        /* \"SimpleAccountV2.sol\":2542:2645  require(msg.sender == address(entryPoint()) || msg.sender == owner, \"account: not Owner or EntryPoint\") */\n      0x04\n      dup3\n      add\n        /* \"#utility.yul\":8414:8435   */\n      dup2\n      swap1\n      mstore\n        /* \"#utility.yul\":8451:8469   */\n      0x24\n      dup3\n      add\n        /* \"#utility.yul\":8444:8474   */\n      mstore\n        /* \"#utility.yul\":8510:8544   */\n      0x6163636f756e743a206e6f74204f776e6572206f7220456e747279506f696e74\n        /* \"#utility.yul\":8490:8508   */\n      0x44\n      dup3\n      add\n        /* \"#utility.yul\":8483:8545   */\n      mstore\n        /* \"#utility.yul\":8562:8580   */\n      0x64\n      add\n        /* \"SimpleAccountV2.sol\":2542:2645  require(msg.sender == address(entryPoint()) || msg.sender == owner, \"account: not Owner or EntryPoint\") */\n      tag_78\n        /* \"#utility.yul\":8230:8586   */\n      jump\n        /* \"SimpleAccountV2.sol\":2542:2645  require(msg.sender == address(entryPoint()) || msg.sender == owner, \"account: not Owner or EntryPoint\") */\n    tag_169:\n        /* \"SimpleAccountV2.sol\":2477:2652  function _requireFromEntryPointOrOwner() internal view {... */\n      jump\t// out\n        /* \"SimpleAccountV2.sol\":3248:3535  function _call(address target, uint256 value, bytes memory data) internal {... */\n    tag_92:\n        /* \"SimpleAccountV2.sol\":3333:3345  bool success */\n      0x00\n        /* \"SimpleAccountV2.sol\":3347:3366  bytes memory result */\n      dup1\n        /* \"SimpleAccountV2.sol\":3370:3376  target */\n      dup5\n      sub(shl(0xa0, 0x01), 0x01)\n        /* \"SimpleAccountV2.sol\":3370:3381  target.call */\n      and\n        /* \"SimpleAccountV2.sol\":3390:3395  value */\n      dup5\n        /* \"SimpleAccountV2.sol\":3397:3401  data */\n      dup5\n        /* \"SimpleAccountV2.sol\":3370:3402  target.call{value : value}(data) */\n      mload(0x40)\n      tag_173\n      swap2\n      swap1\n      tag_174\n      jump\t// in\n    tag_173:\n      0x00\n      mload(0x40)\n      dup1\n      dup4\n      sub\n      dup2\n      dup6\n      dup8\n      gas\n      call\n      swap3\n      pop\n      pop\n      pop\n      returndatasize\n      dup1\n      0x00\n      dup2\n      eq\n      tag_177\n      jumpi\n      mload(0x40)\n      swap2\n      pop\n      and(add(returndatasize, 0x3f), not(0x1f))\n      dup3\n      add\n      0x40\n      mstore\n      returndatasize\n      dup3\n      mstore\n      returndatasize\n      0x00\n      0x20\n      dup5\n      add\n      returndatacopy\n      jump(tag_176)\n    tag_177:\n      0x60\n      swap2\n      pop\n    tag_176:\n      pop\n        /* \"SimpleAccountV2.sol\":3332:3402  (bool success, bytes memory result) = target.call{value : value}(data) */\n      swap2\n      pop\n      swap2\n      pop\n        /* \"SimpleAccountV2.sol\":3417:3424  success */\n      dup2\n        /* \"SimpleAccountV2.sol\":3412:3529  if (!success) {... */\n      tag_81\n      jumpi\n        /* \"SimpleAccountV2.sol\":3497:3503  result */\n      dup1\n        /* \"SimpleAccountV2.sol\":3491:3504  mload(result) */\n      mload\n        /* \"SimpleAccountV2.sol\":3486:3488  32 */\n      0x20\n        /* \"SimpleAccountV2.sol\":3478:3484  result */\n      dup3\n        /* \"SimpleAccountV2.sol\":3474:3489  add(result, 32) */\n      add\n        /* \"SimpleAccountV2.sol\":3467:3505  revert(add(result, 32), mload(result)) */\n      revert\n        /* \"SimpleAccountV2.sol\":4234:4322  function _authorizeUpgrade(address) internal view override {... */\n    tag_106:\n        /* \"SimpleAccountV2.sol\":4303:4315  _onlyOwner() */\n      tag_107\n        /* \"SimpleAccountV2.sol\":4303:4313  _onlyOwner */\n      tag_132\n        /* \"SimpleAccountV2.sol\":4303:4315  _onlyOwner() */\n      jump\t// in\n        /* \"@openzeppelin/contracts/proxy/ERC1967/ERC1967Upgrade.sol\":2494:3416  function _upgradeToAndCallUUPS(address newImplementation, bytes memory data, bool forceCall) internal {... */\n    tag_112:\n        /* \"@openzeppelin/contracts/proxy/ERC1967/ERC1967Upgrade.sol\":689:755  0x4910fdfa16fed3260ed0e7147f7cc6da11a60208b5b9406d12a635614ffd9143 */\n      0x4910fdfa16fed3260ed0e7147f7cc6da11a60208b5b9406d12a635614ffd9143\n        /* \"@openzeppelin/contracts/proxy/ERC1967/ERC1967Upgrade.sol\":2910:2958  StorageSlot.getBooleanSlot(_ROLLBACK_SLOT).value */\n      sload\n      0xff\n      and\n        /* \"@openzeppelin/contracts/proxy/ERC1967/ERC1967Upgrade.sol\":2906:3410  if (StorageSlot.getBooleanSlot(_ROLLBACK_SLOT).value) {... */\n      iszero\n      tag_187\n      jumpi\n        /* \"@openzeppelin/contracts/proxy/ERC1967/ERC1967Upgrade.sol\":2974:3011  _setImplementation(newImplementation) */\n      tag_188\n        /* \"@openzeppelin/contracts/proxy/ERC1967/ERC1967Upgrade.sol\":2993:3010  newImplementation */\n      dup4\n        /* \"@openzeppelin/contracts/proxy/ERC1967/ERC1967Upgrade.sol\":2974:2992  _setImplementation */\n      tag_189\n        /* \"@openzeppelin/contracts/proxy/ERC1967/ERC1967Upgrade.sol\":2974:3011  _setImplementation(newImplementation) */\n      jump\t// in\n    tag_188:\n        /* \"@openzeppelin/contracts/proxy/ERC1967/ERC1967Upgrade.sol\":2494:3416  function _upgradeToAndCallUUPS(address newImplementation, bytes memory data, bool forceCall) internal {... */\n      pop\n      pop\n      pop\n      jump\t// out\n        /* \"@openzeppelin/contracts/proxy/ERC1967/ERC1967Upgrade.sol\":2906:3410  if (StorageSlot.getBooleanSlot(_ROLLBACK_SLOT).value) {... */\n    tag_187:\n        /* \"@openzeppelin/contracts/proxy/ERC1967/ERC1967Upgrade.sol\":3064:3081  newImplementation */\n      dup3\n      sub(shl(0xa0, 0x01), 0x01)\n        /* \"@openzeppelin/contracts/proxy/ERC1967/ERC1967Upgrade.sol\":3046:3096  IERC1822Proxiable(newImplementation).proxiableUUID */\n      and\n      0x52d1902d\n        /* \"@openzeppelin/contracts/proxy/ERC1967/ERC1967Upgrade.sol\":3046:3098  IERC1822Proxiable(newImplementation).proxiableUUID() */\n      mload(0x40)\n      dup2\n      0xffffffff\n      and\n      0xe0\n      shl\n      dup2\n      mstore\n      0x04\n      add\n      0x20\n      mload(0x40)\n      dup1\n      dup4\n      sub\n      dup2\n      dup7\n      gas\n      staticcall\n      swap3\n      pop\n      pop\n      pop\n      dup1\n      iszero\n      tag_191\n      jumpi\n      pop\n      0x40\n      dup1\n      mload\n      0x1f\n      returndatasize\n      swap1\n      dup2\n      add\n      not(0x1f)\n      and\n      dup3\n      add\n      swap1\n      swap3\n      mstore\n      tag_192\n      swap2\n      dup2\n      add\n      swap1\n      tag_165\n      jump\t// in\n    tag_192:\n      0x01\n    tag_191:\n        /* \"@openzeppelin/contracts/proxy/ERC1967/ERC1967Upgrade.sol\":3042:3333  try IERC1822Proxiable(newImplementation).proxiableUUID() returns (bytes32 slot) {... */\n      tag_194\n      jumpi\n        /* \"@openzeppelin/contracts/proxy/ERC1967/ERC1967Upgrade.sol\":3262:3318  revert(\"ERC1967Upgrade: new implementation is not UUPS\") */\n      mload(0x40)\n      shl(0xe5, 0x461bcd)\n      dup2\n      mstore\n        /* \"#utility.yul\":9529:9531   */\n      0x20\n        /* \"@openzeppelin/contracts/proxy/ERC1967/ERC1967Upgrade.sol\":3262:3318  revert(\"ERC1967Upgrade: new implementation is not UUPS\") */\n      0x04\n      dup3\n      add\n        /* \"#utility.yul\":9511:9532   */\n      mstore\n        /* \"#utility.yul\":9568:9570   */\n      0x2e\n        /* \"#utility.yul\":9548:9566   */\n      0x24\n      dup3\n      add\n        /* \"#utility.yul\":9541:9571   */\n      mstore\n        /* \"#utility.yul\":9607:9641   */\n      0x45524331393637557067726164653a206e657720696d706c656d656e74617469\n        /* \"#utility.yul\":9587:9605   */\n      0x44\n      dup3\n      add\n        /* \"#utility.yul\":9580:9642   */\n      mstore\n      shl(0x90, 0x6f6e206973206e6f742055555053)\n        /* \"#utility.yul\":9658:9676   */\n      0x64\n      dup3\n      add\n        /* \"#utility.yul\":9651:9695   */\n      mstore\n        /* \"#utility.yul\":9712:9731   */\n      0x84\n      add\n        /* \"@openzeppelin/contracts/proxy/ERC1967/ERC1967Upgrade.sol\":3262:3318  revert(\"ERC1967Upgrade: new implementation is not UUPS\") */\n      tag_78\n        /* \"#utility.yul\":9327:9737   */\n      jump\n        /* \"@openzeppelin/contracts/proxy/ERC1967/ERC1967Upgrade.sol\":3042:3333  try IERC1822Proxiable(newImplementation).proxiableUUID() returns (bytes32 slot) {... */\n    tag_194:\n      0x00\n      dup1\n      mload\n      0x20\n      data_75b20eef8615de99c108b05f0dbda081c91897128caa336d75dffb97c4132b4d\n      dup4\n      codecopy\n      dup2\n      mload\n      swap2\n      mstore\n        /* \"@openzeppelin/contracts/proxy/ERC1967/ERC1967Upgrade.sol\":3148:3176  slot == _IMPLEMENTATION_SLOT */\n      dup2\n      eq\n        /* \"@openzeppelin/contracts/proxy/ERC1967/ERC1967Upgrade.sol\":3140:3222  require(slot == _IMPLEMENTATION_SLOT, \"ERC1967Upgrade: unsupported proxiableUUID\") */\n      tag_201\n      jumpi\n      mload(0x40)\n      shl(0xe5, 0x461bcd)\n      dup2\n      mstore\n        /* \"#utility.yul\":9944:9946   */\n      0x20\n        /* \"@openzeppelin/contracts/proxy/ERC1967/ERC1967Upgrade.sol\":3140:3222  require(slot == _IMPLEMENTATION_SLOT, \"ERC1967Upgrade: unsupported proxiableUUID\") */\n      0x04\n      dup3\n      add\n        /* \"#utility.yul\":9926:9947   */\n      mstore\n        /* \"#utility.yul\":9983:9985   */\n      0x29\n        /* \"#utility.yul\":9963:9981   */\n      0x24\n      dup3\n      add\n        /* \"#utility.yul\":9956:9986   */\n      mstore\n        /* \"#utility.yul\":10022:10056   */\n      0x45524331393637557067726164653a20756e737570706f727465642070726f78\n        /* \"#utility.yul\":10002:10020   */\n      0x44\n      dup3\n      add\n        /* \"#utility.yul\":9995:10057   */\n      mstore\n      shl(0xba, 0x1a58589b1955555251)\n        /* \"#utility.yul\":10073:10091   */\n      0x64\n      dup3\n      add\n        /* \"#utility.yul\":10066:10105   */\n      mstore\n        /* \"#utility.yul\":10122:10141   */\n      0x84\n      add\n        /* \"@openzeppelin/contracts/proxy/ERC1967/ERC1967Upgrade.sol\":3140:3222  require(slot == _IMPLEMENTATION_SLOT, \"ERC1967Upgrade: unsupported proxiableUUID\") */\n      tag_78\n        /* \"#utility.yul\":9742:10147   */\n      jump\n        /* \"@openzeppelin/contracts/proxy/ERC1967/ERC1967Upgrade.sol\":3140:3222  require(slot == _IMPLEMENTATION_SLOT, \"ERC1967Upgrade: unsupported proxiableUUID\") */\n    tag_201:\n        /* \"@openzeppelin/contracts/proxy/ERC1967/ERC1967Upgrade.sol\":3099:3237  returns (bytes32 slot) {... */\n      pop\n        /* \"@openzeppelin/contracts/proxy/ERC1967/ERC1967Upgrade.sol\":3346:3399  _upgradeToAndCall(newImplementation, data, forceCall) */\n      tag_188\n        /* \"@openzeppelin/contracts/proxy/ERC1967/ERC1967Upgrade.sol\":3364:3381  newImplementation */\n      dup4\n        /* \"@openzeppelin/contracts/proxy/ERC1967/ERC1967Upgrade.sol\":3383:3387  data */\n      dup4\n        /* \"@openzeppelin/contracts/proxy/ERC1967/ERC1967Upgrade.sol\":3389:3398  forceCall */\n      dup4\n        /* \"@openzeppelin/contracts/proxy/ERC1967/ERC1967Upgrade.sol\":3346:3363  _upgradeToAndCall */\n      tag_205\n        /* \"@openzeppelin/contracts/proxy/ERC1967/ERC1967Upgrade.sol\":3346:3399  _upgradeToAndCall(newImplementation, data, forceCall) */\n      jump\t// in\n        /* \"core/BaseAccount.sol\":1940:2089  function _requireFromEntryPoint() internal virtual view {... */\n    tag_115:\n        /* \"core/BaseAccount.sol\":2014:2024  msg.sender */\n      caller\n      sub(shl(0xa0, 0x01), 0x01)\n        /* \"SimpleAccountV2.sol\":1359:1370  _entryPoint */\n      immutable(\"0x4cf4825bec4f653a2ff4d013de59e602cd5829d8b88cc9cec06a1a9cd4f34587\")\n        /* \"core/BaseAccount.sol\":2014:2049  msg.sender == address(entryPoint()) */\n      and\n      eq\n        /* \"core/BaseAccount.sol\":2006:2082  require(msg.sender == address(entryPoint()), \"account: not from EntryPoint\") */\n      tag_169\n      jumpi\n      mload(0x40)\n      shl(0xe5, 0x461bcd)\n      dup2\n      mstore\n        /* \"#utility.yul\":10354:10356   */\n      0x20\n        /* \"core/BaseAccount.sol\":2006:2082  require(msg.sender == address(entryPoint()), \"account: not from EntryPoint\") */\n      0x04\n      dup3\n      add\n        /* \"#utility.yul\":10336:10357   */\n      mstore\n        /* \"#utility.yul\":10393:10395   */\n      0x1c\n        /* \"#utility.yul\":10373:10391   */\n      0x24\n      dup3\n      add\n        /* \"#utility.yul\":10366:10396   */\n      mstore\n        /* \"#utility.yul\":10432:10462   */\n      0x6163636f756e743a206e6f742066726f6d20456e747279506f696e7400000000\n        /* \"#utility.yul\":10412:10430   */\n      0x44\n      dup3\n      add\n        /* \"#utility.yul\":10405:10463   */\n      mstore\n        /* \"#utility.yul\":10480:10498   */\n      0x64\n      add\n        /* \"core/BaseAccount.sol\":2006:2082  require(msg.sender == address(entryPoint()), \"account: not from EntryPoint\") */\n      tag_78\n        /* \"#utility.yul\":10152:10504   */\n      jump\n        /* \"SimpleAccountV2.sol\":2920:3242  function _validateSignature(UserOperation calldata userOp, bytes32 userOpHash)... */\n    tag_117:\n        /* \"@openzeppelin/contracts/utils/cryptography/ECDSA.sol\":7389:7423  \"\\x19Ethereum Signed Message:\\n32\" */\n      0x19457468657265756d205369676e6564204d6573736167653a0a333200000000\n        /* \"SimpleAccountV2.sol\":3038:3060  uint256 validationData */\n      0x00\n        /* \"@openzeppelin/contracts/utils/cryptography/ECDSA.sol\":7376:7424  mstore(0x00, \"\\x19Ethereum Signed Message:\\n32\") */\n      swap1\n      dup2\n      mstore\n        /* \"@openzeppelin/contracts/utils/cryptography/ECDSA.sol\":7444:7448  0x1c */\n      0x1c\n        /* \"@openzeppelin/contracts/utils/cryptography/ECDSA.sol\":7437:7455  mstore(0x1c, hash) */\n      dup3\n      swap1\n      mstore\n        /* \"@openzeppelin/contracts/utils/cryptography/ECDSA.sol\":7495:7499  0x3c */\n      0x3c\n        /* \"@openzeppelin/contracts/utils/cryptography/ECDSA.sol\":7479:7500  keccak256(0x00, 0x3c) */\n      dup2\n      keccak256\n        /* \"SimpleAccountV2.sol\":3145:3175  hash.recover(userOp.signature) */\n      tag_214\n        /* \"SimpleAccountV2.sol\":3158:3174  userOp.signature */\n      tag_215\n      0x0140\n      dup7\n      add\n        /* \"SimpleAccountV2.sol\":3158:3164  userOp */\n      dup7\n        /* \"SimpleAccountV2.sol\":3158:3174  userOp.signature */\n      tag_91\n      jump\t// in\n    tag_215:\n        /* \"SimpleAccountV2.sol\":3145:3175  hash.recover(userOp.signature) */\n      dup1\n      dup1\n      0x1f\n      add\n      0x20\n      dup1\n      swap2\n      div\n      mul\n      0x20\n      add\n      mload(0x40)\n      swap1\n      dup2\n      add\n      0x40\n      mstore\n      dup1\n      swap4\n      swap3\n      swap2\n      swap1\n      dup2\n      dup2\n      mstore\n      0x20\n      add\n      dup4\n      dup4\n      dup1\n      dup3\n      dup5\n      calldatacopy\n      0x00\n      swap3\n      add\n      swap2\n      swap1\n      swap2\n      mstore\n      pop\n        /* \"SimpleAccountV2.sol\":3145:3149  hash */\n      dup6\n      swap4\n        /* \"SimpleAccountV2.sol\":3145:3175  hash.recover(userOp.signature) */\n      swap3\n      pop\n      pop\n        /* \"SimpleAccountV2.sol\":3145:3157  hash.recover */\n      tag_216\n        /* \"SimpleAccountV2.sol\":3145:3175  hash.recover(userOp.signature) */\n      swap1\n      pop\n      jump\t// in\n    tag_214:\n        /* \"SimpleAccountV2.sol\":3136:3141  owner */\n      sload(0x01)\n      shl(0x60, 0x01)\n      swap1\n      div\n      sub(shl(0xa0, 0x01), 0x01)\n      swap1\n      dup2\n      and\n        /* \"SimpleAccountV2.sol\":3136:3175  owner != hash.recover(userOp.signature) */\n      swap2\n      and\n      eq\n        /* \"SimpleAccountV2.sol\":3132:3217  if (owner != hash.recover(userOp.signature))... */\n      tag_217\n      jumpi\n        /* \"core/BaseAccount.sol\":785:786  1 */\n      0x01\n        /* \"SimpleAccountV2.sol\":3189:3217  return SIG_VALIDATION_FAILED */\n      swap2\n      pop\n      pop\n      jump(tag_211)\n        /* \"SimpleAccountV2.sol\":3132:3217  if (owner != hash.recover(userOp.signature))... */\n    tag_217:\n        /* \"SimpleAccountV2.sol\":3234:3235  0 */\n      0x00\n        /* \"SimpleAccountV2.sol\":3227:3235  return 0 */\n      swap2\n      pop\n      pop\n        /* \"SimpleAccountV2.sol\":2920:3242  function _validateSignature(UserOperation calldata userOp, bytes32 userOpHash)... */\n    tag_211:\n      swap3\n      swap2\n      pop\n      pop\n      jump\t// out\n        /* \"SimpleAccountV2.sol\":2707:2865  function _validateAndUpdateNonce(UserOperation calldata userOp) internal override {... */\n    tag_121:\n        /* \"SimpleAccountV2.sol\":2807:2813  _nonce */\n      0x01\n        /* \"SimpleAccountV2.sol\":2807:2815  _nonce++ */\n      dup1\n      sload\n        /* \"SimpleAccountV2.sol\":2819:2831  userOp.nonce */\n      0x20\n      dup4\n      add\n      calldataload\n      swap2\n      sub(shl(0x60, 0x01), 0x01)\n        /* \"SimpleAccountV2.sol\":2807:2815  _nonce++ */\n      swap1\n      swap2\n      and\n      swap1\n        /* \"SimpleAccountV2.sol\":2807:2813  _nonce */\n      0x00\n        /* \"SimpleAccountV2.sol\":2807:2815  _nonce++ */\n      tag_219\n      dup4\n      tag_220\n      jump\t// in\n    tag_219:\n      swap2\n      swap1\n      0x0100\n      exp\n      dup2\n      sload\n      dup2\n      sub(shl(0x60, 0x01), 0x01)\n      mul\n      not\n      and\n      swap1\n      dup4\n      sub(shl(0x60, 0x01), 0x01)\n      and\n      mul\n      or\n      swap1\n      sstore\n      pop\n      sub(shl(0x60, 0x01), 0x01)\n        /* \"SimpleAccountV2.sol\":2807:2831  _nonce++ == userOp.nonce */\n      and\n      eq\n        /* \"SimpleAccountV2.sol\":2799:2858  require(_nonce++ == userOp.nonce, \"account: invalid nonce\") */\n      tag_107\n      jumpi\n      mload(0x40)\n      shl(0xe5, 0x461bcd)\n      dup2\n      mstore\n        /* \"#utility.yul\":10933:10935   */\n      0x20\n        /* \"SimpleAccountV2.sol\":2799:2858  require(_nonce++ == userOp.nonce, \"account: invalid nonce\") */\n      0x04\n      dup3\n      add\n        /* \"#utility.yul\":10915:10936   */\n      mstore\n        /* \"#utility.yul\":10972:10974   */\n      0x16\n        /* \"#utility.yul\":10952:10970   */\n      0x24\n      dup3\n      add\n        /* \"#utility.yul\":10945:10975   */\n      mstore\n      shl(0x50, 0x6163636f756e743a20696e76616c6964206e6f6e6365)\n        /* \"#utility.yul\":10991:11009   */\n      0x44\n      dup3\n      add\n        /* \"#utility.yul\":10984:11036   */\n      mstore\n        /* \"#utility.yul\":11053:11071   */\n      0x64\n      add\n        /* \"SimpleAccountV2.sol\":2799:2858  require(_nonce++ == userOp.nonce, \"account: invalid nonce\") */\n      tag_78\n        /* \"#utility.yul\":10731:11077   */\n      jump\n        /* \"core/BaseAccount.sol\":4047:4384  function _payPrefund(uint256 missingAccountFunds) internal virtual {... */\n    tag_123:\n        /* \"core/BaseAccount.sol\":4128:4152  missingAccountFunds != 0 */\n      dup1\n      iszero\n        /* \"core/BaseAccount.sol\":4124:4378  if (missingAccountFunds != 0) {... */\n      tag_107\n      jumpi\n        /* \"core/BaseAccount.sol\":4186:4268  payable(msg.sender).call{value : missingAccountFunds, gas : type(uint256).max}(\"\") */\n      mload(0x40)\n        /* \"core/BaseAccount.sol\":4169:4181  bool success */\n      0x00\n      swap1\n        /* \"core/BaseAccount.sol\":4194:4204  msg.sender */\n      caller\n      swap1\n      not(0x00)\n        /* \"core/BaseAccount.sol\":4246:4263  type(uint256).max */\n      swap1\n        /* \"core/BaseAccount.sol\":4219:4238  missingAccountFunds */\n      dup5\n      swap1\n        /* \"core/BaseAccount.sol\":4169:4181  bool success */\n      dup5\n        /* \"core/BaseAccount.sol\":4186:4268  payable(msg.sender).call{value : missingAccountFunds, gas : type(uint256).max}(\"\") */\n      dup2\n        /* \"core/BaseAccount.sol\":4169:4181  bool success */\n      dup2\n        /* \"core/BaseAccount.sol\":4186:4268  payable(msg.sender).call{value : missingAccountFunds, gas : type(uint256).max}(\"\") */\n      dup2\n        /* \"core/BaseAccount.sol\":4219:4238  missingAccountFunds */\n      dup6\n        /* \"core/BaseAccount.sol\":4194:4204  msg.sender */\n      dup9\n        /* \"core/BaseAccount.sol\":4246:4263  type(uint256).max */\n      dup9\n        /* \"core/BaseAccount.sol\":4186:4268  payable(msg.sender).call{value : missingAccountFunds, gas : type(uint256).max}(\"\") */\n      call\n      swap4\n      pop\n      pop\n      pop\n      pop\n      returndatasize\n      dup1\n      0x00\n      dup2\n      eq\n      tag_81\n      jumpi\n      mload(0x40)\n      swap2\n      pop\n      and(add(returndatasize, 0x3f), not(0x1f))\n      dup3\n      add\n      0x40\n      mstore\n      returndatasize\n      dup3\n      mstore\n      returndatasize\n      0x00\n      0x20\n      dup5\n      add\n      returndatacopy\n      jump(tag_81)\n        /* \"SimpleAccountV2.sol\":1554:1787  function _onlyOwner() internal view {... */\n    tag_132:\n        /* \"SimpleAccountV2.sol\":1729:1734  owner */\n      sload(0x01)\n      shl(0x60, 0x01)\n      swap1\n      div\n      sub(shl(0xa0, 0x01), 0x01)\n      and\n        /* \"SimpleAccountV2.sol\":1715:1725  msg.sender */\n      caller\n        /* \"SimpleAccountV2.sol\":1715:1734  msg.sender == owner */\n      eq\n      dup1\n        /* \"SimpleAccountV2.sol\":1715:1765  msg.sender == owner || msg.sender == address(this) */\n      tag_232\n      jumpi\n      pop\n        /* \"SimpleAccountV2.sol\":1738:1748  msg.sender */\n      caller\n        /* \"SimpleAccountV2.sol\":1760:1764  this */\n      address\n        /* \"SimpleAccountV2.sol\":1738:1765  msg.sender == address(this) */\n      eq\n        /* \"SimpleAccountV2.sol\":1715:1765  msg.sender == owner || msg.sender == address(this) */\n    tag_232:\n        /* \"SimpleAccountV2.sol\":1707:1780  require(msg.sender == owner || msg.sender == address(this), \"only owner\") */\n      tag_169\n      jumpi\n      mload(0x40)\n      shl(0xe5, 0x461bcd)\n      dup2\n      mstore\n        /* \"#utility.yul\":11494:11496   */\n      0x20\n        /* \"SimpleAccountV2.sol\":1707:1780  require(msg.sender == owner || msg.sender == address(this), \"only owner\") */\n      0x04\n      dup3\n      add\n        /* \"#utility.yul\":11476:11497   */\n      mstore\n        /* \"#utility.yul\":11533:11535   */\n      0x0a\n        /* \"#utility.yul\":11513:11531   */\n      0x24\n      dup3\n      add\n        /* \"#utility.yul\":11506:11536   */\n      mstore\n      shl(0xb1, 0x37b7363c9037bbb732b9)\n        /* \"#utility.yul\":11552:11570   */\n      0x44\n      dup3\n      add\n        /* \"#utility.yul\":11545:11585   */\n      mstore\n        /* \"#utility.yul\":11602:11620   */\n      0x64\n      add\n        /* \"SimpleAccountV2.sol\":1707:1780  require(msg.sender == owner || msg.sender == address(this), \"only owner\") */\n      tag_78\n        /* \"#utility.yul\":11292:11626   */\n      jump\n        /* \"@openzeppelin/contracts/proxy/ERC1967/ERC1967Upgrade.sol\":1406:1665  function _setImplementation(address newImplementation) private {... */\n    tag_189:\n      sub(shl(0xa0, 0x01), 0x01)\n        /* \"@openzeppelin/contracts/utils/Address.sol\":1702:1721  account.code.length */\n      dup2\n      and\n      extcodesize\n        /* \"@openzeppelin/contracts/proxy/ERC1967/ERC1967Upgrade.sol\":1479:1574  require(Address.isContract(newImplementation), \"ERC1967: new implementation is not a contract\") */\n      tag_241\n      jumpi\n      mload(0x40)\n      shl(0xe5, 0x461bcd)\n      dup2\n      mstore\n        /* \"#utility.yul\":11833:11835   */\n      0x20\n        /* \"@openzeppelin/contracts/proxy/ERC1967/ERC1967Upgrade.sol\":1479:1574  require(Address.isContract(newImplementation), \"ERC1967: new implementation is not a contract\") */\n      0x04\n      dup3\n      add\n        /* \"#utility.yul\":11815:11836   */\n      mstore\n        /* \"#utility.yul\":11872:11874   */\n      0x2d\n        /* \"#utility.yul\":11852:11870   */\n      0x24\n      dup3\n      add\n        /* \"#utility.yul\":11845:11875   */\n      mstore\n        /* \"#utility.yul\":11911:11945   */\n      0x455243313936373a206e657720696d706c656d656e746174696f6e206973206e\n        /* \"#utility.yul\":11891:11909   */\n      0x44\n      dup3\n      add\n        /* \"#utility.yul\":11884:11946   */\n      mstore\n      shl(0x9a, 0x1bdd08184818dbdb9d1c9858dd)\n        /* \"#utility.yul\":11962:11980   */\n      0x64\n      dup3\n      add\n        /* \"#utility.yul\":11955:11998   */\n      mstore\n        /* \"#utility.yul\":12015:12034   */\n      0x84\n      add\n        /* \"@openzeppelin/contracts/proxy/ERC1967/ERC1967Upgrade.sol\":1479:1574  require(Address.isContract(newImplementation), \"ERC1967: new implementation is not a contract\") */\n      tag_78\n        /* \"#utility.yul\":11631:12040   */\n      jump\n        /* \"@openzeppelin/contracts/proxy/ERC1967/ERC1967Upgrade.sol\":1479:1574  require(Address.isContract(newImplementation), \"ERC1967: new implementation is not a contract\") */\n    tag_241:\n      0x00\n      dup1\n      mload\n      0x20\n      data_75b20eef8615de99c108b05f0dbda081c91897128caa336d75dffb97c4132b4d\n      dup4\n      codecopy\n      dup2\n      mload\n      swap2\n      mstore\n        /* \"@openzeppelin/contracts/proxy/ERC1967/ERC1967Upgrade.sol\":1584:1658  StorageSlot.getAddressSlot(_IMPLEMENTATION_SLOT).value = newImplementation */\n      dup1\n      sload\n      not(sub(shl(0xa0, 0x01), 0x01))\n      and\n      sub(shl(0xa0, 0x01), 0x01)\n      swap3\n      swap1\n      swap3\n      and\n      swap2\n      swap1\n      swap2\n      or\n      swap1\n      sstore\n        /* \"@openzeppelin/contracts/proxy/ERC1967/ERC1967Upgrade.sol\":1406:1665  function _setImplementation(address newImplementation) private {... */\n      jump\t// out\n        /* \"@openzeppelin/contracts/proxy/ERC1967/ERC1967Upgrade.sol\":2057:2322  function _upgradeToAndCall(address newImplementation, bytes memory data, bool forceCall) internal {... */\n    tag_205:\n        /* \"@openzeppelin/contracts/proxy/ERC1967/ERC1967Upgrade.sol\":2165:2194  _upgradeTo(newImplementation) */\n      tag_246\n        /* \"@openzeppelin/contracts/proxy/ERC1967/ERC1967Upgrade.sol\":2176:2193  newImplementation */\n      dup4\n        /* \"@openzeppelin/contracts/proxy/ERC1967/ERC1967Upgrade.sol\":2165:2175  _upgradeTo */\n      tag_247\n        /* \"@openzeppelin/contracts/proxy/ERC1967/ERC1967Upgrade.sol\":2165:2194  _upgradeTo(newImplementation) */\n      jump\t// in\n    tag_246:\n        /* \"@openzeppelin/contracts/proxy/ERC1967/ERC1967Upgrade.sol\":2222:2223  0 */\n      0x00\n        /* \"@openzeppelin/contracts/proxy/ERC1967/ERC1967Upgrade.sol\":2208:2212  data */\n      dup3\n        /* \"@openzeppelin/contracts/proxy/ERC1967/ERC1967Upgrade.sol\":2208:2219  data.length */\n      mload\n        /* \"@openzeppelin/contracts/proxy/ERC1967/ERC1967Upgrade.sol\":2208:2223  data.length > 0 */\n      gt\n        /* \"@openzeppelin/contracts/proxy/ERC1967/ERC1967Upgrade.sol\":2208:2236  data.length > 0 || forceCall */\n      dup1\n      tag_248\n      jumpi\n      pop\n        /* \"@openzeppelin/contracts/proxy/ERC1967/ERC1967Upgrade.sol\":2227:2236  forceCall */\n      dup1\n        /* \"@openzeppelin/contracts/proxy/ERC1967/ERC1967Upgrade.sol\":2208:2236  data.length > 0 || forceCall */\n    tag_248:\n        /* \"@openzeppelin/contracts/proxy/ERC1967/ERC1967Upgrade.sol\":2204:2316  if (data.length > 0 || forceCall) {... */\n      iszero\n      tag_188\n      jumpi\n        /* \"@openzeppelin/contracts/proxy/ERC1967/ERC1967Upgrade.sol\":2252:2305  Address.functionDelegateCall(newImplementation, data) */\n      tag_158\n        /* \"@openzeppelin/contracts/proxy/ERC1967/ERC1967Upgrade.sol\":2281:2298  newImplementation */\n      dup4\n        /* \"@openzeppelin/contracts/proxy/ERC1967/ERC1967Upgrade.sol\":2300:2304  data */\n      dup4\n        /* \"@openzeppelin/contracts/proxy/ERC1967/ERC1967Upgrade.sol\":2252:2280  Address.functionDelegateCall */\n      tag_251\n        /* \"@openzeppelin/contracts/proxy/ERC1967/ERC1967Upgrade.sol\":2252:2305  Address.functionDelegateCall(newImplementation, data) */\n      jump\t// in\n        /* \"@openzeppelin/contracts/utils/cryptography/ECDSA.sol\":3661:3888  function recover(bytes32 hash, bytes memory signature) internal pure returns (address) {... */\n    tag_216:\n        /* \"@openzeppelin/contracts/utils/cryptography/ECDSA.sol\":3739:3746  address */\n      0x00\n        /* \"@openzeppelin/contracts/utils/cryptography/ECDSA.sol\":3759:3776  address recovered */\n      dup1\n        /* \"@openzeppelin/contracts/utils/cryptography/ECDSA.sol\":3778:3796  RecoverError error */\n      0x00\n        /* \"@openzeppelin/contracts/utils/cryptography/ECDSA.sol\":3800:3827  tryRecover(hash, signature) */\n      tag_254\n        /* \"@openzeppelin/contracts/utils/cryptography/ECDSA.sol\":3811:3815  hash */\n      dup6\n        /* \"@openzeppelin/contracts/utils/cryptography/ECDSA.sol\":3817:3826  signature */\n      dup6\n        /* \"@openzeppelin/contracts/utils/cryptography/ECDSA.sol\":3800:3810  tryRecover */\n      tag_255\n        /* \"@openzeppelin/contracts/utils/cryptography/ECDSA.sol\":3800:3827  tryRecover(hash, signature) */\n      jump\t// in\n    tag_254:\n        /* \"@openzeppelin/contracts/utils/cryptography/ECDSA.sol\":3758:3827  (address recovered, RecoverError error) = tryRecover(hash, signature) */\n      swap2\n      pop\n      swap2\n      pop\n        /* \"@openzeppelin/contracts/utils/cryptography/ECDSA.sol\":3837:3855  _throwError(error) */\n      tag_256\n        /* \"@openzeppelin/contracts/utils/cryptography/ECDSA.sol\":3849:3854  error */\n      dup2\n        /* \"@openzeppelin/contracts/utils/cryptography/ECDSA.sol\":3837:3848  _throwError */\n      tag_257\n        /* \"@openzeppelin/contracts/utils/cryptography/ECDSA.sol\":3837:3855  _throwError(error) */\n      jump\t// in\n    tag_256:\n      pop\n        /* \"@openzeppelin/contracts/utils/cryptography/ECDSA.sol\":3872:3881  recovered */\n      swap4\n        /* \"@openzeppelin/contracts/utils/cryptography/ECDSA.sol\":3661:3888  function recover(bytes32 hash, bytes memory signature) internal pure returns (address) {... */\n      swap3\n      pop\n      pop\n      pop\n      jump\t// out\n        /* \"@openzeppelin/contracts/proxy/ERC1967/ERC1967Upgrade.sol\":1771:1923  function _upgradeTo(address newImplementation) internal {... */\n    tag_247:\n        /* \"@openzeppelin/contracts/proxy/ERC1967/ERC1967Upgrade.sol\":1837:1874  _setImplementation(newImplementation) */\n      tag_260\n        /* \"@openzeppelin/contracts/proxy/ERC1967/ERC1967Upgrade.sol\":1856:1873  newImplementation */\n      dup2\n        /* \"@openzeppelin/contracts/proxy/ERC1967/ERC1967Upgrade.sol\":1837:1855  _setImplementation */\n      tag_189\n        /* \"@openzeppelin/contracts/proxy/ERC1967/ERC1967Upgrade.sol\":1837:1874  _setImplementation(newImplementation) */\n      jump\t// in\n    tag_260:\n        /* \"@openzeppelin/contracts/proxy/ERC1967/ERC1967Upgrade.sol\":1889:1916  Upgraded(newImplementation) */\n      mload(0x40)\n      sub(shl(0xa0, 0x01), 0x01)\n      dup3\n      and\n      swap1\n      0xbc7cd75a20ee27fd9adebab32041f755214dbc6bffa90cc0225b39da2e5c2d3b\n      swap1\n      0x00\n      swap1\n      log2\n        /* \"@openzeppelin/contracts/proxy/ERC1967/ERC1967Upgrade.sol\":1771:1923  function _upgradeTo(address newImplementation) internal {... */\n      pop\n      jump\t// out\n        /* \"@openzeppelin/contracts/utils/Address.sol\":6674:6872  function functionDelegateCall(address target, bytes memory data) internal returns (bytes memory) {... */\n    tag_251:\n        /* \"@openzeppelin/contracts/utils/Address.sol\":6757:6769  bytes memory */\n      0x60\n        /* \"@openzeppelin/contracts/utils/Address.sol\":6788:6865  functionDelegateCall(target, data, \"Address: low-level delegate call failed\") */\n      tag_122\n        /* \"@openzeppelin/contracts/utils/Address.sol\":6809:6815  target */\n      dup4\n        /* \"@openzeppelin/contracts/utils/Address.sol\":6817:6821  data */\n      dup4\n        /* \"@openzeppelin/contracts/utils/Address.sol\":6788:6865  functionDelegateCall(target, data, \"Address: low-level delegate call failed\") */\n      mload(0x40)\n      dup1\n      0x60\n      add\n      0x40\n      mstore\n      dup1\n      0x27\n      dup2\n      mstore\n      0x20\n      add\n      data_9fdcd12e4b726339b32a442b0a448365d5d85c96b2d2cff917b4f66c63110398\n      0x27\n      swap2\n      codecopy\n        /* \"@openzeppelin/contracts/utils/Address.sol\":6788:6808  functionDelegateCall */\n      tag_263\n        /* \"@openzeppelin/contracts/utils/Address.sol\":6788:6865  functionDelegateCall(target, data, \"Address: low-level delegate call failed\") */\n      jump\t// in\n        /* \"@openzeppelin/contracts/utils/cryptography/ECDSA.sol\":2145:2875  function tryRecover(bytes32 hash, bytes memory signature) internal pure returns (address, RecoverError) {... */\n    tag_255:\n        /* \"@openzeppelin/contracts/utils/cryptography/ECDSA.sol\":2226:2233  address */\n      0x00\n        /* \"@openzeppelin/contracts/utils/cryptography/ECDSA.sol\":2235:2247  RecoverError */\n      dup1\n        /* \"@openzeppelin/contracts/utils/cryptography/ECDSA.sol\":2263:2272  signature */\n      dup3\n        /* \"@openzeppelin/contracts/utils/cryptography/ECDSA.sol\":2263:2279  signature.length */\n      mload\n        /* \"@openzeppelin/contracts/utils/cryptography/ECDSA.sol\":2283:2285  65 */\n      0x41\n        /* \"@openzeppelin/contracts/utils/cryptography/ECDSA.sol\":2263:2285  signature.length == 65 */\n      sub\n        /* \"@openzeppelin/contracts/utils/cryptography/ECDSA.sol\":2259:2869  if (signature.length == 65) {... */\n      tag_265\n      jumpi\n        /* \"@openzeppelin/contracts/utils/cryptography/ECDSA.sol\":2599:2603  0x20 */\n      0x20\n        /* \"@openzeppelin/contracts/utils/cryptography/ECDSA.sol\":2584:2604  add(signature, 0x20) */\n      dup4\n      add\n        /* \"@openzeppelin/contracts/utils/cryptography/ECDSA.sol\":2578:2605  mload(add(signature, 0x20)) */\n      mload\n        /* \"@openzeppelin/contracts/utils/cryptography/ECDSA.sol\":2648:2652  0x40 */\n      0x40\n        /* \"@openzeppelin/contracts/utils/cryptography/ECDSA.sol\":2633:2653  add(signature, 0x40) */\n      dup5\n      add\n        /* \"@openzeppelin/contracts/utils/cryptography/ECDSA.sol\":2627:2654  mload(add(signature, 0x40)) */\n      mload\n        /* \"@openzeppelin/contracts/utils/cryptography/ECDSA.sol\":2705:2709  0x60 */\n      0x60\n        /* \"@openzeppelin/contracts/utils/cryptography/ECDSA.sol\":2690:2710  add(signature, 0x60) */\n      dup6\n      add\n        /* \"@openzeppelin/contracts/utils/cryptography/ECDSA.sol\":2684:2711  mload(add(signature, 0x60)) */\n      mload\n        /* \"@openzeppelin/contracts/utils/cryptography/ECDSA.sol\":2301:2310  bytes32 r */\n      0x00\n        /* \"@openzeppelin/contracts/utils/cryptography/ECDSA.sol\":2676:2712  byte(0, mload(add(signature, 0x60))) */\n      byte\n        /* \"@openzeppelin/contracts/utils/cryptography/ECDSA.sol\":2746:2771  tryRecover(hash, v, r, s) */\n      tag_266\n        /* \"@openzeppelin/contracts/utils/cryptography/ECDSA.sol\":2757:2761  hash */\n      dup8\n        /* \"@openzeppelin/contracts/utils/cryptography/ECDSA.sol\":2676:2712  byte(0, mload(add(signature, 0x60))) */\n      dup3\n        /* \"@openzeppelin/contracts/utils/cryptography/ECDSA.sol\":2578:2605  mload(add(signature, 0x20)) */\n      dup6\n        /* \"@openzeppelin/contracts/utils/cryptography/ECDSA.sol\":2627:2654  mload(add(signature, 0x40)) */\n      dup6\n        /* \"@openzeppelin/contracts/utils/cryptography/ECDSA.sol\":2746:2756  tryRecover */\n      tag_267\n        /* \"@openzeppelin/contracts/utils/cryptography/ECDSA.sol\":2746:2771  tryRecover(hash, v, r, s) */\n      jump\t// in\n    tag_266:\n        /* \"@openzeppelin/contracts/utils/cryptography/ECDSA.sol\":2739:2771  return tryRecover(hash, v, r, s) */\n      swap5\n      pop\n      swap5\n      pop\n      pop\n      pop\n      pop\n      jump(tag_268)\n        /* \"@openzeppelin/contracts/utils/cryptography/ECDSA.sol\":2259:2869  if (signature.length == 65) {... */\n    tag_265:\n      pop\n        /* \"@openzeppelin/contracts/utils/cryptography/ECDSA.sol\":2818:2819  0 */\n      0x00\n      swap1\n      pop\n        /* \"@openzeppelin/contracts/utils/cryptography/ECDSA.sol\":2822:2857  RecoverError.InvalidSignatureLength */\n      0x02\n        /* \"@openzeppelin/contracts/utils/cryptography/ECDSA.sol\":2259:2869  if (signature.length == 65) {... */\n    tag_268:\n        /* \"@openzeppelin/contracts/utils/cryptography/ECDSA.sol\":2145:2875  function tryRecover(bytes32 hash, bytes memory signature) internal pure returns (address, RecoverError) {... */\n      swap3\n      pop\n      swap3\n      swap1\n      pop\n      jump\t// out\n        /* \"@openzeppelin/contracts/utils/cryptography/ECDSA.sol\":570:1081  function _throwError(RecoverError error) private pure {... */\n    tag_257:\n        /* \"@openzeppelin/contracts/utils/cryptography/ECDSA.sol\":647:667  RecoverError.NoError */\n      0x00\n        /* \"@openzeppelin/contracts/utils/cryptography/ECDSA.sol\":638:643  error */\n      dup2\n        /* \"@openzeppelin/contracts/utils/cryptography/ECDSA.sol\":638:667  error == RecoverError.NoError */\n      0x04\n      dup2\n      gt\n      iszero\n      tag_274\n      jumpi\n      tag_274\n      tag_272\n      jump\t// in\n    tag_274:\n      sub\n        /* \"@openzeppelin/contracts/utils/cryptography/ECDSA.sol\":634:1075  if (error == RecoverError.NoError) {... */\n      tag_275\n      jumpi\n        /* \"@openzeppelin/contracts/utils/cryptography/ECDSA.sol\":570:1081  function _throwError(RecoverError error) private pure {... */\n      pop\n      jump\t// out\n        /* \"@openzeppelin/contracts/utils/cryptography/ECDSA.sol\":634:1075  if (error == RecoverError.NoError) {... */\n    tag_275:\n        /* \"@openzeppelin/contracts/utils/cryptography/ECDSA.sol\":743:772  RecoverError.InvalidSignature */\n      0x01\n        /* \"@openzeppelin/contracts/utils/cryptography/ECDSA.sol\":734:739  error */\n      dup2\n        /* \"@openzeppelin/contracts/utils/cryptography/ECDSA.sol\":734:772  error == RecoverError.InvalidSignature */\n      0x04\n      dup2\n      gt\n      iszero\n      tag_280\n      jumpi\n      tag_280\n      tag_272\n      jump\t// in\n    tag_280:\n      sub\n        /* \"@openzeppelin/contracts/utils/cryptography/ECDSA.sol\":730:1075  if (error == RecoverError.InvalidSignature) {... */\n      tag_281\n      jumpi\n        /* \"@openzeppelin/contracts/utils/cryptography/ECDSA.sol\":788:822  revert(\"ECDSA: invalid signature\") */\n      mload(0x40)\n      shl(0xe5, 0x461bcd)\n      dup2\n      mstore\n        /* \"#utility.yul\":12379:12381   */\n      0x20\n        /* \"@openzeppelin/contracts/utils/cryptography/ECDSA.sol\":788:822  revert(\"ECDSA: invalid signature\") */\n      0x04\n      dup3\n      add\n        /* \"#utility.yul\":12361:12382   */\n      mstore\n        /* \"#utility.yul\":12418:12420   */\n      0x18\n        /* \"#utility.yul\":12398:12416   */\n      0x24\n      dup3\n      add\n        /* \"#utility.yul\":12391:12421   */\n      mstore\n        /* \"#utility.yul\":12457:12483   */\n      0x45434453413a20696e76616c6964207369676e61747572650000000000000000\n        /* \"#utility.yul\":12437:12455   */\n      0x44\n      dup3\n      add\n        /* \"#utility.yul\":12430:12484   */\n      mstore\n        /* \"#utility.yul\":12501:12519   */\n      0x64\n      add\n        /* \"@openzeppelin/contracts/utils/cryptography/ECDSA.sol\":788:822  revert(\"ECDSA: invalid signature\") */\n      tag_78\n        /* \"#utility.yul\":12177:12525   */\n      jump\n        /* \"@openzeppelin/contracts/utils/cryptography/ECDSA.sol\":730:1075  if (error == RecoverError.InvalidSignature) {... */\n    tag_281:\n        /* \"@openzeppelin/contracts/utils/cryptography/ECDSA.sol\":852:887  RecoverError.InvalidSignatureLength */\n      0x02\n        /* \"@openzeppelin/contracts/utils/cryptography/ECDSA.sol\":843:848  error */\n      dup2\n        /* \"@openzeppelin/contracts/utils/cryptography/ECDSA.sol\":843:887  error == RecoverError.InvalidSignatureLength */\n      0x04\n      dup2\n      gt\n      iszero\n      tag_288\n      jumpi\n      tag_288\n      tag_272\n      jump\t// in\n    tag_288:\n      sub\n        /* \"@openzeppelin/contracts/utils/cryptography/ECDSA.sol\":839:1075  if (error == RecoverError.InvalidSignatureLength) {... */\n      tag_289\n      jumpi\n        /* \"@openzeppelin/contracts/utils/cryptography/ECDSA.sol\":903:944  revert(\"ECDSA: invalid signature length\") */\n      mload(0x40)\n      shl(0xe5, 0x461bcd)\n      dup2\n      mstore\n        /* \"#utility.yul\":12732:12734   */\n      0x20\n        /* \"@openzeppelin/contracts/utils/cryptography/ECDSA.sol\":903:944  revert(\"ECDSA: invalid signature length\") */\n      0x04\n      dup3\n      add\n        /* \"#utility.yul\":12714:12735   */\n      mstore\n        /* \"#utility.yul\":12771:12773   */\n      0x1f\n        /* \"#utility.yul\":12751:12769   */\n      0x24\n      dup3\n      add\n        /* \"#utility.yul\":12744:12774   */\n      mstore\n        /* \"#utility.yul\":12810:12843   */\n      0x45434453413a20696e76616c6964207369676e6174757265206c656e67746800\n        /* \"#utility.yul\":12790:12808   */\n      0x44\n      dup3\n      add\n        /* \"#utility.yul\":12783:12844   */\n      mstore\n        /* \"#utility.yul\":12861:12879   */\n      0x64\n      add\n        /* \"@openzeppelin/contracts/utils/cryptography/ECDSA.sol\":903:944  revert(\"ECDSA: invalid signature length\") */\n      tag_78\n        /* \"#utility.yul\":12530:12885   */\n      jump\n        /* \"@openzeppelin/contracts/utils/cryptography/ECDSA.sol\":839:1075  if (error == RecoverError.InvalidSignatureLength) {... */\n    tag_289:\n        /* \"@openzeppelin/contracts/utils/cryptography/ECDSA.sol\":974:1004  RecoverError.InvalidSignatureS */\n      0x03\n        /* \"@openzeppelin/contracts/utils/cryptography/ECDSA.sol\":965:970  error */\n      dup2\n        /* \"@openzeppelin/contracts/utils/cryptography/ECDSA.sol\":965:1004  error == RecoverError.InvalidSignatureS */\n      0x04\n      dup2\n      gt\n      iszero\n      tag_296\n      jumpi\n      tag_296\n      tag_272\n      jump\t// in\n    tag_296:\n      sub\n        /* \"@openzeppelin/contracts/utils/cryptography/ECDSA.sol\":961:1075  if (error == RecoverError.InvalidSignatureS) {... */\n      tag_107\n      jumpi\n        /* \"@openzeppelin/contracts/utils/cryptography/ECDSA.sol\":1020:1064  revert(\"ECDSA: invalid signature 's' value\") */\n      mload(0x40)\n      shl(0xe5, 0x461bcd)\n      dup2\n      mstore\n        /* \"#utility.yul\":13092:13094   */\n      0x20\n        /* \"@openzeppelin/contracts/utils/cryptography/ECDSA.sol\":1020:1064  revert(\"ECDSA: invalid signature 's' value\") */\n      0x04\n      dup3\n      add\n        /* \"#utility.yul\":13074:13095   */\n      mstore\n        /* \"#utility.yul\":13131:13133   */\n      0x22\n        /* \"#utility.yul\":13111:13129   */\n      0x24\n      dup3\n      add\n        /* \"#utility.yul\":13104:13134   */\n      mstore\n        /* \"#utility.yul\":13170:13204   */\n      0x45434453413a20696e76616c6964207369676e6174757265202773272076616c\n        /* \"#utility.yul\":13150:13168   */\n      0x44\n      dup3\n      add\n        /* \"#utility.yul\":13143:13205   */\n      mstore\n      shl(0xf0, 0x7565)\n        /* \"#utility.yul\":13221:13239   */\n      0x64\n      dup3\n      add\n        /* \"#utility.yul\":13214:13246   */\n      mstore\n        /* \"#utility.yul\":13263:13282   */\n      0x84\n      add\n        /* \"@openzeppelin/contracts/utils/cryptography/ECDSA.sol\":1020:1064  revert(\"ECDSA: invalid signature 's' value\") */\n      tag_78\n        /* \"#utility.yul\":12890:13288   */\n      jump\n        /* \"@openzeppelin/contracts/utils/Address.sol\":7058:7383  function functionDelegateCall(... */\n    tag_263:\n        /* \"@openzeppelin/contracts/utils/Address.sol\":7199:7211  bytes memory */\n      0x60\n        /* \"@openzeppelin/contracts/utils/Address.sol\":7224:7236  bool success */\n      0x00\n        /* \"@openzeppelin/contracts/utils/Address.sol\":7238:7261  bytes memory returndata */\n      dup1\n        /* \"@openzeppelin/contracts/utils/Address.sol\":7265:7271  target */\n      dup6\n      sub(shl(0xa0, 0x01), 0x01)\n        /* \"@openzeppelin/contracts/utils/Address.sol\":7265:7284  target.delegatecall */\n      and\n        /* \"@openzeppelin/contracts/utils/Address.sol\":7285:7289  data */\n      dup6\n        /* \"@openzeppelin/contracts/utils/Address.sol\":7265:7290  target.delegatecall(data) */\n      mload(0x40)\n      tag_301\n      swap2\n      swap1\n      tag_174\n      jump\t// in\n    tag_301:\n      0x00\n      mload(0x40)\n      dup1\n      dup4\n      sub\n      dup2\n      dup6\n      gas\n      delegatecall\n      swap2\n      pop\n      pop\n      returndatasize\n      dup1\n      0x00\n      dup2\n      eq\n      tag_304\n      jumpi\n      mload(0x40)\n      swap2\n      pop\n      and(add(returndatasize, 0x3f), not(0x1f))\n      dup3\n      add\n      0x40\n      mstore\n      returndatasize\n      dup3\n      mstore\n      returndatasize\n      0x00\n      0x20\n      dup5\n      add\n      returndatacopy\n      jump(tag_303)\n    tag_304:\n      0x60\n      swap2\n      pop\n    tag_303:\n      pop\n        /* \"@openzeppelin/contracts/utils/Address.sol\":7223:7290  (bool success, bytes memory returndata) = target.delegatecall(data) */\n      swap2\n      pop\n      swap2\n      pop\n        /* \"@openzeppelin/contracts/utils/Address.sol\":7307:7376  verifyCallResultFromTarget(target, success, returndata, errorMessage) */\n      tag_305\n        /* \"@openzeppelin/contracts/utils/Address.sol\":7334:7340  target */\n      dup7\n        /* \"@openzeppelin/contracts/utils/Address.sol\":7342:7349  success */\n      dup4\n        /* \"@openzeppelin/contracts/utils/Address.sol\":7351:7361  returndata */\n      dup4\n        /* \"@openzeppelin/contracts/utils/Address.sol\":7363:7375  errorMessage */\n      dup8\n        /* \"@openzeppelin/contracts/utils/Address.sol\":7307:7333  verifyCallResultFromTarget */\n      tag_306\n        /* \"@openzeppelin/contracts/utils/Address.sol\":7307:7376  verifyCallResultFromTarget(target, success, returndata, errorMessage) */\n      jump\t// in\n    tag_305:\n        /* \"@openzeppelin/contracts/utils/Address.sol\":7300:7376  return verifyCallResultFromTarget(target, success, returndata, errorMessage) */\n      swap7\n        /* \"@openzeppelin/contracts/utils/Address.sol\":7058:7383  function functionDelegateCall(... */\n      swap6\n      pop\n      pop\n      pop\n      pop\n      pop\n      pop\n      jump\t// out\n        /* \"@openzeppelin/contracts/utils/cryptography/ECDSA.sol\":5009:6465  function tryRecover(bytes32 hash, uint8 v, bytes32 r, bytes32 s) internal pure returns (address, RecoverError) {... */\n    tag_267:\n        /* \"@openzeppelin/contracts/utils/cryptography/ECDSA.sol\":5097:5104  address */\n      0x00\n      dup1\n        /* \"@openzeppelin/contracts/utils/cryptography/ECDSA.sol\":6021:6087  0x7FFFFFFFFFFFFFFFFFFFFFFFFFFFFFFF5D576E7357A4501DDFE92F46681B20A0 */\n      0x7fffffffffffffffffffffffffffffff5d576e7357a4501ddfe92f46681b20a0\n        /* \"@openzeppelin/contracts/utils/cryptography/ECDSA.sol\":6008:6087  uint256(s) > 0x7FFFFFFFFFFFFFFFFFFFFFFFFFFFFFFF5D576E7357A4501DDFE92F46681B20A0 */\n      dup4\n      gt\n        /* \"@openzeppelin/contracts/utils/cryptography/ECDSA.sol\":6004:6165  if (uint256(s) > 0x7FFFFFFFFFFFFFFFFFFFFFFFFFFFFFFF5D576E7357A4501DDFE92F46681B20A0) {... */\n      iszero\n      tag_308\n      jumpi\n      pop\n        /* \"@openzeppelin/contracts/utils/cryptography/ECDSA.sol\":6119:6120  0 */\n      0x00\n      swap1\n      pop\n        /* \"@openzeppelin/contracts/utils/cryptography/ECDSA.sol\":6123:6153  RecoverError.InvalidSignatureS */\n      0x03\n        /* \"@openzeppelin/contracts/utils/cryptography/ECDSA.sol\":6103:6154  return (address(0), RecoverError.InvalidSignatureS) */\n      jump(tag_307)\n        /* \"@openzeppelin/contracts/utils/cryptography/ECDSA.sol\":6004:6165  if (uint256(s) > 0x7FFFFFFFFFFFFFFFFFFFFFFFFFFFFFFF5D576E7357A4501DDFE92F46681B20A0) {... */\n    tag_308:\n        /* \"@openzeppelin/contracts/utils/cryptography/ECDSA.sol\":6276:6300  ecrecover(hash, v, r, s) */\n      0x40\n      dup1\n      mload\n        /* \"@openzeppelin/contracts/utils/cryptography/ECDSA.sol\":6259:6273  address signer */\n      0x00\n        /* \"@openzeppelin/contracts/utils/cryptography/ECDSA.sol\":6276:6300  ecrecover(hash, v, r, s) */\n      dup1\n      dup3\n      mstore\n      0x20\n      dup3\n      add\n      dup1\n      dup5\n      mstore\n        /* \"#utility.yul\":13520:13545   */\n      dup10\n      swap1\n      mstore\n        /* \"#utility.yul\":13593:13597   */\n      0xff\n        /* \"#utility.yul\":13581:13598   */\n      dup9\n      and\n        /* \"#utility.yul\":13561:13579   */\n      swap3\n      dup3\n      add\n        /* \"#utility.yul\":13554:13599   */\n      swap3\n      swap1\n      swap3\n      mstore\n        /* \"#utility.yul\":13615:13633   */\n      0x60\n      dup2\n      add\n        /* \"#utility.yul\":13608:13642   */\n      dup7\n      swap1\n      mstore\n        /* \"#utility.yul\":13658:13676   */\n      0x80\n      dup2\n      add\n        /* \"#utility.yul\":13651:13685   */\n      dup6\n      swap1\n      mstore\n        /* \"@openzeppelin/contracts/utils/cryptography/ECDSA.sol\":6276:6300  ecrecover(hash, v, r, s) */\n      0x01\n      swap1\n        /* \"#utility.yul\":13492:13511   */\n      0xa0\n      add\n        /* \"@openzeppelin/contracts/utils/cryptography/ECDSA.sol\":6276:6300  ecrecover(hash, v, r, s) */\n      0x20\n      mload(0x40)\n      0x20\n      dup2\n      sub\n      swap1\n      dup1\n      dup5\n      sub\n      swap1\n      dup6\n      gas\n      staticcall\n      iszero\n      dup1\n      iszero\n      tag_312\n      jumpi\n      returndatasize\n      0x00\n      dup1\n      returndatacopy\n      revert(0x00, returndatasize)\n    tag_312:\n      pop\n      pop\n      mload(add(not(0x1f), mload(0x40)))\n      swap2\n      pop\n      pop\n      sub(shl(0xa0, 0x01), 0x01)\n        /* \"@openzeppelin/contracts/utils/cryptography/ECDSA.sol\":6314:6334  signer == address(0) */\n      dup2\n      and\n        /* \"@openzeppelin/contracts/utils/cryptography/ECDSA.sol\":6310:6411  if (signer == address(0)) {... */\n      tag_313\n      jumpi\n        /* \"@openzeppelin/contracts/utils/cryptography/ECDSA.sol\":6366:6367  0 */\n      0x00\n        /* \"@openzeppelin/contracts/utils/cryptography/ECDSA.sol\":6370:6399  RecoverError.InvalidSignature */\n      0x01\n        /* \"@openzeppelin/contracts/utils/cryptography/ECDSA.sol\":6350:6400  return (address(0), RecoverError.InvalidSignature) */\n      swap3\n      pop\n      swap3\n      pop\n      pop\n      jump(tag_307)\n        /* \"@openzeppelin/contracts/utils/cryptography/ECDSA.sol\":6310:6411  if (signer == address(0)) {... */\n    tag_313:\n        /* \"@openzeppelin/contracts/utils/cryptography/ECDSA.sol\":6429:6435  signer */\n      swap2\n      pop\n        /* \"@openzeppelin/contracts/utils/cryptography/ECDSA.sol\":6437:6457  RecoverError.NoError */\n      0x00\n      swap1\n      pop\n        /* \"@openzeppelin/contracts/utils/cryptography/ECDSA.sol\":5009:6465  function tryRecover(bytes32 hash, uint8 v, bytes32 r, bytes32 s) internal pure returns (address, RecoverError) {... */\n    tag_307:\n      swap5\n      pop\n      swap5\n      swap3\n      pop\n      pop\n      pop\n      jump\t// out\n        /* \"@openzeppelin/contracts/utils/Address.sol\":7671:8299  function verifyCallResultFromTarget(... */\n    tag_306:\n        /* \"@openzeppelin/contracts/utils/Address.sol\":7851:7863  bytes memory */\n      0x60\n        /* \"@openzeppelin/contracts/utils/Address.sol\":7879:7886  success */\n      dup4\n        /* \"@openzeppelin/contracts/utils/Address.sol\":7875:8293  if (success) {... */\n      iszero\n      tag_315\n      jumpi\n        /* \"@openzeppelin/contracts/utils/Address.sol\":7906:7916  returndata */\n      dup3\n        /* \"@openzeppelin/contracts/utils/Address.sol\":7906:7923  returndata.length */\n      mload\n        /* \"@openzeppelin/contracts/utils/Address.sol\":7927:7928  0 */\n      0x00\n        /* \"@openzeppelin/contracts/utils/Address.sol\":7906:7928  returndata.length == 0 */\n      sub\n        /* \"@openzeppelin/contracts/utils/Address.sol\":7902:8188  if (returndata.length == 0) {... */\n      tag_318\n      jumpi\n      sub(shl(0xa0, 0x01), 0x01)\n        /* \"@openzeppelin/contracts/utils/Address.sol\":1702:1721  account.code.length */\n      dup6\n      and\n      extcodesize\n        /* \"@openzeppelin/contracts/utils/Address.sol\":8113:8173  require(isContract(target), \"Address: call to non-contract\") */\n      tag_318\n      jumpi\n      mload(0x40)\n      shl(0xe5, 0x461bcd)\n      dup2\n      mstore\n        /* \"#utility.yul\":13898:13900   */\n      0x20\n        /* \"@openzeppelin/contracts/utils/Address.sol\":8113:8173  require(isContract(target), \"Address: call to non-contract\") */\n      0x04\n      dup3\n      add\n        /* \"#utility.yul\":13880:13901   */\n      mstore\n        /* \"#utility.yul\":13937:13939   */\n      0x1d\n        /* \"#utility.yul\":13917:13935   */\n      0x24\n      dup3\n      add\n        /* \"#utility.yul\":13910:13940   */\n      mstore\n        /* \"#utility.yul\":13976:14007   */\n      0x416464726573733a2063616c6c20746f206e6f6e2d636f6e7472616374000000\n        /* \"#utility.yul\":13956:13974   */\n      0x44\n      dup3\n      add\n        /* \"#utility.yul\":13949:14008   */\n      mstore\n        /* \"#utility.yul\":14025:14043   */\n      0x64\n      add\n        /* \"@openzeppelin/contracts/utils/Address.sol\":8113:8173  require(isContract(target), \"Address: call to non-contract\") */\n      tag_78\n        /* \"#utility.yul\":13696:14049   */\n      jump\n        /* \"@openzeppelin/contracts/utils/Address.sol\":8113:8173  require(isContract(target), \"Address: call to non-contract\") */\n    tag_318:\n      pop\n        /* \"@openzeppelin/contracts/utils/Address.sol\":8208:8218  returndata */\n      dup2\n        /* \"@openzeppelin/contracts/utils/Address.sol\":8201:8218  return returndata */\n      jump(tag_322)\n        /* \"@openzeppelin/contracts/utils/Address.sol\":7875:8293  if (success) {... */\n    tag_315:\n        /* \"@openzeppelin/contracts/utils/Address.sol\":8249:8282  _revert(returndata, errorMessage) */\n      tag_322\n        /* \"@openzeppelin/contracts/utils/Address.sol\":8257:8267  returndata */\n      dup4\n        /* \"@openzeppelin/contracts/utils/Address.sol\":8269:8281  errorMessage */\n      dup4\n        /* \"@openzeppelin/contracts/utils/Address.sol\":8249:8256  _revert */\n      tag_323\n        /* \"@openzeppelin/contracts/utils/Address.sol\":8249:8282  _revert(returndata, errorMessage) */\n      jump\t// in\n    tag_322:\n        /* \"@openzeppelin/contracts/utils/Address.sol\":7671:8299  function verifyCallResultFromTarget(... */\n      swap5\n      swap4\n      pop\n      pop\n      pop\n      pop\n      jump\t// out\n        /* \"@openzeppelin/contracts/utils/Address.sol\":8821:9361  function _revert(bytes memory returndata, string memory errorMessage) private pure {... */\n    tag_323:\n        /* \"@openzeppelin/contracts/utils/Address.sol\":8980:8997  returndata.length */\n      dup2\n      mload\n        /* \"@openzeppelin/contracts/utils/Address.sol\":8980:9001  returndata.length > 0 */\n      iszero\n        /* \"@openzeppelin/contracts/utils/Address.sol\":8976:9355  if (returndata.length > 0) {... */\n      tag_325\n      jumpi\n        /* \"@openzeppelin/contracts/utils/Address.sol\":9208:9218  returndata */\n      dup2\n        /* \"@openzeppelin/contracts/utils/Address.sol\":9202:9219  mload(returndata) */\n      mload\n        /* \"@openzeppelin/contracts/utils/Address.sol\":9264:9279  returndata_size */\n      dup1\n        /* \"@openzeppelin/contracts/utils/Address.sol\":9251:9261  returndata */\n      dup4\n        /* \"@openzeppelin/contracts/utils/Address.sol\":9247:9249  32 */\n      0x20\n        /* \"@openzeppelin/contracts/utils/Address.sol\":9243:9262  add(32, returndata) */\n      add\n        /* \"@openzeppelin/contracts/utils/Address.sol\":9236:9280  revert(add(32, returndata), returndata_size) */\n      revert\n        /* \"@openzeppelin/contracts/utils/Address.sol\":8976:9355  if (returndata.length > 0) {... */\n    tag_325:\n        /* \"@openzeppelin/contracts/utils/Address.sol\":9331:9343  errorMessage */\n      dup1\n        /* \"@openzeppelin/contracts/utils/Address.sol\":9324:9344  revert(errorMessage) */\n      mload(0x40)\n      shl(0xe5, 0x461bcd)\n      dup2\n      mstore\n      0x04\n      add\n      tag_78\n      swap2\n      swap1\n      tag_328\n      jump\t// in\n        /* \"#utility.yul\":14:381   */\n    tag_329:\n        /* \"#utility.yul\":77:85   */\n      0x00\n        /* \"#utility.yul\":87:93   */\n      dup1\n        /* \"#utility.yul\":141:144   */\n      dup4\n        /* \"#utility.yul\":134:138   */\n      0x1f\n        /* \"#utility.yul\":126:132   */\n      dup5\n        /* \"#utility.yul\":122:139   */\n      add\n        /* \"#utility.yul\":118:145   */\n      slt\n        /* \"#utility.yul\":108:163   */\n      tag_335\n      jumpi\n        /* \"#utility.yul\":159:160   */\n      0x00\n        /* \"#utility.yul\":156:157   */\n      dup1\n        /* \"#utility.yul\":149:161   */\n      revert\n        /* \"#utility.yul\":108:163   */\n    tag_335:\n      pop\n        /* \"#utility.yul\":182:202   */\n      dup2\n      calldataload\n        /* \"#utility.yul\":225:243   */\n      0xffffffffffffffff\n        /* \"#utility.yul\":214:244   */\n      dup2\n      gt\n        /* \"#utility.yul\":211:261   */\n      iszero\n      tag_336\n      jumpi\n        /* \"#utility.yul\":257:258   */\n      0x00\n        /* \"#utility.yul\":254:255   */\n      dup1\n        /* \"#utility.yul\":247:259   */\n      revert\n        /* \"#utility.yul\":211:261   */\n    tag_336:\n        /* \"#utility.yul\":294:298   */\n      0x20\n        /* \"#utility.yul\":286:292   */\n      dup4\n        /* \"#utility.yul\":282:299   */\n      add\n        /* \"#utility.yul\":270:299   */\n      swap2\n      pop\n        /* \"#utility.yul\":354:357   */\n      dup4\n        /* \"#utility.yul\":347:351   */\n      0x20\n        /* \"#utility.yul\":337:343   */\n      dup3\n        /* \"#utility.yul\":334:335   */\n      0x05\n        /* \"#utility.yul\":330:344   */\n      shl\n        /* \"#utility.yul\":322:328   */\n      dup6\n        /* \"#utility.yul\":318:345   */\n      add\n        /* \"#utility.yul\":314:352   */\n      add\n        /* \"#utility.yul\":311:358   */\n      gt\n        /* \"#utility.yul\":308:375   */\n      iszero\n      tag_268\n      jumpi\n        /* \"#utility.yul\":371:372   */\n      0x00\n        /* \"#utility.yul\":368:369   */\n      dup1\n        /* \"#utility.yul\":361:373   */\n      revert\n        /* \"#utility.yul\":386:1170   */\n    tag_21:\n        /* \"#utility.yul\":519:525   */\n      0x00\n        /* \"#utility.yul\":527:533   */\n      dup1\n        /* \"#utility.yul\":535:541   */\n      0x00\n        /* \"#utility.yul\":543:549   */\n      dup1\n        /* \"#utility.yul\":596:598   */\n      0x40\n        /* \"#utility.yul\":584:593   */\n      dup6\n        /* \"#utility.yul\":575:582   */\n      dup8\n        /* \"#utility.yul\":571:594   */\n      sub\n        /* \"#utility.yul\":567:599   */\n      slt\n        /* \"#utility.yul\":564:616   */\n      iszero\n      tag_339\n      jumpi\n        /* \"#utility.yul\":612:613   */\n      0x00\n        /* \"#utility.yul\":609:610   */\n      dup1\n        /* \"#utility.yul\":602:614   */\n      revert\n        /* \"#utility.yul\":564:616   */\n    tag_339:\n        /* \"#utility.yul\":652:661   */\n      dup5\n        /* \"#utility.yul\":639:662   */\n      calldataload\n        /* \"#utility.yul\":681:699   */\n      0xffffffffffffffff\n        /* \"#utility.yul\":722:724   */\n      dup1\n        /* \"#utility.yul\":714:720   */\n      dup3\n        /* \"#utility.yul\":711:725   */\n      gt\n        /* \"#utility.yul\":708:742   */\n      iszero\n      tag_340\n      jumpi\n        /* \"#utility.yul\":738:739   */\n      0x00\n        /* \"#utility.yul\":735:736   */\n      dup1\n        /* \"#utility.yul\":728:740   */\n      revert\n        /* \"#utility.yul\":708:742   */\n    tag_340:\n        /* \"#utility.yul\":777:847   */\n      tag_341\n        /* \"#utility.yul\":839:846   */\n      dup9\n        /* \"#utility.yul\":830:836   */\n      dup4\n        /* \"#utility.yul\":819:828   */\n      dup10\n        /* \"#utility.yul\":815:837   */\n      add\n        /* \"#utility.yul\":777:847   */\n      tag_329\n      jump\t// in\n    tag_341:\n        /* \"#utility.yul\":866:874   */\n      swap1\n      swap7\n      pop\n        /* \"#utility.yul\":751:847   */\n      swap5\n      pop\n        /* \"#utility.yul\":954:956   */\n      0x20\n        /* \"#utility.yul\":939:957   */\n      dup8\n      add\n        /* \"#utility.yul\":926:958   */\n      calldataload\n      swap2\n      pop\n        /* \"#utility.yul\":970:986   */\n      dup1\n      dup3\n      gt\n        /* \"#utility.yul\":967:1003   */\n      iszero\n      tag_342\n      jumpi\n        /* \"#utility.yul\":999:1000   */\n      0x00\n        /* \"#utility.yul\":996:997   */\n      dup1\n        /* \"#utility.yul\":989:1001   */\n      revert\n        /* \"#utility.yul\":967:1003   */\n    tag_342:\n      pop\n        /* \"#utility.yul\":1038:1110   */\n      tag_343\n        /* \"#utility.yul\":1102:1109   */\n      dup8\n        /* \"#utility.yul\":1091:1099   */\n      dup3\n        /* \"#utility.yul\":1080:1089   */\n      dup9\n        /* \"#utility.yul\":1076:1100   */\n      add\n        /* \"#utility.yul\":1038:1110   */\n      tag_329\n      jump\t// in\n    tag_343:\n        /* \"#utility.yul\":386:1170   */\n      swap6\n      swap9\n      swap5\n      swap8\n      pop\n        /* \"#utility.yul\":1129:1137   */\n      swap6\n      pop\n      pop\n      pop\n      pop\n        /* \"#utility.yul\":386:1170   */\n      jump\t// out\n        /* \"#utility.yul\":1175:1306   */\n    tag_330:\n      sub(shl(0xa0, 0x01), 0x01)\n        /* \"#utility.yul\":1250:1281   */\n      dup2\n      and\n        /* \"#utility.yul\":1240:1282   */\n      dup2\n      eq\n        /* \"#utility.yul\":1230:1300   */\n      tag_107\n      jumpi\n        /* \"#utility.yul\":1296:1297   */\n      0x00\n        /* \"#utility.yul\":1293:1294   */\n      dup1\n        /* \"#utility.yul\":1286:1298   */\n      revert\n        /* \"#utility.yul\":1311:1558   */\n    tag_26:\n        /* \"#utility.yul\":1370:1376   */\n      0x00\n        /* \"#utility.yul\":1423:1425   */\n      0x20\n        /* \"#utility.yul\":1411:1420   */\n      dup3\n        /* \"#utility.yul\":1402:1409   */\n      dup5\n        /* \"#utility.yul\":1398:1421   */\n      sub\n        /* \"#utility.yul\":1394:1426   */\n      slt\n        /* \"#utility.yul\":1391:1443   */\n      iszero\n      tag_347\n      jumpi\n        /* \"#utility.yul\":1439:1440   */\n      0x00\n        /* \"#utility.yul\":1436:1437   */\n      dup1\n        /* \"#utility.yul\":1429:1441   */\n      revert\n        /* \"#utility.yul\":1391:1443   */\n    tag_347:\n        /* \"#utility.yul\":1478:1487   */\n      dup2\n        /* \"#utility.yul\":1465:1488   */\n      calldataload\n        /* \"#utility.yul\":1497:1528   */\n      tag_122\n        /* \"#utility.yul\":1522:1527   */\n      dup2\n        /* \"#utility.yul\":1497:1528   */\n      tag_330\n      jump\t// in\n        /* \"#utility.yul\":1563:2092   */\n    tag_31:\n        /* \"#utility.yul\":1673:1679   */\n      0x00\n        /* \"#utility.yul\":1681:1687   */\n      dup1\n        /* \"#utility.yul\":1689:1695   */\n      0x00\n        /* \"#utility.yul\":1742:1744   */\n      0x60\n        /* \"#utility.yul\":1730:1739   */\n      dup5\n        /* \"#utility.yul\":1721:1728   */\n      dup7\n        /* \"#utility.yul\":1717:1740   */\n      sub\n        /* \"#utility.yul\":1713:1745   */\n      slt\n        /* \"#utility.yul\":1710:1762   */\n      iszero\n      tag_350\n      jumpi\n        /* \"#utility.yul\":1758:1759   */\n      0x00\n        /* \"#utility.yul\":1755:1756   */\n      dup1\n        /* \"#utility.yul\":1748:1760   */\n      revert\n        /* \"#utility.yul\":1710:1762   */\n    tag_350:\n        /* \"#utility.yul\":1798:1807   */\n      dup4\n        /* \"#utility.yul\":1785:1808   */\n      calldataload\n        /* \"#utility.yul\":1831:1849   */\n      0xffffffffffffffff\n        /* \"#utility.yul\":1823:1829   */\n      dup2\n        /* \"#utility.yul\":1820:1850   */\n      gt\n        /* \"#utility.yul\":1817:1867   */\n      iszero\n      tag_351\n      jumpi\n        /* \"#utility.yul\":1863:1864   */\n      0x00\n        /* \"#utility.yul\":1860:1861   */\n      dup1\n        /* \"#utility.yul\":1853:1865   */\n      revert\n        /* \"#utility.yul\":1817:1867   */\n    tag_351:\n        /* \"#utility.yul\":1886:1908   */\n      dup5\n      add\n        /* \"#utility.yul\":1942:1945   */\n      0x0160\n        /* \"#utility.yul\":1924:1940   */\n      dup2\n      dup8\n      sub\n        /* \"#utility.yul\":1920:1946   */\n      slt\n        /* \"#utility.yul\":1917:1963   */\n      iszero\n      tag_352\n      jumpi\n        /* \"#utility.yul\":1959:1960   */\n      0x00\n        /* \"#utility.yul\":1956:1957   */\n      dup1\n        /* \"#utility.yul\":1949:1961   */\n      revert\n        /* \"#utility.yul\":1917:1963   */\n    tag_352:\n        /* \"#utility.yul\":1982:1984   */\n      swap6\n        /* \"#utility.yul\":2031:2033   */\n      0x20\n        /* \"#utility.yul\":2016:2034   */\n      dup6\n      add\n        /* \"#utility.yul\":2003:2035   */\n      calldataload\n      swap6\n      pop\n        /* \"#utility.yul\":2082:2084   */\n      0x40\n        /* \"#utility.yul\":2067:2085   */\n      swap1\n      swap5\n      add\n        /* \"#utility.yul\":2054:2086   */\n      calldataload\n      swap4\n        /* \"#utility.yul\":1563:2092   */\n      swap3\n      pop\n      pop\n      pop\n      jump\t// out\n        /* \"#utility.yul\":2279:2602   */\n    tag_40:\n        /* \"#utility.yul\":2355:2361   */\n      0x00\n        /* \"#utility.yul\":2363:2369   */\n      dup1\n        /* \"#utility.yul\":2416:2418   */\n      0x40\n        /* \"#utility.yul\":2404:2413   */\n      dup4\n        /* \"#utility.yul\":2395:2402   */\n      dup6\n        /* \"#utility.yul\":2391:2414   */\n      sub\n        /* \"#utility.yul\":2387:2419   */\n      slt\n        /* \"#utility.yul\":2384:2436   */\n      iszero\n      tag_355\n      jumpi\n        /* \"#utility.yul\":2432:2433   */\n      0x00\n        /* \"#utility.yul\":2429:2430   */\n      dup1\n        /* \"#utility.yul\":2422:2434   */\n      revert\n        /* \"#utility.yul\":2384:2436   */\n    tag_355:\n        /* \"#utility.yul\":2471:2480   */\n      dup3\n        /* \"#utility.yul\":2458:2481   */\n      calldataload\n        /* \"#utility.yul\":2490:2521   */\n      tag_356\n        /* \"#utility.yul\":2515:2520   */\n      dup2\n        /* \"#utility.yul\":2490:2521   */\n      tag_330\n      jump\t// in\n    tag_356:\n        /* \"#utility.yul\":2540:2545   */\n      swap5\n        /* \"#utility.yul\":2592:2594   */\n      0x20\n        /* \"#utility.yul\":2577:2595   */\n      swap4\n      swap1\n      swap4\n      add\n        /* \"#utility.yul\":2564:2596   */\n      calldataload\n      swap4\n      pop\n      pop\n      pop\n        /* \"#utility.yul\":2279:2602   */\n      jump\t// out\n        /* \"#utility.yul\":2607:2734   */\n    tag_110:\n        /* \"#utility.yul\":2668:2678   */\n      0x4e487b71\n        /* \"#utility.yul\":2663:2666   */\n      0xe0\n        /* \"#utility.yul\":2659:2679   */\n      shl\n        /* \"#utility.yul\":2656:2657   */\n      0x00\n        /* \"#utility.yul\":2649:2680   */\n      mstore\n        /* \"#utility.yul\":2699:2703   */\n      0x41\n        /* \"#utility.yul\":2696:2697   */\n      0x04\n        /* \"#utility.yul\":2689:2704   */\n      mstore\n        /* \"#utility.yul\":2723:2727   */\n      0x24\n        /* \"#utility.yul\":2720:2721   */\n      0x00\n        /* \"#utility.yul\":2713:2728   */\n      revert\n        /* \"#utility.yul\":2739:3795   */\n    tag_44:\n        /* \"#utility.yul\":2816:2822   */\n      0x00\n        /* \"#utility.yul\":2824:2830   */\n      dup1\n        /* \"#utility.yul\":2877:2879   */\n      0x40\n        /* \"#utility.yul\":2865:2874   */\n      dup4\n        /* \"#utility.yul\":2856:2863   */\n      dup6\n        /* \"#utility.yul\":2852:2875   */\n      sub\n        /* \"#utility.yul\":2848:2880   */\n      slt\n        /* \"#utility.yul\":2845:2897   */\n      iszero\n      tag_359\n      jumpi\n        /* \"#utility.yul\":2893:2894   */\n      0x00\n        /* \"#utility.yul\":2890:2891   */\n      dup1\n        /* \"#utility.yul\":2883:2895   */\n      revert\n        /* \"#utility.yul\":2845:2897   */\n    tag_359:\n        /* \"#utility.yul\":2932:2941   */\n      dup3\n        /* \"#utility.yul\":2919:2942   */\n      calldataload\n        /* \"#utility.yul\":2951:2982   */\n      tag_360\n        /* \"#utility.yul\":2976:2981   */\n      dup2\n        /* \"#utility.yul\":2951:2982   */\n      tag_330\n      jump\t// in\n    tag_360:\n        /* \"#utility.yul\":3001:3006   */\n      swap2\n      pop\n        /* \"#utility.yul\":3057:3059   */\n      0x20\n        /* \"#utility.yul\":3042:3060   */\n      dup4\n      add\n        /* \"#utility.yul\":3029:3061   */\n      calldataload\n        /* \"#utility.yul\":3080:3098   */\n      0xffffffffffffffff\n        /* \"#utility.yul\":3110:3124   */\n      dup1\n      dup3\n      gt\n        /* \"#utility.yul\":3107:3141   */\n      iszero\n      tag_361\n      jumpi\n        /* \"#utility.yul\":3137:3138   */\n      0x00\n        /* \"#utility.yul\":3134:3135   */\n      dup1\n        /* \"#utility.yul\":3127:3139   */\n      revert\n        /* \"#utility.yul\":3107:3141   */\n    tag_361:\n        /* \"#utility.yul\":3175:3181   */\n      dup2\n        /* \"#utility.yul\":3164:3173   */\n      dup6\n        /* \"#utility.yul\":3160:3182   */\n      add\n        /* \"#utility.yul\":3150:3182   */\n      swap2\n      pop\n        /* \"#utility.yul\":3220:3227   */\n      dup6\n        /* \"#utility.yul\":3213:3217   */\n      0x1f\n        /* \"#utility.yul\":3209:3211   */\n      dup4\n        /* \"#utility.yul\":3205:3218   */\n      add\n        /* \"#utility.yul\":3201:3228   */\n      slt\n        /* \"#utility.yul\":3191:3246   */\n      tag_362\n      jumpi\n        /* \"#utility.yul\":3242:3243   */\n      0x00\n        /* \"#utility.yul\":3239:3240   */\n      dup1\n        /* \"#utility.yul\":3232:3244   */\n      revert\n        /* \"#utility.yul\":3191:3246   */\n    tag_362:\n        /* \"#utility.yul\":3278:3280   */\n      dup2\n        /* \"#utility.yul\":3265:3281   */\n      calldataload\n        /* \"#utility.yul\":3300:3302   */\n      dup2\n        /* \"#utility.yul\":3296:3298   */\n      dup2\n        /* \"#utility.yul\":3293:3303   */\n      gt\n        /* \"#utility.yul\":3290:3326   */\n      iszero\n      tag_364\n      jumpi\n        /* \"#utility.yul\":3306:3324   */\n      tag_364\n      tag_110\n      jump\t// in\n    tag_364:\n        /* \"#utility.yul\":3381:3383   */\n      0x40\n        /* \"#utility.yul\":3375:3384   */\n      mload\n        /* \"#utility.yul\":3349:3351   */\n      0x1f\n        /* \"#utility.yul\":3435:3448   */\n      dup3\n      add\n      not(0x1f)\n        /* \"#utility.yul\":3431:3453   */\n      swap1\n      dup2\n      and\n        /* \"#utility.yul\":3455:3457   */\n      0x3f\n        /* \"#utility.yul\":3427:3458   */\n      add\n        /* \"#utility.yul\":3423:3463   */\n      and\n        /* \"#utility.yul\":3411:3464   */\n      dup2\n      add\n      swap1\n        /* \"#utility.yul\":3479:3497   */\n      dup4\n      dup3\n      gt\n        /* \"#utility.yul\":3499:3521   */\n      dup2\n      dup4\n      lt\n        /* \"#utility.yul\":3476:3522   */\n      or\n        /* \"#utility.yul\":3473:3545   */\n      iszero\n      tag_366\n      jumpi\n        /* \"#utility.yul\":3525:3543   */\n      tag_366\n      tag_110\n      jump\t// in\n    tag_366:\n        /* \"#utility.yul\":3565:3575   */\n      dup2\n        /* \"#utility.yul\":3561:3563   */\n      0x40\n        /* \"#utility.yul\":3554:3576   */\n      mstore\n        /* \"#utility.yul\":3600:3602   */\n      dup3\n        /* \"#utility.yul\":3592:3598   */\n      dup2\n        /* \"#utility.yul\":3585:3603   */\n      mstore\n        /* \"#utility.yul\":3640:3647   */\n      dup9\n        /* \"#utility.yul\":3635:3637   */\n      0x20\n        /* \"#utility.yul\":3630:3632   */\n      dup5\n        /* \"#utility.yul\":3626:3628   */\n      dup8\n        /* \"#utility.yul\":3622:3633   */\n      add\n        /* \"#utility.yul\":3618:3638   */\n      add\n        /* \"#utility.yul\":3615:3648   */\n      gt\n        /* \"#utility.yul\":3612:3665   */\n      iszero\n      tag_367\n      jumpi\n        /* \"#utility.yul\":3661:3662   */\n      0x00\n        /* \"#utility.yul\":3658:3659   */\n      dup1\n        /* \"#utility.yul\":3651:3663   */\n      revert\n        /* \"#utility.yul\":3612:3665   */\n    tag_367:\n        /* \"#utility.yul\":3717:3719   */\n      dup3\n        /* \"#utility.yul\":3712:3714   */\n      0x20\n        /* \"#utility.yul\":3708:3710   */\n      dup7\n        /* \"#utility.yul\":3704:3715   */\n      add\n        /* \"#utility.yul\":3699:3701   */\n      0x20\n        /* \"#utility.yul\":3691:3697   */\n      dup4\n        /* \"#utility.yul\":3687:3702   */\n      add\n        /* \"#utility.yul\":3674:3720   */\n      calldatacopy\n        /* \"#utility.yul\":3762:3763   */\n      0x00\n        /* \"#utility.yul\":3757:3759   */\n      0x20\n        /* \"#utility.yul\":3752:3754   */\n      dup5\n        /* \"#utility.yul\":3744:3750   */\n      dup4\n        /* \"#utility.yul\":3740:3755   */\n      add\n        /* \"#utility.yul\":3736:3760   */\n      add\n        /* \"#utility.yul\":3729:3764   */\n      mstore\n        /* \"#utility.yul\":3783:3789   */\n      dup1\n        /* \"#utility.yul\":3773:3789   */\n      swap6\n      pop\n      pop\n      pop\n      pop\n      pop\n      pop\n        /* \"#utility.yul\":2739:3795   */\n      swap3\n      pop\n      swap3\n      swap1\n      pop\n      jump\t// out\n        /* \"#utility.yul\":4418:5212   */\n    tag_68:\n        /* \"#utility.yul\":4506:4512   */\n      0x00\n        /* \"#utility.yul\":4514:4520   */\n      dup1\n        /* \"#utility.yul\":4522:4528   */\n      0x00\n        /* \"#utility.yul\":4530:4536   */\n      dup1\n        /* \"#utility.yul\":4583:4585   */\n      0x60\n        /* \"#utility.yul\":4571:4580   */\n      dup6\n        /* \"#utility.yul\":4562:4569   */\n      dup8\n        /* \"#utility.yul\":4558:4581   */\n      sub\n        /* \"#utility.yul\":4554:4586   */\n      slt\n        /* \"#utility.yul\":4551:4603   */\n      iszero\n      tag_372\n      jumpi\n        /* \"#utility.yul\":4599:4600   */\n      0x00\n        /* \"#utility.yul\":4596:4597   */\n      dup1\n        /* \"#utility.yul\":4589:4601   */\n      revert\n        /* \"#utility.yul\":4551:4603   */\n    tag_372:\n        /* \"#utility.yul\":4638:4647   */\n      dup5\n        /* \"#utility.yul\":4625:4648   */\n      calldataload\n        /* \"#utility.yul\":4657:4688   */\n      tag_373\n        /* \"#utility.yul\":4682:4687   */\n      dup2\n        /* \"#utility.yul\":4657:4688   */\n      tag_330\n      jump\t// in\n    tag_373:\n        /* \"#utility.yul\":4707:4712   */\n      swap4\n      pop\n        /* \"#utility.yul\":4759:4761   */\n      0x20\n        /* \"#utility.yul\":4744:4762   */\n      dup6\n      add\n        /* \"#utility.yul\":4731:4763   */\n      calldataload\n      swap3\n      pop\n        /* \"#utility.yul\":4814:4816   */\n      0x40\n        /* \"#utility.yul\":4799:4817   */\n      dup6\n      add\n        /* \"#utility.yul\":4786:4818   */\n      calldataload\n        /* \"#utility.yul\":4837:4855   */\n      0xffffffffffffffff\n        /* \"#utility.yul\":4867:4881   */\n      dup1\n      dup3\n      gt\n        /* \"#utility.yul\":4864:4898   */\n      iszero\n      tag_374\n      jumpi\n        /* \"#utility.yul\":4894:4895   */\n      0x00\n        /* \"#utility.yul\":4891:4892   */\n      dup1\n        /* \"#utility.yul\":4884:4896   */\n      revert\n        /* \"#utility.yul\":4864:4898   */\n    tag_374:\n        /* \"#utility.yul\":4932:4938   */\n      dup2\n        /* \"#utility.yul\":4921:4930   */\n      dup8\n        /* \"#utility.yul\":4917:4939   */\n      add\n        /* \"#utility.yul\":4907:4939   */\n      swap2\n      pop\n        /* \"#utility.yul\":4977:4984   */\n      dup8\n        /* \"#utility.yul\":4970:4974   */\n      0x1f\n        /* \"#utility.yul\":4966:4968   */\n      dup4\n        /* \"#utility.yul\":4962:4975   */\n      add\n        /* \"#utility.yul\":4958:4985   */\n      slt\n        /* \"#utility.yul\":4948:5003   */\n      tag_375\n      jumpi\n        /* \"#utility.yul\":4999:5000   */\n      0x00\n        /* \"#utility.yul\":4996:4997   */\n      dup1\n        /* \"#utility.yul\":4989:5001   */\n      revert\n        /* \"#utility.yul\":4948:5003   */\n    tag_375:\n        /* \"#utility.yul\":5039:5041   */\n      dup2\n        /* \"#utility.yul\":5026:5042   */\n      calldataload\n        /* \"#utility.yul\":5065:5067   */\n      dup2\n        /* \"#utility.yul\":5057:5063   */\n      dup2\n        /* \"#utility.yul\":5054:5068   */\n      gt\n        /* \"#utility.yul\":5051:5085   */\n      iszero\n      tag_376\n      jumpi\n        /* \"#utility.yul\":5081:5082   */\n      0x00\n        /* \"#utility.yul\":5078:5079   */\n      dup1\n        /* \"#utility.yul\":5071:5083   */\n      revert\n        /* \"#utility.yul\":5051:5085   */\n    tag_376:\n        /* \"#utility.yul\":5126:5133   */\n      dup9\n        /* \"#utility.yul\":5121:5123   */\n      0x20\n        /* \"#utility.yul\":5112:5118   */\n      dup3\n        /* \"#utility.yul\":5108:5110   */\n      dup6\n        /* \"#utility.yul\":5104:5119   */\n      add\n        /* \"#utility.yul\":5100:5124   */\n      add\n        /* \"#utility.yul\":5097:5134   */\n      gt\n        /* \"#utility.yul\":5094:5151   */\n      iszero\n      tag_377\n      jumpi\n        /* \"#utility.yul\":5147:5148   */\n      0x00\n        /* \"#utility.yul\":5144:5145   */\n      dup1\n        /* \"#utility.yul\":5137:5149   */\n      revert\n        /* \"#utility.yul\":5094:5151   */\n    tag_377:\n        /* \"#utility.yul\":4418:5212   */\n      swap6\n      swap9\n      swap5\n      swap8\n      pop\n      pop\n        /* \"#utility.yul\":5178:5180   */\n      0x20\n        /* \"#utility.yul\":5170:5181   */\n      add\n      swap5\n      pop\n      pop\n      pop\n        /* \"#utility.yul\":4418:5212   */\n      jump\t// out\n        /* \"#utility.yul\":5565:5692   */\n    tag_86:\n        /* \"#utility.yul\":5626:5636   */\n      0x4e487b71\n        /* \"#utility.yul\":5621:5624   */\n      0xe0\n        /* \"#utility.yul\":5617:5637   */\n      shl\n        /* \"#utility.yul\":5614:5615   */\n      0x00\n        /* \"#utility.yul\":5607:5638   */\n      mstore\n        /* \"#utility.yul\":5657:5661   */\n      0x32\n        /* \"#utility.yul\":5654:5655   */\n      0x04\n        /* \"#utility.yul\":5647:5662   */\n      mstore\n        /* \"#utility.yul\":5681:5685   */\n      0x24\n        /* \"#utility.yul\":5678:5679   */\n      0x00\n        /* \"#utility.yul\":5671:5686   */\n      revert\n        /* \"#utility.yul\":5697:6218   */\n    tag_91:\n        /* \"#utility.yul\":5774:5778   */\n      0x00\n        /* \"#utility.yul\":5780:5786   */\n      dup1\n        /* \"#utility.yul\":5840:5851   */\n      dup4\n        /* \"#utility.yul\":5827:5852   */\n      calldataload\n        /* \"#utility.yul\":5934:5936   */\n      0x1e\n        /* \"#utility.yul\":5930:5937   */\n      not\n        /* \"#utility.yul\":5919:5927   */\n      dup5\n        /* \"#utility.yul\":5903:5917   */\n      calldatasize\n        /* \"#utility.yul\":5899:5928   */\n      sub\n        /* \"#utility.yul\":5895:5938   */\n      add\n        /* \"#utility.yul\":5875:5893   */\n      dup2\n        /* \"#utility.yul\":5871:5939   */\n      slt\n        /* \"#utility.yul\":5861:5957   */\n      tag_381\n      jumpi\n        /* \"#utility.yul\":5953:5954   */\n      0x00\n        /* \"#utility.yul\":5950:5951   */\n      dup1\n        /* \"#utility.yul\":5943:5955   */\n      revert\n        /* \"#utility.yul\":5861:5957   */\n    tag_381:\n        /* \"#utility.yul\":5980:6013   */\n      dup4\n      add\n        /* \"#utility.yul\":6032:6052   */\n      dup1\n      calldataload\n      swap2\n      pop\n        /* \"#utility.yul\":6075:6093   */\n      0xffffffffffffffff\n        /* \"#utility.yul\":6064:6094   */\n      dup3\n      gt\n        /* \"#utility.yul\":6061:6111   */\n      iszero\n      tag_382\n      jumpi\n        /* \"#utility.yul\":6107:6108   */\n      0x00\n        /* \"#utility.yul\":6104:6105   */\n      dup1\n        /* \"#utility.yul\":6097:6109   */\n      revert\n        /* \"#utility.yul\":6061:6111   */\n    tag_382:\n        /* \"#utility.yul\":6140:6144   */\n      0x20\n        /* \"#utility.yul\":6128:6145   */\n      add\n      swap2\n      pop\n        /* \"#utility.yul\":6171:6185   */\n      calldatasize\n        /* \"#utility.yul\":6167:6194   */\n      dup2\n      swap1\n      sub\n        /* \"#utility.yul\":6157:6195   */\n      dup3\n      sgt\n        /* \"#utility.yul\":6154:6212   */\n      iszero\n      tag_268\n      jumpi\n        /* \"#utility.yul\":6208:6209   */\n      0x00\n        /* \"#utility.yul\":6205:6206   */\n      dup1\n        /* \"#utility.yul\":6198:6210   */\n      revert\n        /* \"#utility.yul\":6223:6350   */\n    tag_331:\n        /* \"#utility.yul\":6284:6294   */\n      0x4e487b71\n        /* \"#utility.yul\":6279:6282   */\n      0xe0\n        /* \"#utility.yul\":6275:6295   */\n      shl\n        /* \"#utility.yul\":6272:6273   */\n      0x00\n        /* \"#utility.yul\":6265:6296   */\n      mstore\n        /* \"#utility.yul\":6315:6319   */\n      0x11\n        /* \"#utility.yul\":6312:6313   */\n      0x04\n        /* \"#utility.yul\":6305:6320   */\n      mstore\n        /* \"#utility.yul\":6339:6343   */\n      0x24\n        /* \"#utility.yul\":6336:6337   */\n      0x00\n        /* \"#utility.yul\":6329:6344   */\n      revert\n        /* \"#utility.yul\":6355:6490   */\n    tag_94:\n        /* \"#utility.yul\":6394:6397   */\n      0x00\n        /* \"#utility.yul\":6415:6432   */\n      0x01\n      dup3\n      add\n        /* \"#utility.yul\":6412:6455   */\n      tag_387\n      jumpi\n        /* \"#utility.yul\":6435:6453   */\n      tag_387\n      tag_331\n      jump\t// in\n    tag_387:\n      pop\n        /* \"#utility.yul\":6482:6483   */\n      0x01\n        /* \"#utility.yul\":6471:6484   */\n      add\n      swap1\n        /* \"#utility.yul\":6355:6490   */\n      jump\t// out\n        /* \"#utility.yul\":6495:6903   */\n    tag_98:\n        /* \"#utility.yul\":6697:6699   */\n      0x20\n        /* \"#utility.yul\":6679:6700   */\n      dup1\n      dup3\n      mstore\n        /* \"#utility.yul\":6736:6738   */\n      0x2c\n        /* \"#utility.yul\":6716:6734   */\n      swap1\n      dup3\n      add\n        /* \"#utility.yul\":6709:6739   */\n      mstore\n        /* \"#utility.yul\":6775:6809   */\n      0x46756e6374696f6e206d7573742062652063616c6c6564207468726f75676820\n        /* \"#utility.yul\":6770:6772   */\n      0x40\n        /* \"#utility.yul\":6755:6773   */\n      dup3\n      add\n        /* \"#utility.yul\":6748:6810   */\n      mstore\n      shl(0xa2, 0x19195b1959d85d1958d85b1b)\n        /* \"#utility.yul\":6841:6843   */\n      0x60\n        /* \"#utility.yul\":6826:6844   */\n      dup3\n      add\n        /* \"#utility.yul\":6819:6861   */\n      mstore\n        /* \"#utility.yul\":6893:6896   */\n      0x80\n        /* \"#utility.yul\":6878:6897   */\n      add\n      swap1\n        /* \"#utility.yul\":6495:6903   */\n      jump\t// out\n        /* \"#utility.yul\":6908:7316   */\n    tag_103:\n        /* \"#utility.yul\":7110:7112   */\n      0x20\n        /* \"#utility.yul\":7092:7113   */\n      dup1\n      dup3\n      mstore\n        /* \"#utility.yul\":7149:7151   */\n      0x2c\n        /* \"#utility.yul\":7129:7147   */\n      swap1\n      dup3\n      add\n        /* \"#utility.yul\":7122:7152   */\n      mstore\n        /* \"#utility.yul\":7188:7222   */\n      0x46756e6374696f6e206d7573742062652063616c6c6564207468726f75676820\n        /* \"#utility.yul\":7183:7185   */\n      0x40\n        /* \"#utility.yul\":7168:7186   */\n      dup3\n      add\n        /* \"#utility.yul\":7161:7223   */\n      mstore\n      shl(0xa0, 0x6163746976652070726f7879)\n        /* \"#utility.yul\":7254:7256   */\n      0x60\n        /* \"#utility.yul\":7239:7257   */\n      dup3\n      add\n        /* \"#utility.yul\":7232:7274   */\n      mstore\n        /* \"#utility.yul\":7306:7309   */\n      0x80\n        /* \"#utility.yul\":7291:7310   */\n      add\n      swap1\n        /* \"#utility.yul\":6908:7316   */\n      jump\t// out\n        /* \"#utility.yul\":8041:8225   */\n    tag_165:\n        /* \"#utility.yul\":8111:8117   */\n      0x00\n        /* \"#utility.yul\":8164:8166   */\n      0x20\n        /* \"#utility.yul\":8152:8161   */\n      dup3\n        /* \"#utility.yul\":8143:8150   */\n      dup5\n        /* \"#utility.yul\":8139:8162   */\n      sub\n        /* \"#utility.yul\":8135:8167   */\n      slt\n        /* \"#utility.yul\":8132:8184   */\n      iszero\n      tag_393\n      jumpi\n        /* \"#utility.yul\":8180:8181   */\n      0x00\n        /* \"#utility.yul\":8177:8178   */\n      dup1\n        /* \"#utility.yul\":8170:8182   */\n      revert\n        /* \"#utility.yul\":8132:8184   */\n    tag_393:\n      pop\n        /* \"#utility.yul\":8203:8219   */\n      mload\n      swap2\n        /* \"#utility.yul\":8041:8225   */\n      swap1\n      pop\n      jump\t// out\n        /* \"#utility.yul\":8591:8841   */\n    tag_332:\n        /* \"#utility.yul\":8676:8677   */\n      0x00\n        /* \"#utility.yul\":8686:8799   */\n    tag_396:\n        /* \"#utility.yul\":8700:8706   */\n      dup4\n        /* \"#utility.yul\":8697:8698   */\n      dup2\n        /* \"#utility.yul\":8694:8707   */\n      lt\n        /* \"#utility.yul\":8686:8799   */\n      iszero\n      tag_398\n      jumpi\n        /* \"#utility.yul\":8776:8787   */\n      dup2\n      dup2\n      add\n        /* \"#utility.yul\":8770:8788   */\n      mload\n        /* \"#utility.yul\":8757:8768   */\n      dup4\n      dup3\n      add\n        /* \"#utility.yul\":8750:8789   */\n      mstore\n        /* \"#utility.yul\":8722:8724   */\n      0x20\n        /* \"#utility.yul\":8715:8725   */\n      add\n        /* \"#utility.yul\":8686:8799   */\n      jump(tag_396)\n    tag_398:\n      pop\n      pop\n        /* \"#utility.yul\":8833:8834   */\n      0x00\n        /* \"#utility.yul\":8815:8831   */\n      swap2\n      add\n        /* \"#utility.yul\":8808:8835   */\n      mstore\n        /* \"#utility.yul\":8591:8841   */\n      jump\t// out\n        /* \"#utility.yul\":8846:9133   */\n    tag_174:\n        /* \"#utility.yul\":8975:8978   */\n      0x00\n        /* \"#utility.yul\":9013:9019   */\n      dup3\n        /* \"#utility.yul\":9007:9020   */\n      mload\n        /* \"#utility.yul\":9029:9095   */\n      tag_400\n        /* \"#utility.yul\":9088:9094   */\n      dup2\n        /* \"#utility.yul\":9083:9086   */\n      dup5\n        /* \"#utility.yul\":9076:9080   */\n      0x20\n        /* \"#utility.yul\":9068:9074   */\n      dup8\n        /* \"#utility.yul\":9064:9081   */\n      add\n        /* \"#utility.yul\":9029:9095   */\n      tag_332\n      jump\t// in\n    tag_400:\n        /* \"#utility.yul\":9111:9127   */\n      swap2\n      swap1\n      swap2\n      add\n      swap3\n        /* \"#utility.yul\":8846:9133   */\n      swap2\n      pop\n      pop\n      jump\t// out\n        /* \"#utility.yul\":10509:10726   */\n    tag_220:\n        /* \"#utility.yul\":10547:10550   */\n      0x00\n      sub(shl(0x60, 0x01), 0x01)\n        /* \"#utility.yul\":10636:10638   */\n      dup1\n        /* \"#utility.yul\":10629:10634   */\n      dup4\n        /* \"#utility.yul\":10625:10639   */\n      and\n        /* \"#utility.yul\":10663:10665   */\n      dup2\n        /* \"#utility.yul\":10654:10661   */\n      dup2\n        /* \"#utility.yul\":10651:10666   */\n      sub\n        /* \"#utility.yul\":10648:10689   */\n      tag_408\n      jumpi\n        /* \"#utility.yul\":10669:10687   */\n      tag_408\n      tag_331\n      jump\t// in\n    tag_408:\n        /* \"#utility.yul\":10718:10719   */\n      0x01\n        /* \"#utility.yul\":10705:10720   */\n      add\n      swap4\n        /* \"#utility.yul\":10509:10726   */\n      swap3\n      pop\n      pop\n      pop\n      jump\t// out\n        /* \"#utility.yul\":12045:12172   */\n    tag_272:\n        /* \"#utility.yul\":12106:12116   */\n      0x4e487b71\n        /* \"#utility.yul\":12101:12104   */\n      0xe0\n        /* \"#utility.yul\":12097:12117   */\n      shl\n        /* \"#utility.yul\":12094:12095   */\n      0x00\n        /* \"#utility.yul\":12087:12118   */\n      mstore\n        /* \"#utility.yul\":12137:12141   */\n      0x21\n        /* \"#utility.yul\":12134:12135   */\n      0x04\n        /* \"#utility.yul\":12127:12142   */\n      mstore\n        /* \"#utility.yul\":12161:12165   */\n      0x24\n        /* \"#utility.yul\":12158:12159   */\n      0x00\n        /* \"#utility.yul\":12151:12166   */\n      revert\n        /* \"#utility.yul\":14054:14450   */\n    tag_328:\n        /* \"#utility.yul\":14203:14205   */\n      0x20\n        /* \"#utility.yul\":14192:14201   */\n      dup2\n        /* \"#utility.yul\":14185:14206   */\n      mstore\n        /* \"#utility.yul\":14166:14170   */\n      0x00\n        /* \"#utility.yul\":14235:14241   */\n      dup3\n        /* \"#utility.yul\":14229:14242   */\n      mload\n        /* \"#utility.yul\":14278:14284   */\n      dup1\n        /* \"#utility.yul\":14273:14275   */\n      0x20\n        /* \"#utility.yul\":14262:14271   */\n      dup5\n        /* \"#utility.yul\":14258:14276   */\n      add\n        /* \"#utility.yul\":14251:14285   */\n      mstore\n        /* \"#utility.yul\":14294:14373   */\n      tag_420\n        /* \"#utility.yul\":14366:14372   */\n      dup2\n        /* \"#utility.yul\":14361:14363   */\n      0x40\n        /* \"#utility.yul\":14350:14359   */\n      dup6\n        /* \"#utility.yul\":14346:14364   */\n      add\n        /* \"#utility.yul\":14341:14343   */\n      0x20\n        /* \"#utility.yul\":14333:14339   */\n      dup8\n        /* \"#utility.yul\":14329:14344   */\n      add\n        /* \"#utility.yul\":14294:14373   */\n      tag_332\n      jump\t// in\n    tag_420:\n        /* \"#utility.yul\":14434:14436   */\n      0x1f\n        /* \"#utility.yul\":14413:14428   */\n      add\n      not(0x1f)\n        /* \"#utility.yul\":14409:14438   */\n      and\n        /* \"#utility.yul\":14394:14439   */\n      swap2\n      swap1\n      swap2\n      add\n        /* \"#utility.yul\":14441:14443   */\n      0x40\n        /* \"#utility.yul\":14390:14444   */\n      add\n      swap3\n        /* \"#utility.yul\":14054:14450   */\n      swap2\n      pop\n      pop\n      jump\t// out\n    stop\n    data_75b20eef8615de99c108b05f0dbda081c91897128caa336d75dffb97c4132b4d 360894a13ba1a3210667c828492db98dca3e2076cc3735a920a3ca505d382bbc\n    data_9fdcd12e4b726339b32a442b0a448365d5d85c96b2d2cff917b4f66c63110398 416464726573733a206c6f772d6c6576656c2064656c65676174652063616c6c206661696c6564\n\n    auxdata: 0xa26469706673582212202154b4176d2304b2215efb5ab15c41090e2fcd5e39f6aacd02536b8074aa67c564736f6c63430008110033\n}\n",
				"bytecode": {
					"linkReferences": {},
					"object": "60c06040523060805234801561001457600080fd5b5060405161177838038061177883398101604081905261003391610044565b6001600160a01b031660a052610074565b60006020828403121561005657600080fd5b81516001600160a01b038116811461006d57600080fd5b9392505050565b60805160a0516116a06100d8600039600081816101e801528181610467015281816104e801528181610745015281816107de0152610a5c01526000818161034b0152818161038b01528181610579015281816105b9015261064c01526116a06000f3fe6080604052600436106100ab5760003560e01c806352d1902d1161006457806352d1902d146101675780638da5cb5b1461017c578063affed0e0146101bb578063b0d691fe146101d9578063b61d27f61461020c578063c399ec881461022c57600080fd5b806318dfb3c7146100b75780633659cfe6146100d95780633a871cdd146100f95780634a58db191461012c5780634d44560d146101345780634f1ef2861461015457600080fd5b366100b257005b600080fd5b3480156100c357600080fd5b506100d76100d23660046111b6565b610241565b005b3480156100e557600080fd5b506100d76100f4366004611237565b610341565b34801561010557600080fd5b50610119610114366004611254565b610420565b6040519081526020015b60405180910390f35b6100d7610465565b34801561014057600080fd5b506100d761014f3660046112a8565b6104de565b6100d76101623660046112ea565b61056f565b34801561017357600080fd5b5061011961063f565b34801561018857600080fd5b506001546101a390600160601b90046001600160a01b031681565b6040516001600160a01b039091168152602001610123565b3480156101c757600080fd5b506001546001600160601b0316610119565b3480156101e557600080fd5b507f00000000000000000000000000000000000000000000000000000000000000006101a3565b34801561021857600080fd5b506100d76102273660046113ae565b6106f2565b34801561023857600080fd5b50610119610741565b6102496107d3565b8281146102935760405162461bcd60e51b815260206004820152601360248201527277726f6e67206172726179206c656e6774687360681b60448201526064015b60405180910390fd5b60005b8381101561033a576103288585838181106102b3576102b3611437565b90506020020160208101906102c89190611237565b60008585858181106102dc576102dc611437565b90506020028101906102ee919061144d565b8080601f01602080910402602001604051908101604052809392919081815260200183838082843760009201919091525061086992505050565b80610332816114aa565b915050610296565b5050505050565b6001600160a01b037f00000000000000000000000000000000000000000000000000000000000000001630036103895760405162461bcd60e51b815260040161028a906114c3565b7f00000000000000000000000000000000000000000000000000000000000000006001600160a01b03166103d2600080516020611624833981519152546001600160a01b031690565b6001600160a01b0316146103f85760405162461bcd60e51b815260040161028a9061150f565b610401816108d9565b6040805160008082526020820190925261041d918391906108e1565b50565b600061042a610a51565b6104348484610ac9565b9050610443604085018561144d565b90506000036104555761045584610b78565b61045e82610c0c565b9392505050565b7f000000000000000000000000000000000000000000000000000000000000000060405163b760faf960e01b81523060048201526001600160a01b03919091169063b760faf99034906024016000604051808303818588803b1580156104ca57600080fd5b505af115801561033a573d6000803e3d6000fd5b6104e6610c59565b7f000000000000000000000000000000000000000000000000000000000000000060405163040b850f60e31b81526001600160a01b03848116600483015260248201849052919091169063205c287890604401600060405180830381600087803b15801561055357600080fd5b505af1158015610567573d6000803e3d6000fd5b505050505050565b6001600160a01b037f00000000000000000000000000000000000000000000000000000000000000001630036105b75760405162461bcd60e51b815260040161028a906114c3565b7f00000000000000000000000000000000000000000000000000000000000000006001600160a01b0316610600600080516020611624833981519152546001600160a01b031690565b6001600160a01b0316146106265760405162461bcd60e51b815260040161028a9061150f565b61062f826108d9565b61063b828260016108e1565b5050565b6000306001600160a01b037f000000000000000000000000000000000000000000000000000000000000000016146106df5760405162461bcd60e51b815260206004820152603860248201527f555550535570677261646561626c653a206d757374206e6f742062652063616c60448201527f6c6564207468726f7567682064656c656761746563616c6c0000000000000000606482015260840161028a565b5060008051602061162483398151915290565b6106fa6107d3565b61073b848484848080601f01602080910402602001604051908101604052809392919081815260200183838082843760009201919091525061086992505050565b50505050565b60007f00000000000000000000000000000000000000000000000000000000000000006040516370a0823160e01b81523060048201526001600160a01b0391909116906370a0823190602401602060405180830381865afa1580156107aa573d6000803e3d6000fd5b505050506040513d601f19601f820116820180604052508101906107ce919061155b565b905090565b336001600160a01b037f000000000000000000000000000000000000000000000000000000000000000016148061081b5750600154600160601b90046001600160a01b031633145b6108675760405162461bcd60e51b815260206004820181905260248201527f6163636f756e743a206e6f74204f776e6572206f7220456e747279506f696e74604482015260640161028a565b565b600080846001600160a01b031684846040516108859190611598565b60006040518083038185875af1925050503d80600081146108c2576040519150601f19603f3d011682016040523d82523d6000602084013e6108c7565b606091505b50915091508161033a57805160208201fd5b61041d610c59565b7f4910fdfa16fed3260ed0e7147f7cc6da11a60208b5b9406d12a635614ffd91435460ff16156109195761091483610cb1565b505050565b826001600160a01b03166352d1902d6040518163ffffffff1660e01b8152600401602060405180830381865afa925050508015610973575060408051601f3d908101601f191682019092526109709181019061155b565b60015b6109d65760405162461bcd60e51b815260206004820152602e60248201527f45524331393637557067726164653a206e657720696d706c656d656e7461746960448201526d6f6e206973206e6f74205555505360901b606482015260840161028a565b6000805160206116248339815191528114610a455760405162461bcd60e51b815260206004820152602960248201527f45524331393637557067726164653a20756e737570706f727465642070726f786044820152681a58589b195555525160ba1b606482015260840161028a565b50610914838383610d4d565b336001600160a01b037f000000000000000000000000000000000000000000000000000000000000000016146108675760405162461bcd60e51b815260206004820152601c60248201527f6163636f756e743a206e6f742066726f6d20456e747279506f696e7400000000604482015260640161028a565b7f19457468657265756d205369676e6564204d6573736167653a0a3332000000006000908152601c829052603c8120610b46610b0961014086018661144d565b8080601f0160208091040260200160405190810160405280939291908181526020018383808284376000920191909152508593925050610d729050565b600154600160601b90046001600160a01b03908116911614610b6c576001915050610b72565b60009150505b92915050565b600180546020830135916001600160601b03909116906000610b99836115b4565b91906101000a8154816001600160601b0302191690836001600160601b031602179055506001600160601b03161461041d5760405162461bcd60e51b81526020600482015260166024820152756163636f756e743a20696e76616c6964206e6f6e636560501b604482015260640161028a565b801561041d57604051600090339060001990849084818181858888f193505050503d806000811461033a576040519150601f19603f3d011682016040523d82523d6000602084013e61033a565b600154600160601b90046001600160a01b0316331480610c7857503330145b6108675760405162461bcd60e51b815260206004820152600a60248201526937b7363c9037bbb732b960b11b604482015260640161028a565b6001600160a01b0381163b610d1e5760405162461bcd60e51b815260206004820152602d60248201527f455243313936373a206e657720696d706c656d656e746174696f6e206973206e60448201526c1bdd08184818dbdb9d1c9858dd609a1b606482015260840161028a565b60008051602061162483398151915280546001600160a01b0319166001600160a01b0392909216919091179055565b610d5683610d96565b600082511180610d635750805b156109145761073b8383610dd6565b6000806000610d818585610dfb565b91509150610d8e81610e40565b509392505050565b610d9f81610cb1565b6040516001600160a01b038216907fbc7cd75a20ee27fd9adebab32041f755214dbc6bffa90cc0225b39da2e5c2d3b90600090a250565b606061045e838360405180606001604052806027815260200161164460279139610f8a565b6000808251604103610e315760208301516040840151606085015160001a610e2587828585611002565b94509450505050610e39565b506000905060025b9250929050565b6000816004811115610e5457610e546115da565b03610e5c5750565b6001816004811115610e7057610e706115da565b03610ebd5760405162461bcd60e51b815260206004820152601860248201527f45434453413a20696e76616c6964207369676e61747572650000000000000000604482015260640161028a565b6002816004811115610ed157610ed16115da565b03610f1e5760405162461bcd60e51b815260206004820152601f60248201527f45434453413a20696e76616c6964207369676e6174757265206c656e67746800604482015260640161028a565b6003816004811115610f3257610f326115da565b0361041d5760405162461bcd60e51b815260206004820152602260248201527f45434453413a20696e76616c6964207369676e6174757265202773272076616c604482015261756560f01b606482015260840161028a565b6060600080856001600160a01b031685604051610fa79190611598565b600060405180830381855af49150503d8060008114610fe2576040519150601f19603f3d011682016040523d82523d6000602084013e610fe7565b606091505b5091509150610ff8868383876110c6565b9695505050505050565b6000807f7fffffffffffffffffffffffffffffff5d576e7357a4501ddfe92f46681b20a083111561103957506000905060036110bd565b6040805160008082526020820180845289905260ff881692820192909252606081018690526080810185905260019060a0016020604051602081039080840390855afa15801561108d573d6000803e3d6000fd5b5050604051601f1901519150506001600160a01b0381166110b6576000600192509250506110bd565b9150600090505b94509492505050565b6060831561113557825160000361112e576001600160a01b0385163b61112e5760405162461bcd60e51b815260206004820152601d60248201527f416464726573733a2063616c6c20746f206e6f6e2d636f6e7472616374000000604482015260640161028a565b508161113f565b61113f8383611147565b949350505050565b8151156111575781518083602001fd5b8060405162461bcd60e51b815260040161028a91906115f0565b60008083601f84011261118357600080fd5b50813567ffffffffffffffff81111561119b57600080fd5b6020830191508360208260051b8501011115610e3957600080fd5b600080600080604085870312156111cc57600080fd5b843567ffffffffffffffff808211156111e457600080fd5b6111f088838901611171565b9096509450602087013591508082111561120957600080fd5b5061121687828801611171565b95989497509550505050565b6001600160a01b038116811461041d57600080fd5b60006020828403121561124957600080fd5b813561045e81611222565b60008060006060848603121561126957600080fd5b833567ffffffffffffffff81111561128057600080fd5b8401610160818703121561129357600080fd5b95602085013595506040909401359392505050565b600080604083850312156112bb57600080fd5b82356112c681611222565b946020939093013593505050565b634e487b7160e01b600052604160045260246000fd5b600080604083850312156112fd57600080fd5b823561130881611222565b9150602083013567ffffffffffffffff8082111561132557600080fd5b818501915085601f83011261133957600080fd5b81358181111561134b5761134b6112d4565b604051601f8201601f19908116603f01168101908382118183101715611373576113736112d4565b8160405282815288602084870101111561138c57600080fd5b8260208601602083013760006020848301015280955050505050509250929050565b600080600080606085870312156113c457600080fd5b84356113cf81611222565b935060208501359250604085013567ffffffffffffffff808211156113f357600080fd5b818701915087601f83011261140757600080fd5b81358181111561141657600080fd5b88602082850101111561142857600080fd5b95989497505060200194505050565b634e487b7160e01b600052603260045260246000fd5b6000808335601e1984360301811261146457600080fd5b83018035915067ffffffffffffffff82111561147f57600080fd5b602001915036819003821315610e3957600080fd5b634e487b7160e01b600052601160045260246000fd5b6000600182016114bc576114bc611494565b5060010190565b6020808252602c908201527f46756e6374696f6e206d7573742062652063616c6c6564207468726f7567682060408201526b19195b1959d85d1958d85b1b60a21b606082015260800190565b6020808252602c908201527f46756e6374696f6e206d7573742062652063616c6c6564207468726f7567682060408201526b6163746976652070726f787960a01b606082015260800190565b60006020828403121561156d57600080fd5b5051919050565b60005b8381101561158f578181015183820152602001611577565b50506000910152565b600082516115aa818460208701611574565b9190910192915050565b60006001600160601b038083168181036115d0576115d0611494565b6001019392505050565b634e487b7160e01b600052602160045260246000fd5b602081526000825180602084015261160f816040850160208701611574565b601f01601f1916919091016040019291505056fe360894a13ba1a3210667c828492db98dca3e2076cc3735a920a3ca505d382bbc416464726573733a206c6f772d6c6576656c2064656c65676174652063616c6c206661696c6564a26469706673582212202154b4176d2304b2215efb5ab15c41090e2fcd5e39f6aacd02536b8074aa67c564736f6c63430008110033",
					"opcodes": "PUSH1 0xC0 PUSH1 0x40 MSTORE ADDRESS PUSH1 0x80 MSTORE CALLVALUE DUP1 ISZERO PUSH2 0x14 JUMPI PUSH1 0x0 DUP1 REVERT JUMPDEST POP PUSH1 0x40 MLOAD PUSH2 0x1778 CODESIZE SUB DUP1 PUSH2 0x1778 DUP4 CODECOPY DUP2 ADD PUSH1 0x40 DUP2 SWAP1 MSTORE PUSH2 0x33 SWAP2 PUSH2 0x44 JUMP JUMPDEST PUSH1 0x1 PUSH1 0x1 PUSH1 0xA0 SHL SUB AND PUSH1 0xA0 MSTORE PUSH2 0x74 JUMP JUMPDEST PUSH1 0x0 PUSH1 0x20 DUP3 DUP5 SUB SLT ISZERO PUSH2 0x56 JUMPI PUSH1 0x0 DUP1 REVERT JUMPDEST DUP2 MLOAD PUSH1 0x1 PUSH1 0x1 PUSH1 0xA0 SHL SUB DUP2 AND DUP2 EQ PUSH2 0x6D JUMPI PUSH1 0x0 DUP1 REVERT JUMPDEST SWAP4 SWAP3 POP POP POP JUMP JUMPDEST PUSH1 0x80 MLOAD PUSH1 0xA0 MLOAD PUSH2 0x16A0 PUSH2 0xD8 PUSH1 0x0 CODECOPY PUSH1 0x0 DUP2 DUP2 PUSH2 0x1E8 ADD MSTORE DUP2 DUP2 PUSH2 0x467 ADD MSTORE DUP2 DUP2 PUSH2 0x4E8 ADD MSTORE DUP2 DUP2 PUSH2 0x745 ADD MSTORE DUP2 DUP2 PUSH2 0x7DE ADD MSTORE PUSH2 0xA5C ADD MSTORE PUSH1 0x0 DUP2 DUP2 PUSH2 0x34B ADD MSTORE DUP2 DUP2 PUSH2 0x38B ADD MSTORE DUP2 DUP2 PUSH2 0x579 ADD MSTORE DUP2 DUP2 PUSH2 0x5B9 ADD MSTORE PUSH2 0x64C ADD MSTORE PUSH2 0x16A0 PUSH1 0x0 RETURN INVALID PUSH1 0x80 PUSH1 0x40 MSTORE PUSH1 0x4 CALLDATASIZE LT PUSH2 0xAB JUMPI PUSH1 0x0 CALLDATALOAD PUSH1 0xE0 SHR DUP1 PUSH4 0x52D1902D GT PUSH2 0x64 JUMPI DUP1 PUSH4 0x52D1902D EQ PUSH2 0x167 JUMPI DUP1 PUSH4 0x8DA5CB5B EQ PUSH2 0x17C JUMPI DUP1 PUSH4 0xAFFED0E0 EQ PUSH2 0x1BB JUMPI DUP1 PUSH4 0xB0D691FE EQ PUSH2 0x1D9 JUMPI DUP1 PUSH4 0xB61D27F6 EQ PUSH2 0x20C JUMPI DUP1 PUSH4 0xC399EC88 EQ PUSH2 0x22C JUMPI PUSH1 0x0 DUP1 REVERT JUMPDEST DUP1 PUSH4 0x18DFB3C7 EQ PUSH2 0xB7 JUMPI DUP1 PUSH4 0x3659CFE6 EQ PUSH2 0xD9 JUMPI DUP1 PUSH4 0x3A871CDD EQ PUSH2 0xF9 JUMPI DUP1 PUSH4 0x4A58DB19 EQ PUSH2 0x12C JUMPI DUP1 PUSH4 0x4D44560D EQ PUSH2 0x134 JUMPI DUP1 PUSH4 0x4F1EF286 EQ PUSH2 0x154 JUMPI PUSH1 0x0 DUP1 REVERT JUMPDEST CALLDATASIZE PUSH2 0xB2 JUMPI STOP JUMPDEST PUSH1 0x0 DUP1 REVERT JUMPDEST CALLVALUE DUP1 ISZERO PUSH2 0xC3 JUMPI PUSH1 0x0 DUP1 REVERT JUMPDEST POP PUSH2 0xD7 PUSH2 0xD2 CALLDATASIZE PUSH1 0x4 PUSH2 0x11B6 JUMP JUMPDEST PUSH2 0x241 JUMP JUMPDEST STOP JUMPDEST CALLVALUE DUP1 ISZERO PUSH2 0xE5 JUMPI PUSH1 0x0 DUP1 REVERT JUMPDEST POP PUSH2 0xD7 PUSH2 0xF4 CALLDATASIZE PUSH1 0x4 PUSH2 0x1237 JUMP JUMPDEST PUSH2 0x341 JUMP JUMPDEST CALLVALUE DUP1 ISZERO PUSH2 0x105 JUMPI PUSH1 0x0 DUP1 REVERT JUMPDEST POP PUSH2 0x119 PUSH2 0x114 CALLDATASIZE PUSH1 0x4 PUSH2 0x1254 JUMP JUMPDEST PUSH2 0x420 JUMP JUMPDEST PUSH1 0x40 MLOAD SWAP1 DUP2 MSTORE PUSH1 0x20 ADD JUMPDEST PUSH1 0x40 MLOAD DUP1 SWAP2 SUB SWAP1 RETURN JUMPDEST PUSH2 0xD7 PUSH2 0x465 JUMP JUMPDEST CALLVALUE DUP1 ISZERO PUSH2 0x140 JUMPI PUSH1 0x0 DUP1 REVERT JUMPDEST POP PUSH2 0xD7 PUSH2 0x14F CALLDATASIZE PUSH1 0x4 PUSH2 0x12A8 JUMP JUMPDEST PUSH2 0x4DE JUMP JUMPDEST PUSH2 0xD7 PUSH2 0x162 CALLDATASIZE PUSH1 0x4 PUSH2 0x12EA JUMP JUMPDEST PUSH2 0x56F JUMP JUMPDEST CALLVALUE DUP1 ISZERO PUSH2 0x173 JUMPI PUSH1 0x0 DUP1 REVERT JUMPDEST POP PUSH2 0x119 PUSH2 0x63F JUMP JUMPDEST CALLVALUE DUP1 ISZERO PUSH2 0x188 JUMPI PUSH1 0x0 DUP1 REVERT JUMPDEST POP PUSH1 0x1 SLOAD PUSH2 0x1A3 SWAP1 PUSH1 0x1 PUSH1 0x60 SHL SWAP1 DIV PUSH1 0x1 PUSH1 0x1 PUSH1 0xA0 SHL SUB AND DUP2 JUMP JUMPDEST PUSH1 0x40 MLOAD PUSH1 0x1 PUSH1 0x1 PUSH1 0xA0 SHL SUB SWAP1 SWAP2 AND DUP2 MSTORE PUSH1 0x20 ADD PUSH2 0x123 JUMP JUMPDEST CALLVALUE DUP1 ISZERO PUSH2 0x1C7 JUMPI PUSH1 0x0 DUP1 REVERT JUMPDEST POP PUSH1 0x1 SLOAD PUSH1 0x1 PUSH1 0x1 PUSH1 0x60 SHL SUB AND PUSH2 0x119 JUMP JUMPDEST CALLVALUE DUP1 ISZERO PUSH2 0x1E5 JUMPI PUSH1 0x0 DUP1 REVERT JUMPDEST POP PUSH32 0x0 PUSH2 0x1A3 JUMP JUMPDEST CALLVALUE DUP1 ISZERO PUSH2 0x218 JUMPI PUSH1 0x0 DUP1 REVERT JUMPDEST POP PUSH2 0xD7 PUSH2 0x227 CALLDATASIZE PUSH1 0x4 PUSH2 0x13AE JUMP JUMPDEST PUSH2 0x6F2 JUMP JUMPDEST CALLVALUE DUP1 ISZERO PUSH2 0x238 JUMPI PUSH1 0x0 DUP1 REVERT JUMPDEST POP PUSH2 0x119 PUSH2 0x741 JUMP JUMPDEST PUSH2 0x249 PUSH2 0x7D3 JUMP JUMPDEST DUP3 DUP2 EQ PUSH2 0x293 JUMPI PUSH1 0x40 MLOAD PUSH3 0x461BCD PUSH1 0xE5 SHL DUP2 MSTORE PUSH1 0x20 PUSH1 0x4 DUP3 ADD MSTORE PUSH1 0x13 PUSH1 0x24 DUP3 ADD MSTORE PUSH19 0x77726F6E67206172726179206C656E67746873 PUSH1 0x68 SHL PUSH1 0x44 DUP3 ADD MSTORE PUSH1 0x64 ADD JUMPDEST PUSH1 0x40 MLOAD DUP1 SWAP2 SUB SWAP1 REVERT JUMPDEST PUSH1 0x0 JUMPDEST DUP4 DUP2 LT ISZERO PUSH2 0x33A JUMPI PUSH2 0x328 DUP6 DUP6 DUP4 DUP2 DUP2 LT PUSH2 0x2B3 JUMPI PUSH2 0x2B3 PUSH2 0x1437 JUMP JUMPDEST SWAP1 POP PUSH1 0x20 MUL ADD PUSH1 0x20 DUP2 ADD SWAP1 PUSH2 0x2C8 SWAP2 SWAP1 PUSH2 0x1237 JUMP JUMPDEST PUSH1 0x0 DUP6 DUP6 DUP6 DUP2 DUP2 LT PUSH2 0x2DC JUMPI PUSH2 0x2DC PUSH2 0x1437 JUMP JUMPDEST SWAP1 POP PUSH1 0x20 MUL DUP2 ADD SWAP1 PUSH2 0x2EE SWAP2 SWAP1 PUSH2 0x144D JUMP JUMPDEST DUP1 DUP1 PUSH1 0x1F ADD PUSH1 0x20 DUP1 SWAP2 DIV MUL PUSH1 0x20 ADD PUSH1 0x40 MLOAD SWAP1 DUP2 ADD PUSH1 0x40 MSTORE DUP1 SWAP4 SWAP3 SWAP2 SWAP1 DUP2 DUP2 MSTORE PUSH1 0x20 ADD DUP4 DUP4 DUP1 DUP3 DUP5 CALLDATACOPY PUSH1 0x0 SWAP3 ADD SWAP2 SWAP1 SWAP2 MSTORE POP PUSH2 0x869 SWAP3 POP POP POP JUMP JUMPDEST DUP1 PUSH2 0x332 DUP2 PUSH2 0x14AA JUMP JUMPDEST SWAP2 POP POP PUSH2 0x296 JUMP JUMPDEST POP POP POP POP POP JUMP JUMPDEST PUSH1 0x1 PUSH1 0x1 PUSH1 0xA0 SHL SUB PUSH32 0x0 AND ADDRESS SUB PUSH2 0x389 JUMPI PUSH1 0x40 MLOAD PUSH3 0x461BCD PUSH1 0xE5 SHL DUP2 MSTORE PUSH1 0x4 ADD PUSH2 0x28A SWAP1 PUSH2 0x14C3 JUMP JUMPDEST PUSH32 0x0 PUSH1 0x1 PUSH1 0x1 PUSH1 0xA0 SHL SUB AND PUSH2 0x3D2 PUSH1 0x0 DUP1 MLOAD PUSH1 0x20 PUSH2 0x1624 DUP4 CODECOPY DUP2 MLOAD SWAP2 MSTORE SLOAD PUSH1 0x1 PUSH1 0x1 PUSH1 0xA0 SHL SUB AND SWAP1 JUMP JUMPDEST PUSH1 0x1 PUSH1 0x1 PUSH1 0xA0 SHL SUB AND EQ PUSH2 0x3F8 JUMPI PUSH1 0x40 MLOAD PUSH3 0x461BCD PUSH1 0xE5 SHL DUP2 MSTORE PUSH1 0x4 ADD PUSH2 0x28A SWAP1 PUSH2 0x150F JUMP JUMPDEST PUSH2 0x401 DUP2 PUSH2 0x8D9 JUMP JUMPDEST PUSH1 0x40 DUP1 MLOAD PUSH1 0x0 DUP1 DUP3 MSTORE PUSH1 0x20 DUP3 ADD SWAP1 SWAP3 MSTORE PUSH2 0x41D SWAP2 DUP4 SWAP2 SWAP1 PUSH2 0x8E1 JUMP JUMPDEST POP JUMP JUMPDEST PUSH1 0x0 PUSH2 0x42A PUSH2 0xA51 JUMP JUMPDEST PUSH2 0x434 DUP5 DUP5 PUSH2 0xAC9 JUMP JUMPDEST SWAP1 POP PUSH2 0x443 PUSH1 0x40 DUP6 ADD DUP6 PUSH2 0x144D JUMP JUMPDEST SWAP1 POP PUSH1 0x0 SUB PUSH2 0x455 JUMPI PUSH2 0x455 DUP5 PUSH2 0xB78 JUMP JUMPDEST PUSH2 0x45E DUP3 PUSH2 0xC0C JUMP JUMPDEST SWAP4 SWAP3 POP POP POP JUMP JUMPDEST PUSH32 0x0 PUSH1 0x40 MLOAD PUSH4 0xB760FAF9 PUSH1 0xE0 SHL DUP2 MSTORE ADDRESS PUSH1 0x4 DUP3 ADD MSTORE PUSH1 0x1 PUSH1 0x1 PUSH1 0xA0 SHL SUB SWAP2 SWAP1 SWAP2 AND SWAP1 PUSH4 0xB760FAF9 SWAP1 CALLVALUE SWAP1 PUSH1 0x24 ADD PUSH1 0x0 PUSH1 0x40 MLOAD DUP1 DUP4 SUB DUP2 DUP6 DUP9 DUP1 EXTCODESIZE ISZERO DUP1 ISZERO PUSH2 0x4CA JUMPI PUSH1 0x0 DUP1 REVERT JUMPDEST POP GAS CALL ISZERO DUP1 ISZERO PUSH2 0x33A JUMPI RETURNDATASIZE PUSH1 0x0 DUP1 RETURNDATACOPY RETURNDATASIZE PUSH1 0x0 REVERT JUMPDEST PUSH2 0x4E6 PUSH2 0xC59 JUMP JUMPDEST PUSH32 0x0 PUSH1 0x40 MLOAD PUSH4 0x40B850F PUSH1 0xE3 SHL DUP2 MSTORE PUSH1 0x1 PUSH1 0x1 PUSH1 0xA0 SHL SUB DUP5 DUP2 AND PUSH1 0x4 DUP4 ADD MSTORE PUSH1 0x24 DUP3 ADD DUP5 SWAP1 MSTORE SWAP2 SWAP1 SWAP2 AND SWAP1 PUSH4 0x205C2878 SWAP1 PUSH1 0x44 ADD PUSH1 0x0 PUSH1 0x40 MLOAD DUP1 DUP4 SUB DUP2 PUSH1 0x0 DUP8 DUP1 EXTCODESIZE ISZERO DUP1 ISZERO PUSH2 0x553 JUMPI PUSH1 0x0 DUP1 REVERT JUMPDEST POP GAS CALL ISZERO DUP1 ISZERO PUSH2 0x567 JUMPI RETURNDATASIZE PUSH1 0x0 DUP1 RETURNDATACOPY RETURNDATASIZE PUSH1 0x0 REVERT JUMPDEST POP POP POP POP POP POP JUMP JUMPDEST PUSH1 0x1 PUSH1 0x1 PUSH1 0xA0 SHL SUB PUSH32 0x0 AND ADDRESS SUB PUSH2 0x5B7 JUMPI PUSH1 0x40 MLOAD PUSH3 0x461BCD PUSH1 0xE5 SHL DUP2 MSTORE PUSH1 0x4 ADD PUSH2 0x28A SWAP1 PUSH2 0x14C3 JUMP JUMPDEST PUSH32 0x0 PUSH1 0x1 PUSH1 0x1 PUSH1 0xA0 SHL SUB AND PUSH2 0x600 PUSH1 0x0 DUP1 MLOAD PUSH1 0x20 PUSH2 0x1624 DUP4 CODECOPY DUP2 MLOAD SWAP2 MSTORE SLOAD PUSH1 0x1 PUSH1 0x1 PUSH1 0xA0 SHL SUB AND SWAP1 JUMP JUMPDEST PUSH1 0x1 PUSH1 0x1 PUSH1 0xA0 SHL SUB AND EQ PUSH2 0x626 JUMPI PUSH1 0x40 MLOAD PUSH3 0x461BCD PUSH1 0xE5 SHL DUP2 MSTORE PUSH1 0x4 ADD PUSH2 0x28A SWAP1 PUSH2 0x150F JUMP JUMPDEST PUSH2 0x62F DUP3 PUSH2 0x8D9 JUMP JUMPDEST PUSH2 0x63B DUP3 DUP3 PUSH1 0x1 PUSH2 0x8E1 JUMP JUMPDEST POP POP JUMP JUMPDEST PUSH1 0x0 ADDRESS PUSH1 0x1 PUSH1 0x1 PUSH1 0xA0 SHL SUB PUSH32 0x0 AND EQ PUSH2 0x6DF JUMPI PUSH1 0x40 MLOAD PUSH3 0x461BCD PUSH1 0xE5 SHL DUP2 MSTORE PUSH1 0x20 PUSH1 0x4 DUP3 ADD MSTORE PUSH1 0x38 PUSH1 0x24 DUP3 ADD MSTORE PUSH32 0x555550535570677261646561626C653A206D757374206E6F742062652063616C PUSH1 0x44 DUP3 ADD MSTORE PUSH32 0x6C6564207468726F7567682064656C656761746563616C6C0000000000000000 PUSH1 0x64 DUP3 ADD MSTORE PUSH1 0x84 ADD PUSH2 0x28A JUMP JUMPDEST POP PUSH1 0x0 DUP1 MLOAD PUSH1 0x20 PUSH2 0x1624 DUP4 CODECOPY DUP2 MLOAD SWAP2 MSTORE SWAP1 JUMP JUMPDEST PUSH2 0x6FA PUSH2 0x7D3 JUMP JUMPDEST PUSH2 0x73B DUP5 DUP5 DUP5 DUP5 DUP1 DUP1 PUSH1 0x1F ADD PUSH1 0x20 DUP1 SWAP2 DIV MUL PUSH1 0x20 ADD PUSH1 0x40 MLOAD SWAP1 DUP2 ADD PUSH1 0x40 MSTORE DUP1 SWAP4 SWAP3 SWAP2 SWAP1 DUP2 DUP2 MSTORE PUSH1 0x20 ADD DUP4 DUP4 DUP1 DUP3 DUP5 CALLDATACOPY PUSH1 0x0 SWAP3 ADD SWAP2 SWAP1 SWAP2 MSTORE POP PUSH2 0x869 SWAP3 POP POP POP JUMP JUMPDEST POP POP POP POP JUMP JUMPDEST PUSH1 0x0 PUSH32 0x0 PUSH1 0x40 MLOAD PUSH4 0x70A08231 PUSH1 0xE0 SHL DUP2 MSTORE ADDRESS PUSH1 0x4 DUP3 ADD MSTORE PUSH1 0x1 PUSH1 0x1 PUSH1 0xA0 SHL SUB SWAP2 SWAP1 SWAP2 AND SWAP1 PUSH4 0x70A08231 SWAP1 PUSH1 0x24 ADD PUSH1 0x20 PUSH1 0x40 MLOAD DUP1 DUP4 SUB DUP2 DUP7 GAS STATICCALL ISZERO DUP1 ISZERO PUSH2 0x7AA JUMPI RETURNDATASIZE PUSH1 0x0 DUP1 RETURNDATACOPY RETURNDATASIZE PUSH1 0x0 REVERT JUMPDEST POP POP POP POP PUSH1 0x40 MLOAD RETURNDATASIZE PUSH1 0x1F NOT PUSH1 0x1F DUP3 ADD AND DUP3 ADD DUP1 PUSH1 0x40 MSTORE POP DUP2 ADD SWAP1 PUSH2 0x7CE SWAP2 SWAP1 PUSH2 0x155B JUMP JUMPDEST SWAP1 POP SWAP1 JUMP JUMPDEST CALLER PUSH1 0x1 PUSH1 0x1 PUSH1 0xA0 SHL SUB PUSH32 0x0 AND EQ DUP1 PUSH2 0x81B JUMPI POP PUSH1 0x1 SLOAD PUSH1 0x1 PUSH1 0x60 SHL SWAP1 DIV PUSH1 0x1 PUSH1 0x1 PUSH1 0xA0 SHL SUB AND CALLER EQ JUMPDEST PUSH2 0x867 JUMPI PUSH1 0x40 MLOAD PUSH3 0x461BCD PUSH1 0xE5 SHL DUP2 MSTORE PUSH1 0x20 PUSH1 0x4 DUP3 ADD DUP2 SWAP1 MSTORE PUSH1 0x24 DUP3 ADD MSTORE PUSH32 0x6163636F756E743A206E6F74204F776E6572206F7220456E747279506F696E74 PUSH1 0x44 DUP3 ADD MSTORE PUSH1 0x64 ADD PUSH2 0x28A JUMP JUMPDEST JUMP JUMPDEST PUSH1 0x0 DUP1 DUP5 PUSH1 0x1 PUSH1 0x1 PUSH1 0xA0 SHL SUB AND DUP5 DUP5 PUSH1 0x40 MLOAD PUSH2 0x885 SWAP2 SWAP1 PUSH2 0x1598 JUMP JUMPDEST PUSH1 0x0 PUSH1 0x40 MLOAD DUP1 DUP4 SUB DUP2 DUP6 DUP8 GAS CALL SWAP3 POP POP POP RETURNDATASIZE DUP1 PUSH1 0x0 DUP2 EQ PUSH2 0x8C2 JUMPI PUSH1 0x40 MLOAD SWAP2 POP PUSH1 0x1F NOT PUSH1 0x3F RETURNDATASIZE ADD AND DUP3 ADD PUSH1 0x40 MSTORE RETURNDATASIZE DUP3 MSTORE RETURNDATASIZE PUSH1 0x0 PUSH1 0x20 DUP5 ADD RETURNDATACOPY PUSH2 0x8C7 JUMP JUMPDEST PUSH1 0x60 SWAP2 POP JUMPDEST POP SWAP2 POP SWAP2 POP DUP2 PUSH2 0x33A JUMPI DUP1 MLOAD PUSH1 0x20 DUP3 ADD REVERT JUMPDEST PUSH2 0x41D PUSH2 0xC59 JUMP JUMPDEST PUSH32 0x4910FDFA16FED3260ED0E7147F7CC6DA11A60208B5B9406D12A635614FFD9143 SLOAD PUSH1 0xFF AND ISZERO PUSH2 0x919 JUMPI PUSH2 0x914 DUP4 PUSH2 0xCB1 JUMP JUMPDEST POP POP POP JUMP JUMPDEST DUP3 PUSH1 0x1 PUSH1 0x1 PUSH1 0xA0 SHL SUB AND PUSH4 0x52D1902D PUSH1 0x40 MLOAD DUP2 PUSH4 0xFFFFFFFF AND PUSH1 0xE0 SHL DUP2 MSTORE PUSH1 0x4 ADD PUSH1 0x20 PUSH1 0x40 MLOAD DUP1 DUP4 SUB DUP2 DUP7 GAS STATICCALL SWAP3 POP POP POP DUP1 ISZERO PUSH2 0x973 JUMPI POP PUSH1 0x40 DUP1 MLOAD PUSH1 0x1F RETURNDATASIZE SWAP1 DUP2 ADD PUSH1 0x1F NOT AND DUP3 ADD SWAP1 SWAP3 MSTORE PUSH2 0x970 SWAP2 DUP2 ADD SWAP1 PUSH2 0x155B JUMP JUMPDEST PUSH1 0x1 JUMPDEST PUSH2 0x9D6 JUMPI PUSH1 0x40 MLOAD PUSH3 0x461BCD PUSH1 0xE5 SHL DUP2 MSTORE PUSH1 0x20 PUSH1 0x4 DUP3 ADD MSTORE PUSH1 0x2E PUSH1 0x24 DUP3 ADD MSTORE PUSH32 0x45524331393637557067726164653A206E657720696D706C656D656E74617469 PUSH1 0x44 DUP3 ADD MSTORE PUSH14 0x6F6E206973206E6F742055555053 PUSH1 0x90 SHL PUSH1 0x64 DUP3 ADD MSTORE PUSH1 0x84 ADD PUSH2 0x28A JUMP JUMPDEST PUSH1 0x0 DUP1 MLOAD PUSH1 0x20 PUSH2 0x1624 DUP4 CODECOPY DUP2 MLOAD SWAP2 MSTORE DUP2 EQ PUSH2 0xA45 JUMPI PUSH1 0x40 MLOAD PUSH3 0x461BCD PUSH1 0xE5 SHL DUP2 MSTORE PUSH1 0x20 PUSH1 0x4 DUP3 ADD MSTORE PUSH1 0x29 PUSH1 0x24 DUP3 ADD MSTORE PUSH32 0x45524331393637557067726164653A20756E737570706F727465642070726F78 PUSH1 0x44 DUP3 ADD MSTORE PUSH9 0x1A58589B1955555251 PUSH1 0xBA SHL PUSH1 0x64 DUP3 ADD MSTORE PUSH1 0x84 ADD PUSH2 0x28A JUMP JUMPDEST POP PUSH2 0x914 DUP4 DUP4 DUP4 PUSH2 0xD4D JUMP JUMPDEST CALLER PUSH1 0x1 PUSH1 0x1 PUSH1 0xA0 SHL SUB PUSH32 0x0 AND EQ PUSH2 0x867 JUMPI PUSH1 0x40 MLOAD PUSH3 0x461BCD PUSH1 0xE5 SHL DUP2 MSTORE PUSH1 0x20 PUSH1 0x4 DUP3 ADD MSTORE PUSH1 0x1C PUSH1 0x24 DUP3 ADD MSTORE PUSH32 0x6163636F756E743A206E6F742066726F6D20456E747279506F696E7400000000 PUSH1 0x44 DUP3 ADD MSTORE PUSH1 0x64 ADD PUSH2 0x28A JUMP JUMPDEST PUSH32 0x19457468657265756D205369676E6564204D6573736167653A0A333200000000 PUSH1 0x0 SWAP1 DUP2 MSTORE PUSH1 0x1C DUP3 SWAP1 MSTORE PUSH1 0x3C DUP2 KECCAK256 PUSH2 0xB46 PUSH2 0xB09 PUSH2 0x140 DUP7 ADD DUP7 PUSH2 0x144D JUMP JUMPDEST DUP1 DUP1 PUSH1 0x1F ADD PUSH1 0x20 DUP1 SWAP2 DIV MUL PUSH1 0x20 ADD PUSH1 0x40 MLOAD SWAP1 DUP2 ADD PUSH1 0x40 MSTORE DUP1 SWAP4 SWAP3 SWAP2 SWAP1 DUP2 DUP2 MSTORE PUSH1 0x20 ADD DUP4 DUP4 DUP1 DUP3 DUP5 CALLDATACOPY PUSH1 0x0 SWAP3 ADD SWAP2 SWAP1 SWAP2 MSTORE POP DUP6 SWAP4 SWAP3 POP POP PUSH2 0xD72 SWAP1 POP JUMP JUMPDEST PUSH1 0x1 SLOAD PUSH1 0x1 PUSH1 0x60 SHL SWAP1 DIV PUSH1 0x1 PUSH1 0x1 PUSH1 0xA0 SHL SUB SWAP1 DUP2 AND SWAP2 AND EQ PUSH2 0xB6C JUMPI PUSH1 0x1 SWAP2 POP POP PUSH2 0xB72 JUMP JUMPDEST PUSH1 0x0 SWAP2 POP POP JUMPDEST SWAP3 SWAP2 POP POP JUMP JUMPDEST PUSH1 0x1 DUP1 SLOAD PUSH1 0x20 DUP4 ADD CALLDATALOAD SWAP2 PUSH1 0x1 PUSH1 0x1 PUSH1 0x60 SHL SUB SWAP1 SWAP2 AND SWAP1 PUSH1 0x0 PUSH2 0xB99 DUP4 PUSH2 0x15B4 JUMP JUMPDEST SWAP2 SWAP1 PUSH2 0x100 EXP DUP2 SLOAD DUP2 PUSH1 0x1 PUSH1 0x1 PUSH1 0x60 SHL SUB MUL NOT AND SWAP1 DUP4 PUSH1 0x1 PUSH1 0x1 PUSH1 0x60 SHL SUB AND MUL OR SWAP1 SSTORE POP PUSH1 0x1 PUSH1 0x1 PUSH1 0x60 SHL SUB AND EQ PUSH2 0x41D JUMPI PUSH1 0x40 MLOAD PUSH3 0x461BCD PUSH1 0xE5 SHL DUP2 MSTORE PUSH1 0x20 PUSH1 0x4 DUP3 ADD MSTORE PUSH1 0x16 PUSH1 0x24 DUP3 ADD MSTORE PUSH22 0x6163636F756E743A20696E76616C6964206E6F6E6365 PUSH1 0x50 SHL PUSH1 0x44 DUP3 ADD MSTORE PUSH1 0x64 ADD PUSH2 0x28A JUMP JUMPDEST DUP1 ISZERO PUSH2 0x41D JUMPI PUSH1 0x40 MLOAD PUSH1 0x0 SWAP1 CALLER SWAP1 PUSH1 0x0 NOT SWAP1 DUP5 SWAP1 DUP5 DUP2 DUP2 DUP2 DUP6 DUP9 DUP9 CALL SWAP4 POP POP POP POP RETURNDATASIZE DUP1 PUSH1 0x0 DUP2 EQ PUSH2 0x33A JUMPI PUSH1 0x40 MLOAD SWAP2 POP PUSH1 0x1F NOT PUSH1 0x3F RETURNDATASIZE ADD AND DUP3 ADD PUSH1 0x40 MSTORE RETURNDATASIZE DUP3 MSTORE RETURNDATASIZE PUSH1 0x0 PUSH1 0x20 DUP5 ADD RETURNDATACOPY PUSH2 0x33A JUMP JUMPDEST PUSH1 0x1 SLOAD PUSH1 0x1 PUSH1 0x60 SHL SWAP1 DIV PUSH1 0x1 PUSH1 0x1 PUSH1 0xA0 SHL SUB AND CALLER EQ DUP1 PUSH2 0xC78 JUMPI POP CALLER ADDRESS EQ JUMPDEST PUSH2 0x867 JUMPI PUSH1 0x40 MLOAD PUSH3 0x461BCD PUSH1 0xE5 SHL DUP2 MSTORE PUSH1 0x20 PUSH1 0x4 DUP3 ADD MSTORE PUSH1 0xA PUSH1 0x24 DUP3 ADD MSTORE PUSH10 0x37B7363C9037BBB732B9 PUSH1 0xB1 SHL PUSH1 0x44 DUP3 ADD MSTORE PUSH1 0x64 ADD PUSH2 0x28A JUMP JUMPDEST PUSH1 0x1 PUSH1 0x1 PUSH1 0xA0 SHL SUB DUP2 AND EXTCODESIZE PUSH2 0xD1E JUMPI PUSH1 0x40 MLOAD PUSH3 0x461BCD PUSH1 0xE5 SHL DUP2 MSTORE PUSH1 0x20 PUSH1 0x4 DUP3 ADD MSTORE PUSH1 0x2D PUSH1 0x24 DUP3 ADD MSTORE PUSH32 0x455243313936373A206E657720696D706C656D656E746174696F6E206973206E PUSH1 0x44 DUP3 ADD MSTORE PUSH13 0x1BDD08184818DBDB9D1C9858DD PUSH1 0x9A SHL PUSH1 0x64 DUP3 ADD MSTORE PUSH1 0x84 ADD PUSH2 0x28A JUMP JUMPDEST PUSH1 0x0 DUP1 MLOAD PUSH1 0x20 PUSH2 0x1624 DUP4 CODECOPY DUP2 MLOAD SWAP2 MSTORE DUP1 SLOAD PUSH1 0x1 PUSH1 0x1 PUSH1 0xA0 SHL SUB NOT AND PUSH1 0x1 PUSH1 0x1 PUSH1 0xA0 SHL SUB SWAP3 SWAP1 SWAP3 AND SWAP2 SWAP1 SWAP2 OR SWAP1 SSTORE JUMP JUMPDEST PUSH2 0xD56 DUP4 PUSH2 0xD96 JUMP JUMPDEST PUSH1 0x0 DUP3 MLOAD GT DUP1 PUSH2 0xD63 JUMPI POP DUP1 JUMPDEST ISZERO PUSH2 0x914 JUMPI PUSH2 0x73B DUP4 DUP4 PUSH2 0xDD6 JUMP JUMPDEST PUSH1 0x0 DUP1 PUSH1 0x0 PUSH2 0xD81 DUP6 DUP6 PUSH2 0xDFB JUMP JUMPDEST SWAP2 POP SWAP2 POP PUSH2 0xD8E DUP2 PUSH2 0xE40 JUMP JUMPDEST POP SWAP4 SWAP3 POP POP POP JUMP JUMPDEST PUSH2 0xD9F DUP2 PUSH2 0xCB1 JUMP JUMPDEST PUSH1 0x40 MLOAD PUSH1 0x1 PUSH1 0x1 PUSH1 0xA0 SHL SUB DUP3 AND SWAP1 PUSH32 0xBC7CD75A20EE27FD9ADEBAB32041F755214DBC6BFFA90CC0225B39DA2E5C2D3B SWAP1 PUSH1 0x0 SWAP1 LOG2 POP JUMP JUMPDEST PUSH1 0x60 PUSH2 0x45E DUP4 DUP4 PUSH1 0x40 MLOAD DUP1 PUSH1 0x60 ADD PUSH1 0x40 MSTORE DUP1 PUSH1 0x27 DUP2 MSTORE PUSH1 0x20 ADD PUSH2 0x1644 PUSH1 0x27 SWAP2 CODECOPY PUSH2 0xF8A JUMP JUMPDEST PUSH1 0x0 DUP1 DUP3 MLOAD PUSH1 0x41 SUB PUSH2 0xE31 JUMPI PUSH1 0x20 DUP4 ADD MLOAD PUSH1 0x40 DUP5 ADD MLOAD PUSH1 0x60 DUP6 ADD MLOAD PUSH1 0x0 BYTE PUSH2 0xE25 DUP8 DUP3 DUP6 DUP6 PUSH2 0x1002 JUMP JUMPDEST SWAP5 POP SWAP5 POP POP POP POP PUSH2 0xE39 JUMP JUMPDEST POP PUSH1 0x0 SWAP1 POP PUSH1 0x2 JUMPDEST SWAP3 POP SWAP3 SWAP1 POP JUMP JUMPDEST PUSH1 0x0 DUP2 PUSH1 0x4 DUP2 GT ISZERO PUSH2 0xE54 JUMPI PUSH2 0xE54 PUSH2 0x15DA JUMP JUMPDEST SUB PUSH2 0xE5C JUMPI POP JUMP JUMPDEST PUSH1 0x1 DUP2 PUSH1 0x4 DUP2 GT ISZERO PUSH2 0xE70 JUMPI PUSH2 0xE70 PUSH2 0x15DA JUMP JUMPDEST SUB PUSH2 0xEBD JUMPI PUSH1 0x40 MLOAD PUSH3 0x461BCD PUSH1 0xE5 SHL DUP2 MSTORE PUSH1 0x20 PUSH1 0x4 DUP3 ADD MSTORE PUSH1 0x18 PUSH1 0x24 DUP3 ADD MSTORE PUSH32 0x45434453413A20696E76616C6964207369676E61747572650000000000000000 PUSH1 0x44 DUP3 ADD MSTORE PUSH1 0x64 ADD PUSH2 0x28A JUMP JUMPDEST PUSH1 0x2 DUP2 PUSH1 0x4 DUP2 GT ISZERO PUSH2 0xED1 JUMPI PUSH2 0xED1 PUSH2 0x15DA JUMP JUMPDEST SUB PUSH2 0xF1E JUMPI PUSH1 0x40 MLOAD PUSH3 0x461BCD PUSH1 0xE5 SHL DUP2 MSTORE PUSH1 0x20 PUSH1 0x4 DUP3 ADD MSTORE PUSH1 0x1F PUSH1 0x24 DUP3 ADD MSTORE PUSH32 0x45434453413A20696E76616C6964207369676E6174757265206C656E67746800 PUSH1 0x44 DUP3 ADD MSTORE PUSH1 0x64 ADD PUSH2 0x28A JUMP JUMPDEST PUSH1 0x3 DUP2 PUSH1 0x4 DUP2 GT ISZERO PUSH2 0xF32 JUMPI PUSH2 0xF32 PUSH2 0x15DA JUMP JUMPDEST SUB PUSH2 0x41D JUMPI PUSH1 0x40 MLOAD PUSH3 0x461BCD PUSH1 0xE5 SHL DUP2 MSTORE PUSH1 0x20 PUSH1 0x4 DUP3 ADD MSTORE PUSH1 0x22 PUSH1 0x24 DUP3 ADD MSTORE PUSH32 0x45434453413A20696E76616C6964207369676E6174757265202773272076616C PUSH1 0x44 DUP3 ADD MSTORE PUSH2 0x7565 PUSH1 0xF0 SHL PUSH1 0x64 DUP3 ADD MSTORE PUSH1 0x84 ADD PUSH2 0x28A JUMP JUMPDEST PUSH1 0x60 PUSH1 0x0 DUP1 DUP6 PUSH1 0x1 PUSH1 0x1 PUSH1 0xA0 SHL SUB AND DUP6 PUSH1 0x40 MLOAD PUSH2 0xFA7 SWAP2 SWAP1 PUSH2 0x1598 JUMP JUMPDEST PUSH1 0x0 PUSH1 0x40 MLOAD DUP1 DUP4 SUB DUP2 DUP6 GAS DELEGATECALL SWAP2 POP POP RETURNDATASIZE DUP1 PUSH1 0x0 DUP2 EQ PUSH2 0xFE2 JUMPI PUSH1 0x40 MLOAD SWAP2 POP PUSH1 0x1F NOT PUSH1 0x3F RETURNDATASIZE ADD AND DUP3 ADD PUSH1 0x40 MSTORE RETURNDATASIZE DUP3 MSTORE RETURNDATASIZE PUSH1 0x0 PUSH1 0x20 DUP5 ADD RETURNDATACOPY PUSH2 0xFE7 JUMP JUMPDEST PUSH1 0x60 SWAP2 POP JUMPDEST POP SWAP2 POP SWAP2 POP PUSH2 0xFF8 DUP7 DUP4 DUP4 DUP8 PUSH2 0x10C6 JUMP JUMPDEST SWAP7 SWAP6 POP POP POP POP POP POP JUMP JUMPDEST PUSH1 0x0 DUP1 PUSH32 0x7FFFFFFFFFFFFFFFFFFFFFFFFFFFFFFF5D576E7357A4501DDFE92F46681B20A0 DUP4 GT ISZERO PUSH2 0x1039 JUMPI POP PUSH1 0x0 SWAP1 POP PUSH1 0x3 PUSH2 0x10BD JUMP JUMPDEST PUSH1 0x40 DUP1 MLOAD PUSH1 0x0 DUP1 DUP3 MSTORE PUSH1 0x20 DUP3 ADD DUP1 DUP5 MSTORE DUP10 SWAP1 MSTORE PUSH1 0xFF DUP9 AND SWAP3 DUP3 ADD SWAP3 SWAP1 SWAP3 MSTORE PUSH1 0x60 DUP2 ADD DUP7 SWAP1 MSTORE PUSH1 0x80 DUP2 ADD DUP6 SWAP1 MSTORE PUSH1 0x1 SWAP1 PUSH1 0xA0 ADD PUSH1 0x20 PUSH1 0x40 MLOAD PUSH1 0x20 DUP2 SUB SWAP1 DUP1 DUP5 SUB SWAP1 DUP6 GAS STATICCALL ISZERO DUP1 ISZERO PUSH2 0x108D JUMPI RETURNDATASIZE PUSH1 0x0 DUP1 RETURNDATACOPY RETURNDATASIZE PUSH1 0x0 REVERT JUMPDEST POP POP PUSH1 0x40 MLOAD PUSH1 0x1F NOT ADD MLOAD SWAP2 POP POP PUSH1 0x1 PUSH1 0x1 PUSH1 0xA0 SHL SUB DUP2 AND PUSH2 0x10B6 JUMPI PUSH1 0x0 PUSH1 0x1 SWAP3 POP SWAP3 POP POP PUSH2 0x10BD JUMP JUMPDEST SWAP2 POP PUSH1 0x0 SWAP1 POP JUMPDEST SWAP5 POP SWAP5 SWAP3 POP POP POP JUMP JUMPDEST PUSH1 0x60 DUP4 ISZERO PUSH2 0x1135 JUMPI DUP3 MLOAD PUSH1 0x0 SUB PUSH2 0x112E JUMPI PUSH1 0x1 PUSH1 0x1 PUSH1 0xA0 SHL SUB DUP6 AND EXTCODESIZE PUSH2 0x112E JUMPI PUSH1 0x40 MLOAD PUSH3 0x461BCD PUSH1 0xE5 SHL DUP2 MSTORE PUSH1 0x20 PUSH1 0x4 DUP3 ADD MSTORE PUSH1 0x1D PUSH1 0x24 DUP3 ADD MSTORE PUSH32 0x416464726573733A2063616C6C20746F206E6F6E2D636F6E7472616374000000 PUSH1 0x44 DUP3 ADD MSTORE PUSH1 0x64 ADD PUSH2 0x28A JUMP JUMPDEST POP DUP2 PUSH2 0x113F JUMP JUMPDEST PUSH2 0x113F DUP4 DUP4 PUSH2 0x1147 JUMP JUMPDEST SWAP5 SWAP4 POP POP POP POP JUMP JUMPDEST DUP2 MLOAD ISZERO PUSH2 0x1157 JUMPI DUP2 MLOAD DUP1 DUP4 PUSH1 0x20 ADD REVERT JUMPDEST DUP1 PUSH1 0x40 MLOAD PUSH3 0x461BCD PUSH1 0xE5 SHL DUP2 MSTORE PUSH1 0x4 ADD PUSH2 0x28A SWAP2 SWAP1 PUSH2 0x15F0 JUMP JUMPDEST PUSH1 0x0 DUP1 DUP4 PUSH1 0x1F DUP5 ADD SLT PUSH2 0x1183 JUMPI PUSH1 0x0 DUP1 REVERT JUMPDEST POP DUP2 CALLDATALOAD PUSH8 0xFFFFFFFFFFFFFFFF DUP2 GT ISZERO PUSH2 0x119B JUMPI PUSH1 0x0 DUP1 REVERT JUMPDEST PUSH1 0x20 DUP4 ADD SWAP2 POP DUP4 PUSH1 0x20 DUP3 PUSH1 0x5 SHL DUP6 ADD ADD GT ISZERO PUSH2 0xE39 JUMPI PUSH1 0x0 DUP1 REVERT JUMPDEST PUSH1 0x0 DUP1 PUSH1 0x0 DUP1 PUSH1 0x40 DUP6 DUP8 SUB SLT ISZERO PUSH2 0x11CC JUMPI PUSH1 0x0 DUP1 REVERT JUMPDEST DUP5 CALLDATALOAD PUSH8 0xFFFFFFFFFFFFFFFF DUP1 DUP3 GT ISZERO PUSH2 0x11E4 JUMPI PUSH1 0x0 DUP1 REVERT JUMPDEST PUSH2 0x11F0 DUP9 DUP4 DUP10 ADD PUSH2 0x1171 JUMP JUMPDEST SWAP1 SWAP7 POP SWAP5 POP PUSH1 0x20 DUP8 ADD CALLDATALOAD SWAP2 POP DUP1 DUP3 GT ISZERO PUSH2 0x1209 JUMPI PUSH1 0x0 DUP1 REVERT JUMPDEST POP PUSH2 0x1216 DUP8 DUP3 DUP9 ADD PUSH2 0x1171 JUMP JUMPDEST SWAP6 SWAP9 SWAP5 SWAP8 POP SWAP6 POP POP POP POP JUMP JUMPDEST PUSH1 0x1 PUSH1 0x1 PUSH1 0xA0 SHL SUB DUP2 AND DUP2 EQ PUSH2 0x41D JUMPI PUSH1 0x0 DUP1 REVERT JUMPDEST PUSH1 0x0 PUSH1 0x20 DUP3 DUP5 SUB SLT ISZERO PUSH2 0x1249 JUMPI PUSH1 0x0 DUP1 REVERT JUMPDEST DUP2 CALLDATALOAD PUSH2 0x45E DUP2 PUSH2 0x1222 JUMP JUMPDEST PUSH1 0x0 DUP1 PUSH1 0x0 PUSH1 0x60 DUP5 DUP7 SUB SLT ISZERO PUSH2 0x1269 JUMPI PUSH1 0x0 DUP1 REVERT JUMPDEST DUP4 CALLDATALOAD PUSH8 0xFFFFFFFFFFFFFFFF DUP2 GT ISZERO PUSH2 0x1280 JUMPI PUSH1 0x0 DUP1 REVERT JUMPDEST DUP5 ADD PUSH2 0x160 DUP2 DUP8 SUB SLT ISZERO PUSH2 0x1293 JUMPI PUSH1 0x0 DUP1 REVERT JUMPDEST SWAP6 PUSH1 0x20 DUP6 ADD CALLDATALOAD SWAP6 POP PUSH1 0x40 SWAP1 SWAP5 ADD CALLDATALOAD SWAP4 SWAP3 POP POP POP JUMP JUMPDEST PUSH1 0x0 DUP1 PUSH1 0x40 DUP4 DUP6 SUB SLT ISZERO PUSH2 0x12BB JUMPI PUSH1 0x0 DUP1 REVERT JUMPDEST DUP3 CALLDATALOAD PUSH2 0x12C6 DUP2 PUSH2 0x1222 JUMP JUMPDEST SWAP5 PUSH1 0x20 SWAP4 SWAP1 SWAP4 ADD CALLDATALOAD SWAP4 POP POP POP JUMP JUMPDEST PUSH4 0x4E487B71 PUSH1 0xE0 SHL PUSH1 0x0 MSTORE PUSH1 0x41 PUSH1 0x4 MSTORE PUSH1 0x24 PUSH1 0x0 REVERT JUMPDEST PUSH1 0x0 DUP1 PUSH1 0x40 DUP4 DUP6 SUB SLT ISZERO PUSH2 0x12FD JUMPI PUSH1 0x0 DUP1 REVERT JUMPDEST DUP3 CALLDATALOAD PUSH2 0x1308 DUP2 PUSH2 0x1222 JUMP JUMPDEST SWAP2 POP PUSH1 0x20 DUP4 ADD CALLDATALOAD PUSH8 0xFFFFFFFFFFFFFFFF DUP1 DUP3 GT ISZERO PUSH2 0x1325 JUMPI PUSH1 0x0 DUP1 REVERT JUMPDEST DUP2 DUP6 ADD SWAP2 POP DUP6 PUSH1 0x1F DUP4 ADD SLT PUSH2 0x1339 JUMPI PUSH1 0x0 DUP1 REVERT JUMPDEST DUP2 CALLDATALOAD DUP2 DUP2 GT ISZERO PUSH2 0x134B JUMPI PUSH2 0x134B PUSH2 0x12D4 JUMP JUMPDEST PUSH1 0x40 MLOAD PUSH1 0x1F DUP3 ADD PUSH1 0x1F NOT SWAP1 DUP2 AND PUSH1 0x3F ADD AND DUP2 ADD SWAP1 DUP4 DUP3 GT DUP2 DUP4 LT OR ISZERO PUSH2 0x1373 JUMPI PUSH2 0x1373 PUSH2 0x12D4 JUMP JUMPDEST DUP2 PUSH1 0x40 MSTORE DUP3 DUP2 MSTORE DUP9 PUSH1 0x20 DUP5 DUP8 ADD ADD GT ISZERO PUSH2 0x138C JUMPI PUSH1 0x0 DUP1 REVERT JUMPDEST DUP3 PUSH1 0x20 DUP7 ADD PUSH1 0x20 DUP4 ADD CALLDATACOPY PUSH1 0x0 PUSH1 0x20 DUP5 DUP4 ADD ADD MSTORE DUP1 SWAP6 POP POP POP POP POP POP SWAP3 POP SWAP3 SWAP1 POP JUMP JUMPDEST PUSH1 0x0 DUP1 PUSH1 0x0 DUP1 PUSH1 0x60 DUP6 DUP8 SUB SLT ISZERO PUSH2 0x13C4 JUMPI PUSH1 0x0 DUP1 REVERT JUMPDEST DUP5 CALLDATALOAD PUSH2 0x13CF DUP2 PUSH2 0x1222 JUMP JUMPDEST SWAP4 POP PUSH1 0x20 DUP6 ADD CALLDATALOAD SWAP3 POP PUSH1 0x40 DUP6 ADD CALLDATALOAD PUSH8 0xFFFFFFFFFFFFFFFF DUP1 DUP3 GT ISZERO PUSH2 0x13F3 JUMPI PUSH1 0x0 DUP1 REVERT JUMPDEST DUP2 DUP8 ADD SWAP2 POP DUP8 PUSH1 0x1F DUP4 ADD SLT PUSH2 0x1407 JUMPI PUSH1 0x0 DUP1 REVERT JUMPDEST DUP2 CALLDATALOAD DUP2 DUP2 GT ISZERO PUSH2 0x1416 JUMPI PUSH1 0x0 DUP1 REVERT JUMPDEST DUP9 PUSH1 0x20 DUP3 DUP6 ADD ADD GT ISZERO PUSH2 0x1428 JUMPI PUSH1 0x0 DUP1 REVERT JUMPDEST SWAP6 SWAP9 SWAP5 SWAP8 POP POP PUSH1 0x20 ADD SWAP5 POP POP POP JUMP JUMPDEST PUSH4 0x4E487B71 PUSH1 0xE0 SHL PUSH1 0x0 MSTORE PUSH1 0x32 PUSH1 0x4 MSTORE PUSH1 0x24 PUSH1 0x0 REVERT JUMPDEST PUSH1 0x0 DUP1 DUP4 CALLDATALOAD PUSH1 0x1E NOT DUP5 CALLDATASIZE SUB ADD DUP2 SLT PUSH2 0x1464 JUMPI PUSH1 0x0 DUP1 REVERT JUMPDEST DUP4 ADD DUP1 CALLDATALOAD SWAP2 POP PUSH8 0xFFFFFFFFFFFFFFFF DUP3 GT ISZERO PUSH2 0x147F JUMPI PUSH1 0x0 DUP1 REVERT JUMPDEST PUSH1 0x20 ADD SWAP2 POP CALLDATASIZE DUP2 SWAP1 SUB DUP3 SGT ISZERO PUSH2 0xE39 JUMPI PUSH1 0x0 DUP1 REVERT JUMPDEST PUSH4 0x4E487B71 PUSH1 0xE0 SHL PUSH1 0x0 MSTORE PUSH1 0x11 PUSH1 0x4 MSTORE PUSH1 0x24 PUSH1 0x0 REVERT JUMPDEST PUSH1 0x0 PUSH1 0x1 DUP3 ADD PUSH2 0x14BC JUMPI PUSH2 0x14BC PUSH2 0x1494 JUMP JUMPDEST POP PUSH1 0x1 ADD SWAP1 JUMP JUMPDEST PUSH1 0x20 DUP1 DUP3 MSTORE PUSH1 0x2C SWAP1 DUP3 ADD MSTORE PUSH32 0x46756E6374696F6E206D7573742062652063616C6C6564207468726F75676820 PUSH1 0x40 DUP3 ADD MSTORE PUSH12 0x19195B1959D85D1958D85B1B PUSH1 0xA2 SHL PUSH1 0x60 DUP3 ADD MSTORE PUSH1 0x80 ADD SWAP1 JUMP JUMPDEST PUSH1 0x20 DUP1 DUP3 MSTORE PUSH1 0x2C SWAP1 DUP3 ADD MSTORE PUSH32 0x46756E6374696F6E206D7573742062652063616C6C6564207468726F75676820 PUSH1 0x40 DUP3 ADD MSTORE PUSH12 0x6163746976652070726F7879 PUSH1 0xA0 SHL PUSH1 0x60 DUP3 ADD MSTORE PUSH1 0x80 ADD SWAP1 JUMP JUMPDEST PUSH1 0x0 PUSH1 0x20 DUP3 DUP5 SUB SLT ISZERO PUSH2 0x156D JUMPI PUSH1 0x0 DUP1 REVERT JUMPDEST POP MLOAD SWAP2 SWAP1 POP JUMP JUMPDEST PUSH1 0x0 JUMPDEST DUP4 DUP2 LT ISZERO PUSH2 0x158F JUMPI DUP2 DUP2 ADD MLOAD DUP4 DUP3 ADD MSTORE PUSH1 0x20 ADD PUSH2 0x1577 JUMP JUMPDEST POP POP PUSH1 0x0 SWAP2 ADD MSTORE JUMP JUMPDEST PUSH1 0x0 DUP3 MLOAD PUSH2 0x15AA DUP2 DUP5 PUSH1 0x20 DUP8 ADD PUSH2 0x1574 JUMP JUMPDEST SWAP2 SWAP1 SWAP2 ADD SWAP3 SWAP2 POP POP JUMP JUMPDEST PUSH1 0x0 PUSH1 0x1 PUSH1 0x1 PUSH1 0x60 SHL SUB DUP1 DUP4 AND DUP2 DUP2 SUB PUSH2 0x15D0 JUMPI PUSH2 0x15D0 PUSH2 0x1494 JUMP JUMPDEST PUSH1 0x1 ADD SWAP4 SWAP3 POP POP POP JUMP JUMPDEST PUSH4 0x4E487B71 PUSH1 0xE0 SHL PUSH1 0x0 MSTORE PUSH1 0x21 PUSH1 0x4 MSTORE PUSH1 0x24 PUSH1 0x0 REVERT JUMPDEST PUSH1 0x20 DUP2 MSTORE PUSH1 0x0 DUP3 MLOAD DUP1 PUSH1 0x20 DUP5 ADD MSTORE PUSH2 0x160F DUP2 PUSH1 0x40 DUP6 ADD PUSH1 0x20 DUP8 ADD PUSH2 0x1574 JUMP JUMPDEST PUSH1 0x1F ADD PUSH1 0x1F NOT AND SWAP2 SWAP1 SWAP2 ADD PUSH1 0x40 ADD SWAP3 SWAP2 POP POP JUMP INVALID CALLDATASIZE ADDMOD SWAP5 LOG1 EXTCODESIZE LOG1 LOG3 0x21 MOD PUSH8 0xC828492DB98DCA3E KECCAK256 PUSH23 0xCC3735A920A3CA505D382BBC416464726573733A206C6F PUSH24 0x2D6C6576656C2064656C65676174652063616C6C20666169 PUSH13 0x6564A264697066735822122021 SLOAD 0xB4 OR PUSH14 0x2304B2215EFB5AB15C41090E2FCD 0x5E CODECOPY 0xF6 0xAA 0xCD MUL MSTORE8 PUSH12 0x8074AA67C564736F6C634300 ADDMOD GT STOP CALLER "
				},
				"gasEstimates": {
					"creation": {
						"codeDepositCost": "1158400",
						"executionCost": "infinite",
						"totalCost": "infinite"
					},
					"external": {
						"addDeposit()": "infinite",
						"entryPoint()": "infinite",
						"execute(address,uint256,bytes)": "infinite",
						"executeBatch(address[],bytes[])": "infinite",
						"getDeposit()": "infinite",
						"nonce()": "2343",
						"owner()": "2376",
						"proxiableUUID()": "infinite",
						"upgradeTo(address)": "infinite",
						"upgradeToAndCall(address,bytes)": "infinite",
						"validateUserOp((address,uint256,bytes,bytes,uint256,uint256,uint256,uint256,uint256,bytes,bytes),bytes32,uint256)": "infinite",
						"withdrawDepositTo(address,uint256)": "infinite"
					},
					"internal": {
						"_authorizeUpgrade(address)": "infinite",
						"_call(address,uint256,bytes memory)": "infinite",
						"_onlyOwner()": "infinite",
						"_requireFromEntryPointOrOwner()": "infinite",
						"_validateAndUpdateNonce(struct UserOperation calldata)": "infinite",
						"_validateSignature(struct UserOperation calldata,bytes32)": "infinite"
					}
				},
				"methodIdentifiers": {
					"addDeposit()": "4a58db19",
					"entryPoint()": "b0d691fe",
					"execute(address,uint256,bytes)": "b61d27f6",
					"executeBatch(address[],bytes[])": "18dfb3c7",
					"getDeposit()": "c399ec88",
					"nonce()": "affed0e0",
					"owner()": "8da5cb5b",
					"proxiableUUID()": "52d1902d",
					"upgradeTo(address)": "3659cfe6",
					"upgradeToAndCall(address,bytes)": "4f1ef286",
					"validateUserOp((address,uint256,bytes,bytes,uint256,uint256,uint256,uint256,uint256,bytes,bytes),bytes32,uint256)": "3a871cdd",
					"withdrawDepositTo(address,uint256)": "4d44560d"
				}
			},
			"storageLayout": {
				"storage": [
					{
						"astId": 351,
						"contract": "SimpleAccountV2.sol:SimpleAccountV2",
						"label": "_initialized",
						"offset": 0,
						"slot": "0",
						"type": "t_uint8"
					},
					{
						"astId": 354,
						"contract": "SimpleAccountV2.sol:SimpleAccountV2",
						"label": "_initializing",
						"offset": 1,
						"slot": "0",
						"type": "t_bool"
					},
					{
						"astId": 2653,
						"contract": "SimpleAccountV2.sol:SimpleAccountV2",
						"label": "_filler",
						"offset": 2,
						"slot": "0",
						"type": "t_bytes28"
					},
					{
						"astId": 2655,
						"contract": "SimpleAccountV2.sol:SimpleAccountV2",
						"label": "_nonce",
						"offset": 0,
						"slot": "1",
						"type": "t_uint96"
					},
					{
						"astId": 2657,
						"contract": "SimpleAccountV2.sol:SimpleAccountV2",
						"label": "owner",
						"offset": 12,
						"slot": "1",
						"type": "t_address"
					}
				],
				"types": {
					"t_address": {
						"encoding": "inplace",
						"label": "address",
						"numberOfBytes": "20"
					},
					"t_bool": {
						"encoding": "inplace",
						"label": "bool",
						"numberOfBytes": "1"
					},
					"t_bytes28": {
						"encoding": "inplace",
						"label": "bytes28",
						"numberOfBytes": "28"
					},
					"t_uint8": {
						"encoding": "inplace",
						"label": "uint8",
						"numberOfBytes": "1"
					},
					"t_uint96": {
						"encoding": "inplace",
						"label": "uint96",
						"numberOfBytes": "12"
					}
				}
			},
			"userdoc": {
				"kind": "user",
				"methods": {
					"addDeposit()": {
						"notice": "deposit more funds for this account in the entryPoint"
					},
					"entryPoint()": {
						"notice": "return the entryPoint used by this account. subclass should return the current entryPoint used by this account."
					},
					"execute(address,uint256,bytes)": {
						"notice": "execute a transaction (called directly from owner, or by entryPoint)"
					},
					"executeBatch(address[],bytes[])": {
						"notice": "execute a sequence of transactions"
					},
					"getDeposit()": {
						"notice": "check current account deposit in the entryPoint"
					},
					"nonce()": {
						"notice": "return the account nonce. subclass should return a nonce value that is used both by _validateAndUpdateNonce, and by the external provider (to read the current nonce)"
					},
					"validateUserOp((address,uint256,bytes,bytes,uint256,uint256,uint256,uint256,uint256,bytes,bytes),bytes32,uint256)": {
						"notice": "Validate user's signature and nonce. subclass doesn't need to override this method. Instead, it should override the specific internal validation methods."
					},
					"withdrawDepositTo(address,uint256)": {
						"notice": "withdraw value from the account's deposit"
					}
				},
				"notice": "minimal account.  this is sample minimal account.  has execute, eth handling methods  has a single signer that can send requests through the entryPoint.",
				"version": 1
			}
		}
	}
}