{
	"core/SenderCreator.sol": {
		"SenderCreator": {
			"abi": [
				{
					"inputs": [
						{
							"internalType": "bytes",
							"name": "initCode",
							"type": "bytes"
						}
					],
					"name": "createSender",
					"outputs": [
						{
							"internalType": "address",
							"name": "sender",
							"type": "address"
						}
					],
					"stateMutability": "nonpayable",
					"type": "function"
				}
			],
			"devdoc": {
				"kind": "dev",
				"methods": {
					"createSender(bytes)": {
						"params": {
							"initCode": "the initCode value from a UserOp. contains 20 bytes of factory address, followed by calldata"
						},
						"returns": {
							"sender": "the returned address of the created account, or zero address on failure."
						}
					}
				},
				"version": 1
			},
			"evm": {
				"assembly": "    /* \"core/SenderCreator.sol\":205:1047  contract SenderCreator {... */\n  mstore(0x40, 0x80)\n  callvalue\n  dup1\n  iszero\n  tag_1\n  jumpi\n  0x00\n  dup1\n  revert\ntag_1:\n  pop\n  dataSize(sub_0)\n  dup1\n  dataOffset(sub_0)\n  0x00\n  codecopy\n  0x00\n  return\nstop\n\nsub_0: assembly {\n        /* \"core/SenderCreator.sol\":205:1047  contract SenderCreator {... */\n      mstore(0x40, 0x80)\n      callvalue\n      dup1\n      iszero\n      tag_1\n      jumpi\n      0x00\n      dup1\n      revert\n    tag_1:\n      pop\n      jumpi(tag_2, lt(calldatasize, 0x04))\n      shr(0xe0, calldataload(0x00))\n      dup1\n      0x570e1a36\n      eq\n      tag_3\n      jumpi\n    tag_2:\n      0x00\n      dup1\n      revert\n        /* \"core/SenderCreator.sol\":545:1045  function createSender(bytes calldata initCode) external returns (address sender) {... */\n    tag_3:\n      tag_4\n      tag_5\n      calldatasize\n      0x04\n      tag_6\n      jump\t// in\n    tag_5:\n      tag_7\n      jump\t// in\n    tag_4:\n      mload(0x40)\n      sub(shl(0xa0, 0x01), 0x01)\n        /* \"#utility.yul\":774:806   */\n      swap1\n      swap2\n      and\n        /* \"#utility.yul\":756:807   */\n      dup2\n      mstore\n        /* \"#utility.yul\":744:746   */\n      0x20\n        /* \"#utility.yul\":729:747   */\n      add\n        /* \"core/SenderCreator.sol\":545:1045  function createSender(bytes calldata initCode) external returns (address sender) {... */\n      mload(0x40)\n      dup1\n      swap2\n      sub\n      swap1\n      return\n    tag_7:\n        /* \"core/SenderCreator.sol\":610:624  address sender */\n      0x00\n      dup1\n        /* \"core/SenderCreator.sol\":670:686  initCode[0 : 20] */\n      tag_11\n        /* \"core/SenderCreator.sol\":683:685  20 */\n      0x14\n        /* \"core/SenderCreator.sol\":610:624  address sender */\n      dup3\n        /* \"core/SenderCreator.sol\":670:678  initCode */\n      dup6\n      dup8\n        /* \"core/SenderCreator.sol\":670:686  initCode[0 : 20] */\n      tag_12\n      jump\t// in\n    tag_11:\n        /* \"core/SenderCreator.sol\":662:687  bytes20(initCode[0 : 20]) */\n      tag_13\n      swap2\n      tag_14\n      jump\t// in\n    tag_13:\n        /* \"core/SenderCreator.sol\":654:688  address(bytes20(initCode[0 : 20])) */\n      0x60\n      shr\n      swap1\n      pop\n        /* \"core/SenderCreator.sol\":698:723  bytes memory initCallData */\n      0x00\n        /* \"core/SenderCreator.sol\":726:740  initCode[20 :] */\n      tag_15\n        /* \"core/SenderCreator.sol\":726:734  initCode */\n      dup5\n        /* \"core/SenderCreator.sol\":735:737  20 */\n      0x14\n        /* \"core/SenderCreator.sol\":726:734  initCode */\n      dup2\n      dup9\n        /* \"core/SenderCreator.sol\":726:740  initCode[20 :] */\n      tag_12\n      jump\t// in\n    tag_15:\n        /* \"core/SenderCreator.sol\":698:740  bytes memory initCallData = initCode[20 :] */\n      dup1\n      dup1\n      0x1f\n      add\n      0x20\n      dup1\n      swap2\n      div\n      mul\n      0x20\n      add\n      mload(0x40)\n      swap1\n      dup2\n      add\n      0x40\n      mstore\n      dup1\n      swap4\n      swap3\n      swap2\n      swap1\n      dup2\n      dup2\n      mstore\n      0x20\n      add\n      dup4\n      dup4\n      dup1\n      dup3\n      dup5\n      calldatacopy\n      0x00\n      swap3\n      add\n      dup3\n      swap1\n      mstore\n      pop\n        /* \"core/SenderCreator.sol\":904:923  mload(initCallData) */\n      dup5\n      mload\n        /* \"core/SenderCreator.sol\":698:740  bytes memory initCallData = initCode[20 :] */\n      swap5\n      swap6\n      pop\n      swap4\n        /* \"core/SenderCreator.sol\":928:930  32 */\n      0x20\n      swap4\n      pop\n        /* \"core/SenderCreator.sol\":698:740  bytes memory initCallData = initCode[20 :] */\n      dup5\n      swap3\n      pop\n        /* \"core/SenderCreator.sol\":904:923  mload(initCallData) */\n      swap1\n      pop\n        /* \"core/SenderCreator.sol\":879:902  add(initCallData, 0x20) */\n      dup3\n      dup6\n      add\n        /* \"core/SenderCreator.sol\":698:740  bytes memory initCallData = initCode[20 :] */\n      dup3\n        /* \"core/SenderCreator.sol\":867:874  factory */\n      dup8\n        /* \"core/SenderCreator.sol\":860:865  gas() */\n      gas\n        /* \"core/SenderCreator.sol\":855:931  call(gas(), factory, 0, add(initCallData, 0x20), mload(initCallData), 0, 32) */\n      call\n        /* \"core/SenderCreator.sol\":844:931  success := call(gas(), factory, 0, add(initCallData, 0x20), mload(initCallData), 0, 32) */\n      swap1\n      pop\n        /* \"core/SenderCreator.sol\":960:961  0 */\n      0x00\n        /* \"core/SenderCreator.sol\":954:962  mload(0) */\n      mload\n        /* \"core/SenderCreator.sol\":944:962  sender := mload(0) */\n      swap4\n      pop\n        /* \"core/SenderCreator.sol\":986:993  success */\n      dup1\n        /* \"core/SenderCreator.sol\":981:1039  if (!success) {... */\n      tag_16\n      jumpi\n        /* \"core/SenderCreator.sol\":1026:1027  0 */\n      0x00\n        /* \"core/SenderCreator.sol\":1009:1028  sender = address(0) */\n      swap4\n      pop\n        /* \"core/SenderCreator.sol\":981:1039  if (!success) {... */\n    tag_16:\n        /* \"core/SenderCreator.sol\":626:1045  {... */\n      pop\n      pop\n      pop\n        /* \"core/SenderCreator.sol\":545:1045  function createSender(bytes calldata initCode) external returns (address sender) {... */\n      swap3\n      swap2\n      pop\n      pop\n      jump\t// out\n        /* \"#utility.yul\":14:605   */\n    tag_6:\n        /* \"#utility.yul\":84:90   */\n      0x00\n        /* \"#utility.yul\":92:98   */\n      dup1\n        /* \"#utility.yul\":145:147   */\n      0x20\n        /* \"#utility.yul\":133:142   */\n      dup4\n        /* \"#utility.yul\":124:131   */\n      dup6\n        /* \"#utility.yul\":120:143   */\n      sub\n        /* \"#utility.yul\":116:148   */\n      slt\n        /* \"#utility.yul\":113:165   */\n      iszero\n      tag_19\n      jumpi\n        /* \"#utility.yul\":161:162   */\n      0x00\n        /* \"#utility.yul\":158:159   */\n      dup1\n        /* \"#utility.yul\":151:163   */\n      revert\n        /* \"#utility.yul\":113:165   */\n    tag_19:\n        /* \"#utility.yul\":201:210   */\n      dup3\n        /* \"#utility.yul\":188:211   */\n      calldataload\n        /* \"#utility.yul\":230:248   */\n      0xffffffffffffffff\n        /* \"#utility.yul\":271:273   */\n      dup1\n        /* \"#utility.yul\":263:269   */\n      dup3\n        /* \"#utility.yul\":260:274   */\n      gt\n        /* \"#utility.yul\":257:291   */\n      iszero\n      tag_20\n      jumpi\n        /* \"#utility.yul\":287:288   */\n      0x00\n        /* \"#utility.yul\":284:285   */\n      dup1\n        /* \"#utility.yul\":277:289   */\n      revert\n        /* \"#utility.yul\":257:291   */\n    tag_20:\n        /* \"#utility.yul\":325:331   */\n      dup2\n        /* \"#utility.yul\":314:323   */\n      dup6\n        /* \"#utility.yul\":310:332   */\n      add\n        /* \"#utility.yul\":300:332   */\n      swap2\n      pop\n        /* \"#utility.yul\":370:377   */\n      dup6\n        /* \"#utility.yul\":363:367   */\n      0x1f\n        /* \"#utility.yul\":359:361   */\n      dup4\n        /* \"#utility.yul\":355:368   */\n      add\n        /* \"#utility.yul\":351:378   */\n      slt\n        /* \"#utility.yul\":341:396   */\n      tag_21\n      jumpi\n        /* \"#utility.yul\":392:393   */\n      0x00\n        /* \"#utility.yul\":389:390   */\n      dup1\n        /* \"#utility.yul\":382:394   */\n      revert\n        /* \"#utility.yul\":341:396   */\n    tag_21:\n        /* \"#utility.yul\":432:434   */\n      dup2\n        /* \"#utility.yul\":419:435   */\n      calldataload\n        /* \"#utility.yul\":458:460   */\n      dup2\n        /* \"#utility.yul\":450:456   */\n      dup2\n        /* \"#utility.yul\":447:461   */\n      gt\n        /* \"#utility.yul\":444:478   */\n      iszero\n      tag_22\n      jumpi\n        /* \"#utility.yul\":474:475   */\n      0x00\n        /* \"#utility.yul\":471:472   */\n      dup1\n        /* \"#utility.yul\":464:476   */\n      revert\n        /* \"#utility.yul\":444:478   */\n    tag_22:\n        /* \"#utility.yul\":519:526   */\n      dup7\n        /* \"#utility.yul\":514:516   */\n      0x20\n        /* \"#utility.yul\":505:511   */\n      dup3\n        /* \"#utility.yul\":501:503   */\n      dup6\n        /* \"#utility.yul\":497:512   */\n      add\n        /* \"#utility.yul\":493:517   */\n      add\n        /* \"#utility.yul\":490:527   */\n      gt\n        /* \"#utility.yul\":487:544   */\n      iszero\n      tag_23\n      jumpi\n        /* \"#utility.yul\":540:541   */\n      0x00\n        /* \"#utility.yul\":537:538   */\n      dup1\n        /* \"#utility.yul\":530:542   */\n      revert\n        /* \"#utility.yul\":487:544   */\n    tag_23:\n        /* \"#utility.yul\":571:573   */\n      0x20\n        /* \"#utility.yul\":563:574   */\n      swap3\n      swap1\n      swap3\n      add\n      swap7\n        /* \"#utility.yul\":593:599   */\n      swap2\n      swap6\n      pop\n        /* \"#utility.yul\":14:605   */\n      swap1\n      swap4\n      pop\n      pop\n      pop\n      pop\n      jump\t// out\n        /* \"#utility.yul\":818:1149   */\n    tag_12:\n        /* \"#utility.yul\":923:932   */\n      0x00\n        /* \"#utility.yul\":934:943   */\n      dup1\n        /* \"#utility.yul\":976:984   */\n      dup6\n        /* \"#utility.yul\":964:974   */\n      dup6\n        /* \"#utility.yul\":961:985   */\n      gt\n        /* \"#utility.yul\":958:1002   */\n      iszero\n      tag_26\n      jumpi\n        /* \"#utility.yul\":998:999   */\n      0x00\n        /* \"#utility.yul\":995:996   */\n      dup1\n        /* \"#utility.yul\":988:1000   */\n      revert\n        /* \"#utility.yul\":958:1002   */\n    tag_26:\n        /* \"#utility.yul\":1027:1033   */\n      dup4\n        /* \"#utility.yul\":1017:1025   */\n      dup7\n        /* \"#utility.yul\":1014:1034   */\n      gt\n        /* \"#utility.yul\":1011:1051   */\n      iszero\n      tag_27\n      jumpi\n        /* \"#utility.yul\":1047:1048   */\n      0x00\n        /* \"#utility.yul\":1044:1045   */\n      dup1\n        /* \"#utility.yul\":1037:1049   */\n      revert\n        /* \"#utility.yul\":1011:1051   */\n    tag_27:\n      pop\n      pop\n        /* \"#utility.yul\":1073:1096   */\n      dup3\n      add\n      swap4\n        /* \"#utility.yul\":1118:1143   */\n      swap2\n      swap1\n      swap3\n      sub\n      swap2\n      pop\n        /* \"#utility.yul\":818:1149   */\n      jump\t// out\n        /* \"#utility.yul\":1154:1491   */\n    tag_14:\n      not(0xffffffffffffffffffffffff)\n        /* \"#utility.yul\":1275:1294   */\n      dup2\n      calldataload\n        /* \"#utility.yul\":1362:1373   */\n      dup2\n      dup2\n      and\n      swap2\n        /* \"#utility.yul\":1393:1395   */\n      0x14\n        /* \"#utility.yul\":1385:1396   */\n      dup6\n      lt\n        /* \"#utility.yul\":1382:1485   */\n      iszero\n      tag_29\n      jumpi\n        /* \"#utility.yul\":1472:1474   */\n      dup1\n        /* \"#utility.yul\":1466:1468   */\n      dup2\n        /* \"#utility.yul\":1459:1462   */\n      dup7\n        /* \"#utility.yul\":1455:1457   */\n      0x14\n        /* \"#utility.yul\":1451:1463   */\n      sub\n        /* \"#utility.yul\":1448:1449   */\n      0x03\n        /* \"#utility.yul\":1444:1464   */\n      shl\n        /* \"#utility.yul\":1440:1469   */\n      shl\n        /* \"#utility.yul\":1436:1438   */\n      dup4\n        /* \"#utility.yul\":1432:1470   */\n      and\n        /* \"#utility.yul\":1428:1475   */\n      and\n        /* \"#utility.yul\":1419:1475   */\n      swap3\n      pop\n        /* \"#utility.yul\":1382:1485   */\n    tag_29:\n      pop\n      pop\n        /* \"#utility.yul\":1154:1491   */\n      swap3\n      swap2\n      pop\n      pop\n      jump\t// out\n\n    auxdata: 0xa26469706673582212209cd96d7c5ef7b4b956e1ce45d10c0264b90f471883e298ce21a1a9a2018d034e64736f6c63430008110033\n}\n",
				"bytecode": {
					"linkReferences": {},
					"object": "608060405234801561001057600080fd5b506101f3806100206000396000f3fe608060405234801561001057600080fd5b506004361061002b5760003560e01c8063570e1a3614610030575b600080fd5b61004361003e3660046100ec565b61005f565b6040516001600160a01b03909116815260200160405180910390f35b60008061006f601482858761015e565b61007891610188565b60601c9050600061008c846014818861015e565b8080601f016020809104026020016040519081016040528093929190818152602001838380828437600092018290525084519495509360209350849250905082850182875af190506000519350806100e357600093505b50505092915050565b600080602083850312156100ff57600080fd5b823567ffffffffffffffff8082111561011757600080fd5b818501915085601f83011261012b57600080fd5b81358181111561013a57600080fd5b86602082850101111561014c57600080fd5b60209290920196919550909350505050565b6000808585111561016e57600080fd5b8386111561017b57600080fd5b5050820193919092039150565b6bffffffffffffffffffffffff1981358181169160148510156101b55780818660140360031b1b83161692505b50509291505056fea26469706673582212209cd96d7c5ef7b4b956e1ce45d10c0264b90f471883e298ce21a1a9a2018d034e64736f6c63430008110033",
					"opcodes": "PUSH1 0x80 PUSH1 0x40 MSTORE CALLVALUE DUP1 ISZERO PUSH2 0x10 JUMPI PUSH1 0x0 DUP1 REVERT JUMPDEST POP PUSH2 0x1F3 DUP1 PUSH2 0x20 PUSH1 0x0 CODECOPY PUSH1 0x0 RETURN INVALID PUSH1 0x80 PUSH1 0x40 MSTORE CALLVALUE DUP1 ISZERO PUSH2 0x10 JUMPI PUSH1 0x0 DUP1 REVERT JUMPDEST POP PUSH1 0x4 CALLDATASIZE LT PUSH2 0x2B JUMPI PUSH1 0x0 CALLDATALOAD PUSH1 0xE0 SHR DUP1 PUSH4 0x570E1A36 EQ PUSH2 0x30 JUMPI JUMPDEST PUSH1 0x0 DUP1 REVERT JUMPDEST PUSH2 0x43 PUSH2 0x3E CALLDATASIZE PUSH1 0x4 PUSH2 0xEC JUMP JUMPDEST PUSH2 0x5F JUMP JUMPDEST PUSH1 0x40 MLOAD PUSH1 0x1 PUSH1 0x1 PUSH1 0xA0 SHL SUB SWAP1 SWAP2 AND DUP2 MSTORE PUSH1 0x20 ADD PUSH1 0x40 MLOAD DUP1 SWAP2 SUB SWAP1 RETURN JUMPDEST PUSH1 0x0 DUP1 PUSH2 0x6F PUSH1 0x14 DUP3 DUP6 DUP8 PUSH2 0x15E JUMP JUMPDEST PUSH2 0x78 SWAP2 PUSH2 0x188 JUMP JUMPDEST PUSH1 0x60 SHR SWAP1 POP PUSH1 0x0 PUSH2 0x8C DUP5 PUSH1 0x14 DUP2 DUP9 PUSH2 0x15E JUMP JUMPDEST DUP1 DUP1 PUSH1 0x1F ADD PUSH1 0x20 DUP1 SWAP2 DIV MUL PUSH1 0x20 ADD PUSH1 0x40 MLOAD SWAP1 DUP2 ADD PUSH1 0x40 MSTORE DUP1 SWAP4 SWAP3 SWAP2 SWAP1 DUP2 DUP2 MSTORE PUSH1 0x20 ADD DUP4 DUP4 DUP1 DUP3 DUP5 CALLDATACOPY PUSH1 0x0 SWAP3 ADD DUP3 SWAP1 MSTORE POP DUP5 MLOAD SWAP5 SWAP6 POP SWAP4 PUSH1 0x20 SWAP4 POP DUP5 SWAP3 POP SWAP1 POP DUP3 DUP6 ADD DUP3 DUP8 GAS CALL SWAP1 POP PUSH1 0x0 MLOAD SWAP4 POP DUP1 PUSH2 0xE3 JUMPI PUSH1 0x0 SWAP4 POP JUMPDEST POP POP POP SWAP3 SWAP2 POP POP JUMP JUMPDEST PUSH1 0x0 DUP1 PUSH1 0x20 DUP4 DUP6 SUB SLT ISZERO PUSH2 0xFF JUMPI PUSH1 0x0 DUP1 REVERT JUMPDEST DUP3 CALLDATALOAD PUSH8 0xFFFFFFFFFFFFFFFF DUP1 DUP3 GT ISZERO PUSH2 0x117 JUMPI PUSH1 0x0 DUP1 REVERT JUMPDEST DUP2 DUP6 ADD SWAP2 POP DUP6 PUSH1 0x1F DUP4 ADD SLT PUSH2 0x12B JUMPI PUSH1 0x0 DUP1 REVERT JUMPDEST DUP2 CALLDATALOAD DUP2 DUP2 GT ISZERO PUSH2 0x13A JUMPI PUSH1 0x0 DUP1 REVERT JUMPDEST DUP7 PUSH1 0x20 DUP3 DUP6 ADD ADD GT ISZERO PUSH2 0x14C JUMPI PUSH1 0x0 DUP1 REVERT JUMPDEST PUSH1 0x20 SWAP3 SWAP1 SWAP3 ADD SWAP7 SWAP2 SWAP6 POP SWAP1 SWAP4 POP POP POP POP JUMP JUMPDEST PUSH1 0x0 DUP1 DUP6 DUP6 GT ISZERO PUSH2 0x16E JUMPI PUSH1 0x0 DUP1 REVERT JUMPDEST DUP4 DUP7 GT ISZERO PUSH2 0x17B JUMPI PUSH1 0x0 DUP1 REVERT JUMPDEST POP POP DUP3 ADD SWAP4 SWAP2 SWAP1 SWAP3 SUB SWAP2 POP JUMP JUMPDEST PUSH12 0xFFFFFFFFFFFFFFFFFFFFFFFF NOT DUP2 CALLDATALOAD DUP2 DUP2 AND SWAP2 PUSH1 0x14 DUP6 LT ISZERO PUSH2 0x1B5 JUMPI DUP1 DUP2 DUP7 PUSH1 0x14 SUB PUSH1 0x3 SHL SHL DUP4 AND AND SWAP3 POP JUMPDEST POP POP SWAP3 SWAP2 POP POP JUMP INVALID LOG2 PUSH5 0x6970667358 0x22 SLT KECCAK256 SWAP13 0xD9 PUSH14 0x7C5EF7B4B956E1CE45D10C0264B9 0xF SELFBALANCE XOR DUP4 0xE2 SWAP9 0xCE 0x21 LOG1 0xA9 LOG2 ADD DUP14 SUB 0x4E PUSH5 0x736F6C6343 STOP ADDMOD GT STOP CALLER "
				},
				"gasEstimates": {
					"creation": {
						"codeDepositCost": "99800",
						"executionCost": "147",
						"totalCost": "99947"
					},
					"external": {
						"createSender(bytes)": "infinite"
					}
				},
				"methodIdentifiers": {
					"createSender(bytes)": "570e1a36"
				}
			},
			"storageLayout": {
				"storage": [],
				"types": null
			},
			"userdoc": {
				"kind": "user",
				"methods": {
					"createSender(bytes)": {
						"notice": "call the \"initCode\" factory to create and return the sender account address"
					}
				},
				"notice": "helper contract for EntryPoint, to call userOp.initCode from a \"neutral\" address, which is explicitly not the entryPoint itself.",
				"version": 1
			}
		}
	}
}